:020000040800F2
:10000000005000207DA50008EDA40008EFA4000822
:10001000F1A40008F3A40008F5A400080000000003
:10002000000000000000000000000000F7A400082D
:10003000F9A4000800000000FBA40008FDA40008CB
:10004000C5A50008C5A50008C5A50008C5A50008E8
:10005000C5A50008C5A50008C5A50008C5A50008D8
:10006000C5A50008C5A50008C5A50008C5A50008C8
:10007000C5A50008C5A50008C5A50008C5A50008B8
:10008000C5A50008C5A50008C5A50008C5A50008A8
:10009000C5A50008C5A50008C5A50008C5A5000898
:1000A000C5A5000835860008C5A5000809A50008F3
:1000B00021860008C5A50008C5A50008C5A500083B
:1000C000C5A50008C5A50008C5A50008C5A5000868
:1000D000C5A50008958100082177000821A5000822
:1000E000C5A50008C5A50008C5A5000800000000BA
:1000F0000000000000000000000000000000000000
:0C01000000000000000000005FF808F1A3
:1001100010B5054C237833B9044B13B10448AFF341
:1001200000800123237010BDF802002000000000B1
:10013000C4D9000808B5034B1BB103490348AFF30A
:10014000008008BD00000000FC020020C4D90008A7
:1001500081F0004102E000BF83F0004330B54FEA78
:1001600041044FEA430594EA050F08BF90EA020FE5
:100170001FBF54EA000C55EA020C7FEA645C7FEA78
:10018000655C00F0E2804FEA5454D4EB5555B8BF9B
:100190006D420CDD2C4480EA020281EA030382EA0C
:1001A000000083EA010180EA020281EA0303362D9E
:1001B00088BF30BD11F0004F4FEA01314FF4801C71
:1001C0004CEA113102D0404261EB410113F0004F83
:1001D0004FEA03334CEA133302D0524263EB43033A
:1001E00094EA050F00F0A780A4F10104D5F1200ED8
:1001F0000DDB02FA0EFC22FA05F2801841F1000133
:1002000003FA0EF2801843FA05F359410EE0A5F106
:1002100020050EF1200E012A03FA0EFC28BF4CF037
:10022000020C43FA05F3C01851EBE37101F00045ED
:1002300007D54FF0000EDCF1000C7EEB00006EEBFA
:100240000101B1F5801F1BD3B1F5001F0CD3490884
:100250005FEA30004FEA3C0C04F101044FEA4452DB
:1002600012F5800F80F09A80BCF1004F08BF5FEA62
:10027000500C50F1000041EB045141EA050130BD42
:100280005FEA4C0C404141EB010111F4801FA4F1E5
:100290000104E9D191F0000F04BF01460020B1FA3A
:1002A00081F308BF2033A3F10B03B3F120020CDA72
:1002B0000C3208DD02F1140CC2F10C0201FA0CF050
:1002C00021FA02F10CE002F11402D8BFC2F1200CB5
:1002D00001FA02F120FA0CFCDCBF41EA0C0190406B
:1002E000E41AA2BF01EB0451294330BD6FEA0404B4
:1002F0001F3C1CDA0C340EDC04F11404C4F120029F
:1003000020FA04F001FA02F340EA030021FA04F3B0
:1003100045EA030130BDC4F10C04C4F1200220FA07
:1003200002F001FA04F340EA0300294630BD21FA45
:1003300004F0294630BD94F0000F83F4801306BF0B
:1003400081F480110134013D4EE77FEA645C18BFFF
:100350007FEA655C29D094EA050F08BF90EA020F96
:1003600005D054EA000C04BF1946104630BD91EA8E
:10037000030F1EBF0021002030BD5FEA545C05D191
:100380004000494128BF41F0004130BD14F58004D0
:100390003CBF01F5801130BD01F0004545F0FE4144
:1003A00041F470014FF0000030BD7FEA645C1ABF79
:1003B000194610467FEA655C1CBF0B46024650EAB0
:1003C000013406BF52EA033591EA030F41F40021DC
:1003D00030BD00BF90F0000F04BF0021704730B562
:1003E0004FF4806404F132044FF000054FF0000137
:1003F00050E700BF90F0000F04BF0021704730B5F8
:100400004FF4806404F1320410F0004548BF4042CC
:100410004FF000013EE700BF42004FEAE2014FEA21
:1004200031014FEA02701FBF12F07F4393F07F4FFC
:1004300081F06051704732F07F4208BF704793F0FF
:100440007F4F04BF41F40021704730B54FF4607412
:1004500001F0004521F000411CE700BF50EA010215
:1004600008BF704730B54FF000050AE050EA0102BE
:1004700008BF704730B511F0004502D5404261EB2E
:1004800041014FF4806404F132045FEA915C3FF46F
:10049000D8AE4FF003025FEADC0C18BF03325FEA0C
:1004A000DC0C18BF033202EBDC02C2F1200300FABD
:1004B00003FC20FA02F001FA03FE40EA0E0021FAE2
:1004C00002F11444BDE600BF70B54FF0FF0C4CF4D0
:1004D000E06C1CEA11541DBF1CEA135594EA0C0F82
:1004E00095EA0C0F00F0DEF82C4481EA030621EABD
:1004F0004C5123EA4C5350EA013518BF52EA0335F8
:1005000041F4801143F4801338D0A0FB02CE4FF0A9
:100510000005E1FB02E506F00042E0FB03E54FF0D9
:100520000006E1FB03569CF0000F18BF4EF0010ED1
:10053000A4F1FF04B6F5007F64F5407404D25FEACD
:100540004E0E6D4146EB060642EAC62141EA555180
:100550004FEAC52040EA5E504FEACE2EB4F1FD0CC2
:1005600088BFBCF5E06F1ED8BEF1004F08BF5FEA40
:10057000500E50F1000041EB045170BD06F00046F2
:1005800046EA010140EA020081EA0301B4EB5C049F
:10059000C2BFD4EB0C0541EA045170BD41F4801197
:1005A0004FF0000E013C00F3AB8014F1360FDEBFBC
:1005B000002001F0004170BDC4F10004203C35DA98
:1005C0000C341BDC04F11404C4F1200500FA05F31B
:1005D00020FA04F001FA05F240EA020001F00042BC
:1005E00021F0004110EBD37021FA04F642EB060132
:1005F0005EEA430E08BF20EAD37070BDC4F10C045C
:10060000C4F1200500FA04F320FA05F001FA04F21F
:1006100040EA020001F0004110EBD37041F100010B
:100620005EEA430E08BF20EAD37070BDC4F1200516
:1006300000FA05F24EEA020E20FA04F301FA05F27E
:1006400043EA020321FA04F001F0004121FA04F226
:1006500020EA020000EBD3705EEA430E08BF20EAF6
:10066000D37070BD94F0000F0FD101F00046400030
:1006700041EB010111F4801F08BF013CF7D041EAB2
:10068000060195F0000F18BF704703F000465200B6
:1006900043EB030313F4801F08BF013DF7D043EA87
:1006A0000603704794EA0C0F0CEA135518BF95EA3D
:1006B0000C0F0CD050EA410618BF52EA4306D1D1C4
:1006C00081EA030101F000414FF0000070BD50EAE3
:1006D000410606BF1046194652EA430619D094EA6D
:1006E0000C0F02D150EA013613D195EA0C0F05D157
:1006F00052EA03361CBF104619460AD181EA0301AB
:1007000001F0004141F0FE4141F470014FF0000062
:1007100070BD41F0FE4141F4780170BD70B54FF0FD
:10072000FF0C4CF4E06C1CEA11541DBF1CEA13557D
:1007300094EA0C0F95EA0C0F00F0A7F8A4EB05045F
:1007400081EA030E52EA03354FEA013100F0888056
:100750004FEA03334FF0805545EA131343EA12631F
:100760004FEA022245EA111545EA10654FEA0026D4
:100770000EF000419D4208BF964244F1FD0404F58D
:10078000407402D25B084FEA3202B61A65EB0305E9
:100790005B084FEA32024FF480104FF4002CB6EBA6
:1007A000020E75EB030E22BFB61A754640EA0C0026
:1007B0005B084FEA3202B6EB020E75EB030E22BF66
:1007C000B61A754640EA5C005B084FEA3202B6EBA7
:1007D000020E75EB030E22BFB61A754640EA9C0066
:1007E0005B084FEA3202B6EB020E75EB030E22BF36
:1007F000B61A754640EADC0055EA060E18D04FEAF4
:10080000051545EA16754FEA06164FEAC30343EA93
:1008100052734FEAC2025FEA1C1CC0D111F4801F60
:100820000BD141EA00014FF000004FF0004CB6E759
:1008300011F4801F04BF01430020B4F1FD0C88BFF8
:10084000BCF5E06F3FF6AFAEB5EB030C04BFB6EB03
:10085000020C5FEA500C50F1000041EB045170BDF6
:100860000EF0004E4EEA113114EB5C04C2BFD4EB23
:100870000C0541EA045170BD41F480114FF0000EA7
:10088000013C90E645EA060E8DE60CEA135594EA23
:100890000C0F08BF95EA0C0F3FF43BAF94EA0C0F26
:1008A0000AD150EA01347FF434AF95EA0C0F7FF49B
:1008B00025AF104619462CE795EA0C0F06D152EAEF
:1008C00003353FF4FDAE1046194622E750EA4106D3
:1008D00018BF52EA43067FF4C5AE50EA41047FF4E4
:1008E0000DAF52EA43057FF4EBAE12E74FF0FF3C49
:1008F00006E000BF4FF0010C02E000BF4FF0010C1A
:100900004DF804CD4FEA410C7FEA6C5C4FEA430C92
:1009100018BF7FEA6C5C1BD001B050EA410C0CBFE1
:1009200052EA430C91EA030F02BF90EA020F002043
:10093000704710F1000F91EA030F58BF994208BFAA
:1009400090422CBFD8176FEAE37040F00100704767
:100950004FEA410C7FEA6C5C02D150EA013C07D1BE
:100960004FEA430C7FEA6C5CD6D152EA033CD3D009
:100970005DF8040B704700BF8446104662468C4603
:100980001946634600E000BF01B5FFF7B7FF002836
:1009900048BF10F1000F01BD4DF808EDFFF7F4FF5F
:1009A0000CBF012000205DF808FB00BF4DF808EDEA
:1009B000FFF7EAFF34BF012000205DF808FB00BF0D
:1009C0004DF808EDFFF7E0FF94BF012000205DF82F
:1009D00008FB00BF4DF808EDFFF7CEFF94BF0120E4
:1009E00000205DF808FB00BF4DF808EDFFF7C4FFDD
:1009F00034BF012000205DF808FB00BF4FEA410C26
:100A00007FEA6C5C02D150EA013C0AD14FEA430C08
:100A10007FEA6C5C02D152EA033C02D14FF0000045
:100A200070474FF0010070474FEA4102B2F1E043D6
:100A300024BFB3F5001CDCF1FE5C0DD901F0004CC5
:100A40004FEAC0024CEA5070B2F1004F40EB830015
:100A500008BF20F00100704711F0804F21D113F141
:100A60003872BCBF01F00040704741F480114FEA7A
:100A70005252C2F11802C2F1200C10FA0CF320FA03
:100A800002F018BF40F001004FEAC1234FEAD32320
:100A900003FA0CFC40EA0C0023FA02F34FEA43038A
:100AA000CCE77FEA625307D150EA01331EBF4FF013
:100AB000FE4040F44000704701F0004040F0FE402E
:100AC00040F40000704700BF80F0004002E000BF2B
:100AD00081F0004142001FBF5FEA410392EA030F29
:100AE0007FEA226C7FEA236C6AD04FEA1262D2EB73
:100AF0001363C1BFD218414048404140B8BF5B4278
:100B0000192B88BF704710F0004F40F4000020F010
:100B10007F4018BF404211F0004F41F4000121F026
:100B20007F4118BF494292EA030F3FD0A2F1010270
:100B300041FA03FC10EB0C00C3F1200301FA03F1AE
:100B400000F0004302D5494260EB4000B0F5000FD1
:100B500013D3B0F1807F06D340084FEA310102F190
:100B60000102FE2A51D2B1F1004F40EBC25008BF42
:100B700020F0010040EA03007047490040EB00000C
:100B800010F4000FA2F10102EDD1B0FA80FCACF13B
:100B9000080CB2EB0C0200FA0CF0AABF00EBC2503A
:100BA00052421843BCBFD0401843704792F0000F28
:100BB00081F4000106BF80F400000132013BB5E77B
:100BC0004FEA41037FEA226C18BF7FEA236C21D0F1
:100BD00092EA030F04D092F0000F08BF0846704756
:100BE00090EA010F1CBF0020704712F07F4F04D124
:100BF000400028BF40F00040704712F100723CBF37
:100C000000F50000704700F0004343F0FE4040F460
:100C1000000070477FEA226216BF08467FEA23631E
:100C20000146420206BF5FEA412390EA010F40F409
:100C3000800070474FF0000304E000BF10F0004355
:100C400048BF40425FEA000C08BF704743F096433C
:100C500001464FF000001CE050EA010208BF704757
:100C60004FF000030AE000BF50EA010208BF7047DE
:100C700011F0004302D5404261EB41015FEA010CF3
:100C800002BF84460146002043F0B64308BFA3F1EB
:100C90008053A3F50003BCFA8CF2083AA3EBC253CD
:100CA00010DB01FA02FC634400FA02FCC2F12002EC
:100CB000BCF1004F20FA02F243EB020008BF20F023
:100CC0000100704702F1200201FA02FCC2F1200289
:100CD00050EA4C0021FA02F243EB020008BF20EA7E
:100CE000DC7070474FF0FF0C1CEAD0521EBF1CEAAC
:100CF000D15392EA0C0F93EA0C0F6FD01A4480EA9A
:100D0000010C400218BF5FEA41211ED04FF0006382
:100D100043EA501043EA5111A0FB01310CF00040AE
:100D2000B1F5000F3EBF490041EAD3715B0040EAD4
:100D3000010062F17F02FD2A1DD8B3F1004F40EBA4
:100D4000C25008BF20F00100704790F0000F0CF077
:100D5000004C08BF49024CEA502040EA51207F3A3B
:100D6000C2BFD2F1FF0340EAC250704740F4000016
:100D70004FF00003013A5DDC12F1190FDCBF00F007
:100D800000407047C2F10002410021FA02F1C2F1B5
:100D9000200200FA02FC5FEA310040F1000053EA51
:100DA0004C0308BF20EADC70704792F0000F00F09F
:100DB000004C02BF400010F4000F013AF9D040EAA5
:100DC0000C0093F0000F01F0004C02BF490011F439
:100DD000000F013BF9D041EA0C018FE70CEAD15337
:100DE00092EA0C0F18BF93EA0C0F0AD030F0004CB7
:100DF00018BF31F0004CD8D180EA010000F000406B
:100E0000704790F0000F17BF90F0004F084691F028
:100E1000000F91F0004F14D092EA0C0F01D1420262
:100E20000FD193EA0C0F03D14B0218BF084608D12B
:100E300080EA010000F0004040F0FE4040F4000075
:100E4000704740F0FE4040F4400070474FF0FF0C08
:100E50001CEAD0521EBF1CEAD15392EA0C0F93EA4F
:100E60000C0F69D0A2EB030280EA010C49024FEAA1
:100E7000402037D04FF0805343EA111143EA10135A
:100E80000CF000408B4238BF5B0042F17D024FF412
:100E9000000C8B4224BF5B1A40EA0C00B3EB510FED
:100EA00024BFA3EB510340EA5C00B3EB910F24BFD6
:100EB000A3EB910340EA9C00B3EBD10F24BFA3EB5B
:100EC000D10340EADC001B0118BF5FEA1C1CE0D123
:100ED000FD2A3FF650AF8B4240EBC25008BF20F0D6
:100EE000010070470CF0004C4CEA50207F32C2BF2A
:100EF000D2F1FF0340EAC250704740F400004FF0C7
:100F00000003013A37E792F0000F00F0004C02BFF7
:100F1000400010F4000F013AF9D040EA0C0093F0C1
:100F2000000F01F0004C02BF490011F4000F013B1B
:100F3000F9D041EA0C0195E70CEAD15392EA0C0F83
:100F400008D142027FF47DAF93EA0C0F7FF470AFBB
:100F5000084676E793EA0C0F04D14B023FF44CAFFE
:100F600008466EE730F0004C18BF31F0004CCAD193
:100F700030F000427FF45CAF31F000437FF43CAFCF
:100F80005FE700BF4FF0FF3C06E000BF4FF0010CF1
:100F900002E000BF4FF0010C4DF804CD4FEA4002D3
:100FA0004FEA41037FEA226C18BF7FEA236C11D01D
:100FB00001B052EA530C18BF90EA010F58BFB2EBD0
:100FC000030088BFC81738BF6FEAE17018BF40F050
:100FD000010070477FEA226C02D15FEA402C05D104
:100FE0007FEA236CE4D15FEA412CE1D05DF8040B89
:100FF000704700BF844608466146FFE70FB5FFF71C
:10100000C9FF002848BF10F1000F0FBD4DF808EDD3
:10101000FFF7F4FF0CBF012000205DF808FB00BFC4
:101020004DF808EDFFF7EAFF34BF012000205DF81E
:1010300008FB00BF4DF808EDFFF7E0FF94BF01206B
:1010400000205DF808FB00BF4DF808EDFFF7D2FF68
:1010500094BF012000205DF808FB00BF4DF808EDAB
:10106000FFF7C8FF34BF012000205DF808FB00BF78
:101070004FEA4002B2F1FE4F0FD34FF09E03B3EBA5
:1010800012620DD94FEA002343F0004310F0004FE5
:1010900023FA02F018BF404270474FF0000070473B
:1010A00012F1610F01D1420205D110F0004008BFDA
:1010B0006FF0004070474FF00000704742000ED2C2
:1010C000B2F1FE4F0BD34FF09E03B3EB126209D483
:1010D0004FEA002343F0004323FA02F070474FF039
:1010E0000000704712F1610F01D1420202D14FF0AE
:1010F000FF3070474FF00000704700BF10F8012B21
:1011000011F8013B012A28BF9A42F7D0D01A704744
:10111000034613F8012B002AFBD1181A0138704737
:101120004FEA410212F5001215D211D56FF478730F
:10113000B3EB625212D94FEAC12343F0004343EAB2
:10114000505311F0004F23FA02F018BF404270478D
:101150004FF00000704750EA013005D111F0004017
:1011600008BF6FF0004070474FF00000704700BFAD
:1011700010B504460E4B18784FF47A73B3FBF0F3B6
:101180000C4A1068B0FBF3F000F0A0F868B90F2C1F
:1011900001D901200AE0002221464FF0FF3000F083
:1011A00055F8034B5C60002000E0012010BD00BF3B
:1011B000000000202001002008B5074A136843F012
:1011C00010031360032000F02FF80020FFF7D0FF7A
:1011D00009F01CF8002008BD00200240034A1168F5
:1011E000034B1B780B441360704700BF4C03002077
:1011F00000000020014B1868704700BF4C0300201E
:1012000038B50446FFF7F6FF0546B4F1FF3F02D0BC
:10121000044B1B781C44FFF7EDFF401BA042FAD3A0
:1012200038BD00BF00000020074AD36823F4E06304
:101230001B041B0C000200F4E060184340F0BF6088
:1012400040F40030D060704700ED00E030B4174B40
:10125000DB68C3F30223C3F10704042C28BF042472
:101260001D1D062D18D9033B4FF0FF3505FA04F478
:1012700021EA0401994005FA03F322EA0303194322
:1012800000280BDB0901C9B200F1604000F56140A4
:1012900080F8001330BC70470023E5E700F00F0032
:1012A0000901C9B2024B1954F4E700BF00ED00E098
:1012B00014ED00E000F01F02400901239340024AB0
:1012C00042F82030704700BF00E100E00138B0F183
:1012D000807F0AD2064B5860064AF02182F823101C
:1012E0000020986007221A6070470120704700BFF5
:1012F00010E000E000ED00E0042805D0054A136886
:1013000023F0040313607047024A136843F0040398
:101310001360704710E000E0704708B5FFF7FCFF6E
:1013200008BD000008B590F82130022B03D004233B
:101330008363012008BD0268136823F00E03136065
:101340000268136823F0010313600368194A93428B
:1013500014D0143293421FD0143293421ED0143250
:1013600093421ED0143293421ED01432934202D0C4
:101370004FF0807203E04FF4801200E001220E4B28
:101380005A60012380F82130002380F82030436B1D
:101390006BB198470020CDE71022F0E74FF4807240
:1013A000EDE74FF48052EAE74FF48032E7E70020A0
:1013B000C0E700BF0800024000000240044B0022CA
:1013C000DA61044A136943F0010313610180704735
:1013D00070030020002002401A4BDB6813F0100F4E
:1013E00027D0194AD36943F00203D3611023154A69
:1013F000D26812F0040F06D01349CA6942F0010204
:10140000CA6143F004030F4AD26912F0010F09D0F8
:101410000D49CA6942F00402CA610A49CA6922F048
:101420000102CA6140F20112934204D0054AD3601E
:1014300070470023DBE7034AD36923F00103D3613C
:10144000704700BF00200240700300200A4B1B6958
:1014500013F0800F0DD0084B084A5A6002F1883211
:101460005A601B6913F0800F01D0012070470020E3
:1014700070470020704700BF0020024023016745ED
:10148000034A136943F0800313610020704700BFD3
:101490000020024038B50446FFF7ACFE0546174B66
:1014A000DB6813F0010F0AD0B4F1FF3FF7D00CB3A3
:1014B000FFF7A0FE401BA042F1D9032019E00F4B1B
:1014C000DB6813F0200F02D00C4B2022DA600B4BAC
:1014D000DB6813F0100F09D1084BDB6913F0010F23
:1014E00004D1064BDB6813F0040F05D0FFF774FF3F
:1014F000012038BD0320FCE70020FAE7002002406D
:101500002DE9F843234C247E012C41D01E46904601
:101510000F4604461F4B01221A764CF25030FFF75B
:10152000B9FF034670BB012C29D0022C24D04FF008
:10153000040900244C4525D22101C1F12002A1F16A
:10154000200328FA01F106FA02F2114326FA03F306
:10155000194389B207EB4400FFF730FF4CF25030DB
:10156000FFF798FF0C4B1D6925F001051D6103462F
:1015700040B90134E4B2DDE74FF00209D9E74FF09A
:101580000109D6E7034A002111761846BDE8F88321
:101590000223FAE77003002000200240064B0022DD
:1015A000DA61064B1A6942F002021A6158611A693F
:1015B00042F040021A617047700300200020024090
:1015C000F0B482B000263546A1E0002C59D0012CA1
:1015D00000D1CE68FF2B68D88446FF2B68D8AC00BA
:1015E000DCF800200F27A74022EA070206FA04F4DD
:1015F0002243CCF800204A6812F0805F00F0868019
:101600005E4A946944F001049461926902F0010217
:101610000192019AAC08A71C594A52F8272005F0FC
:101620000307BF004FF00F0C0CFA07FC22EA0C0C6A
:10163000544A904242D002F5806290427FD002F537
:10164000806290427DD002F58062904234D00422C4
:1016500035E04D4FBC4214D00BD94C4FBC4210D09A
:1016600007F58037BC420CD0A7F58017BC42B1D13A
:1016700007E0A7F58017BC4203D007F58037BC42CE
:10168000A8D18C687CB1012C08D042610826A1E762
:10169000CE6808369EE7CE680C369BE702610826C6
:1016A00098E7002696E7042694E700F1040C94E7F7
:1016B000A5F10804A40093E7032200E00022BA4049
:1016C00042EA0C0202342E4F47F824204A6812F4F2
:1016D000803F38D02E4C22681A4322604A6812F4A8
:1016E000003F36D02A4C62681A4362604A6812F49E
:1016F000801F34D0264CA2681A43A2604A6812F4B4
:10170000001F32D0224CE2681343E36001350F2DF5
:1017100031D80122AA400B6813409A42F6D14C6896
:10172000122CB8D095D8022CB2D07FF64EAF032C35
:10173000B7D0112C7FF44EAFCE6804364AE70122B1
:10174000BDE70222BBE7124C226822EA03022260B4
:10175000C4E70F4C626822EA03026260C6E70C4CE1
:10176000A26822EA0302A260C8E7094CE26822EA02
:101770000303E360CAE702B0F0BC70470010024008
:10178000000001400008014000002110000031105D
:10179000000401408368194201D1002070470120F4
:1017A000704712B909040161704701617047000078
:1017B00082B0084B1B68084AA2FB03235B0A00FBAC
:1017C00003F0019000BF019B5A1E0192002BF9D13A
:1017D00002B0704720010020D34D621070B582B076
:1017E0000446036813F0010F2CD0AB4B5B6803F089
:1017F0000C03042B1DD0A84B5B6803F00C03082BD3
:1018000012D06368B3F5803F41D0002B55D103F16E
:10181000804303F504331A6822F480321A601A6890
:1018200022F480221A6037E09B4B5B6813F4803F00
:10183000E7D0994B1B6813F4003F03D06368002B7B
:1018400000F0AE81236813F0020F76D0924B5B68F4
:1018500013F00C0F5FD0904B5B6803F00C03082B68
:1018600054D02369002B00F08A808C4B01221A602F
:10187000FFF7C0FC0546884B1B6813F0020F75D1BB
:10188000FFF7B8FC401B0228F5D903208BE1824A00
:10189000136843F480331360636843B3FFF7AAFC13
:1018A00005467D4B1B6813F4003FCBD1FFF7A2FC2C
:1018B000401B6428F5D9032075E1B3F5A02F09D0AA
:1018C000754B1A6822F480321A601A6822F480225A
:1018D0001A60E1E703F18043A3F53C331A6842F450
:1018E00080221A601A6842F480321A60D4E7FFF747
:1018F00081FC0546684B1B6813F4003FA2D0FFF73C
:1019000079FC401B6428F5D903204CE1624B5B68ED
:1019100013F4803FA5D1604B1B6813F0020F04D075
:101920002369012B01D001203DE15B4A136823F0BC
:10193000F803616943EAC1031360236813F0080FD9
:1019400032D0A369002B5BD0554B01221A60FFF700
:1019500051FC0546504B5B6A13F0020F21D1FFF793
:1019600049FC401B0228F5D903201CE14A4A1368B0
:1019700023F0F803616943EAC1031360DDE7474BD5
:1019800000221A60FFF736FC0546434B1B6813F034
:10199000020FD2D0FFF72EFC401B0228F5D90320FE
:1019A00001E10120FFF704FF236813F0040F00F0AA
:1019B0009780394BDB6913F0805F33D1364BDA699E
:1019C00042F08052DA61DB6903F080530193019B9E
:1019D0000125344B1B6813F4807F25D0E368012B6D
:1019E00036D0002B4CD103F1804303F504331A6A3F
:1019F00022F001021A621A6A22F004021A622CE032
:101A0000274B00221A60FFF7F5FB0546224B5B6A65
:101A100013F0020FC8D0FFF7EDFB401B0228F5D9E9
:101A20000320C0E00025D4E71E4A136843F4807306
:101A30001360FFF7DFFB06461A4B1B6813F4807F29
:101A4000CCD1FFF7D7FB801B6428F5D90320AAE08F
:101A5000114A136A43F001031362E36873B3FFF79B
:101A6000C9FB06460C4B1B6A13F0020F37D1FFF778
:101A7000C1FB801B41F288339842F3D9032092E0E6
:101A8000052B11D0044B1A6A22F001021A621A6A5D
:101A900022F004021A62E0E7001002400000424215
:101AA0008004424200700040414B1A6A42F0040236
:101AB0001A621A6A42F001021A62CEE7FFF79AFB35
:101AC00006463B4B1B6A13F0020F08D0FFF792FB50
:101AD000801B41F288339842F3D9032063E0E5B9D3
:101AE000E369002B5ED0324A526802F00C02082AE9
:101AF0005BD0022B17D02F4B00221A60FFF77AFB26
:101B000004462B4B1B6813F0007F47D0FFF772FB96
:101B1000001B0228F5D9032045E0254AD36923F0AC
:101B20008053D361DCE7234B00221A60FFF762FB8E
:101B300005461F4B1B6813F0007F06D0FFF75AFBCA
:101B4000401B0228F5D903202DE0236AB3F5803F1E
:101B50001AD017494B6823F47413226A606A02434F
:101B600013434B60134B01221A60FFF743FB0446FB
:101B70000F4B1B6813F0007F0ED1FFF73BFB001BE0
:101B80000228F5D903200EE0094A536823F40033F4
:101B9000A1680B435360DCE7002004E0002002E072
:101BA000012000E0002002B070BD0120FBE700BF73
:101BB000001002406000424210B487B0164C94E816
:101BC0000F000DF1180C0CE90F00238AADF804305A
:101BD000124B5B6803F00C02082A1AD1C3F383424C
:101BE000624412F8102C13F4803F05D10C4800FB1E
:101BF00002F007B010BC7047084B5B68C3F340436A
:101C0000634413F8143C074800FB02F0B0FBF3F008
:101C1000EFE70448EDE700BFE0D9000800100240FC
:101C200000093D0000127A00594B1B6803F00703BE
:101C30008B420CD2564A136823F007030B43136000
:101C4000136803F007038B4201D00120704770B581
:101C5000036813F0020F06D04E4A536823F0F003D6
:101C60008468234353600C460546036813F0010F54
:101C700052D04368012B23D0022B28D0454A12684A
:101C800012F0020F00F0828042494A6822F00302FB
:101C900013434B60FFF7AEFA06466B68012B1DD06D
:101CA000022B2AD03B4B5B6813F00C0F34D0FFF7AC
:101CB000A1FA801B41F288339842F3D9032064E0F3
:101CC000344A126812F4003FDED101205DE0314A4F
:101CD000126812F0007FD7D1012056E02D4B5B68CF
:101CE00003F00C03042B17D0FFF784FA801B41F29A
:101CF00088339842F2D9032047E0264B5B6803F013
:101D00000C03082B08D0FFF775FA801B41F28833CB
:101D10009842F2D9032038E01D4B1B6803F00703FB
:101D2000A3420CD91A4A136823F007032343136014
:101D3000136803F00703A34201D0012025E02B68BC
:101D400013F0040F06D0134A536823F4E063E968E4
:101D50000B4353602B6813F0080F07D00D4A5368EC
:101D600023F46053296943EAC1035360FFF724FF5A
:101D7000084B5B68C3F30313074AD35CD840074B97
:101D800018600020FFF7F4F9002070BD0120FCE787
:101D90000020024000100240B0DE000820010020B8
:101DA000014B1868704700BF2001002008B5FFF7FD
:101DB000F7FF044B5B68C3F30223034AD35CD840AC
:101DC00008BD00BF00100240C0DE000808B5FFF7E4
:101DD000E7FF044B5B68C3F3C223034AD35CD840DC
:101DE00008BD00BF00100240C0DE0008F8B505467F
:101DF0000F4616461C463BE02CB1FFF7FBF9069B4D
:101E0000C01AA04234D32A68536823F0E003536019
:101E10006B68B3F5827F0BD0AB6AB3F5005F14D06B
:101E2000012385F85130002385F85030032027E046
:101E3000AB68B3F5004F02D0B3F5806FECD12A68E0
:101E4000136823F040031360E6E72A68136823F45D
:101E500000531B041B0C13602A68136843F40053DF
:101E60001360DDE70123B34209D0B4F1FF3FC3D1D2
:101E70002B689B6837EA0303F4D00023F3E70020C4
:101E8000F8BD10B582B0044600920B4600228021B6
:101E9000FFF7ACFF034610B9184602B010BD636DE2
:101EA00043F0200363650323F6E72DE9F04184B096
:101EB0001E4690F85030012B00F0C88004460D46B5
:101EC0009046012380F85030FFF794F9074694F8C4
:101ED0005130DBB2012B0AD00223012284F85120B9
:101EE000002284F85020184604B0BDE8F081002D8F
:101EF00000F0A480B8F1000F00F0A280032384F862
:101F00005130002363652563A4F83480A4F836803B
:101F1000A363A387E38763642364A368B3F5004FD7
:101F20001BD023681A6812F0400F03D11A6842F0E0
:101F300040021A60E368B3F5006F14D063681BB108
:101F4000E38E9BB2012B3ED1236815F8012B1A7347
:101F5000E38E013B9BB2E38635E02268136843F4CD
:101F600080431360DDE763681BB1E38E9BB2012BF6
:101F70000DD1236835F8022BDA60E38E013B9BB26A
:101F8000E38604E0002E5DD0B6F1FF3F0FD1E38E73
:101F90009BB27BB323689A6812F0020FF2D035F837
:101FA000022BDA60E38E013B9BB2E386EFE7FFF79B
:101FB00021F9C01BB042EAD303238EE7002E43D0A1
:101FC000B6F1FF3F0FD1E38E9BB29BB123689A68B5
:101FD00012F0020FF2D015F8012B1A73E38E013BB9
:101FE0009BB2E386EFE7FFF705F9C01BB042EAD3E7
:101FF000032372E700973346012202212046FFF7B0
:10200000F5FE08B1032368E73A4631462046FFF75C
:1020100038FF034618B12023636501235DE7A268FA
:1020200032B903922268D168039192680392039AAD
:10203000626D002A3FF451AF01234EE701234CE7C4
:1020400001234AE7032348E7032346E702234AE73D
:1020500000283CD010B504460023836290F851302C
:10206000002B31D0022384F851302268136823F00A
:10207000400313606368A2681343E2681343226954
:10208000134362691343A26902F400721343E269C5
:102090001343226A1343A16A22680B431360638BC4
:1020A00003F00403616A22680B4353602368E26A09
:1020B0001A612268D36923F40063D361002060654C
:1020C000012384F8513010BD08F0F0F8CAE7012070
:1020D0007047000070B4036A23F001030362036ACF
:1020E0004268846924F073040D6845EA040623F00D
:1020F00002048B6823430D4DA84209D00B4DA84222
:102100000DD0426086614A684263036270BC7047CA
:1021100023F00803CC68234323F00403EEE722F402
:1021200040724C6914438A692243EAE7002C01405B
:1021300030B4036A23F480730362036A4268C4699B
:1021400024F073040D682C4323F400738D6843EA74
:1021500005230F4DA84209D00D4DA8420ED0426074
:10216000C4614A68C263036230BC704723F40063F1
:10217000CD6843EA052323F48063EDE722F440525F
:102180004D6942EA05128D6942EA0512E7E700BF90
:10219000002C014030B4036A23F480530362036AC5
:1021A0004468C26922F4E6420D6842EA052223F43B
:1021B00000538D6843EA0533074DA84206D04460BA
:1021C000C2614A680264036230BC704724F48044F0
:1021D0004D6944EA8514F2E7002C014010B4036A0B
:1021E000046A24F001040462846924F0F00444EADF
:1021F000021223F00A030B438261036210BC704792
:1022000010B4036A23F0100303628469036A24F4A0
:10221000704444EA023223F0A00343EA01138261CE
:10222000036210BC7047836823F0700341F007011C
:1022300019438160704710B4846824F47F4442EAF3
:1022400003230B432343836010BC7047022380F8B1
:102250003D300268136843F001031360012380F8E6
:102260003D30002070470268D36843F00103D3601B
:102270000268136843F00103136000207047704741
:10228000704790F83C30012B7DD010B504460123F7
:1022900080F83C30022380F83D300268936823F4D4
:1022A0007F4323F0770393600B68402B57D010D9FE
:1022B000702B3ED01FD8502B47D0602B32D1CA682C
:1022C00049680068FFF79CFF60212068FFF7ABFFBB
:1022D00028E0102B4DD008D9202B4FD0302B21D106
:1022E00030210068FFF79FFF1CE0DBB90021006888
:1022F000FFF799FF16E0B3F5805F0ED0B3F5005FEE
:1023000010D1CB684A6889680068FFF794FF22689B
:10231000936843F48043936004E00268936823F079
:1023200007039360012384F83D30002084F83C00CB
:1023300010BDCB684A6889680068FFF77CFF226897
:10234000936843F077039360ECE7CA6849680068D4
:10235000FFF744FF50212068FFF765FFE2E7CA68F6
:1023600049680068FFF73AFF40212068FFF75BFFEC
:10237000D8E710210068FFF756FFD3E72021006857
:10238000FFF751FFCEE70220704770477047704754
:102390007047704710B5044603681A6912F0020FBF
:1023A00011D0DA6812F0020F0DD06FF002021A613C
:1023B0000123037703689B6913F0030F70D0FFF7C5
:1023C000E6FF0023237723681A6912F0040F12D066
:1023D000DA6812F0040F0ED06FF004021A610223C3
:1023E000237723689B6913F4407F5FD02046FFF773
:1023F000CEFF0023237723681A6912F0080F12D04A
:10240000DA6812F0080F0ED06FF008021A61042388
:1024100023772368DB6913F0030F4ED02046FFF7C4
:10242000B6FF0023237723681A6912F0100F12D029
:10243000DA6812F0100F0ED06FF010021A61082344
:1024400023772368DB6913F4407F3DD02046FFF7F4
:102450009EFF0023237723681A6912F0010F03D02F
:10246000DA6812F0010F36D123681A6912F0800F72
:1024700003D0DA6812F0800F34D123681A6912F0A1
:10248000400F03D0DA6812F0400F32D123681A6986
:1024900012F0200F03D0DA6812F0200F30D110BDF7
:1024A000FFF774FF2046FFF773FF8AE72046FFF728
:1024B0006DFF2046FFF76CFF9BE72046FFF766FFA6
:1024C0002046FFF765FFACE72046FFF75FFF204699
:1024D000FFF75EFFBDE76FF001021A612046FFF7CC
:1024E00054FFC1E76FF080021A61204600F0E2F964
:1024F000C3E76FF040021A612046FFF74AFFC5E7C5
:102500006FF020021A61204600F0D3F9C7E70000FF
:1025100003681B4A90420AD0B0F1804F07D0A2F561
:102520009432904203D002F58062904203D123F0AE
:1025300070034A681343124A90420AD0B0F1804FA8
:1025400007D0A2F59432904203D002F58062904207
:1025500003D123F44073CA68134323F080034A690C
:10256000134303608B68C3620B688362044B984219
:1025700002D00123436170470B690363F9E700BF91
:10258000002C0140A8B110B5044690F83D305BB175
:10259000022384F83D30211D2068FFF7B9FF012395
:1025A00084F83D30002010BD80F83C3007F0A2FEDA
:1025B000EEE701207047A8B110B5044690F83D3011
:1025C0005BB1022384F83D30211D2068FFF7A0FF96
:1025D000012384F83D30002010BD80F83C30FFF727
:1025E0004EFEEEE701207047A8B110B5044690F802
:1025F0003D305BB1022384F83D30211D2068FFF798
:1026000087FF012384F83D30002010BD80F83C3066
:10261000FFF736FEEEE701207047000030B4036A92
:1026200023F010030362036A4468826922F4E642DD
:102630000D6842EA052223F020038D6843EA051362
:102640000E4DA84209D00D4DA8420ED044608261C3
:102650004A688263036230BC704723F08003CD6810
:1026600043EA051323F04003EDE724F440644D6989
:1026700044EA85048D6944EA8504E7E7002C0140BB
:1026800090F83C30012B28D010B50446012380F887
:102690003C30022380F83D300C2A0BD8DFE802F0F2
:1026A000070A0A0A110A0A0A150A0A0A1900006822
:1026B000FFF710FD012384F83D30002084F83C0032
:1026C00010BD0068FFF7AAFFF4E70068FFF730FDD0
:1026D000F0E70068FFF75EFDECE70220704738B5D1
:1026E00090F83C30012B66D00D460446012380F85B
:1026F0003C30022380F83D300C2A1AD8DFE802F083
:1027000007191919201919193419191947000068DE
:10271000FFF7E0FC2268936943F0080393612268A5
:10272000936923F0040393612268936929690B4339
:102730009361012384F83D30002084F83C0038BDCB
:102740000068FFF76BFF2268936943F400639361AD
:102750002268936923F480639361226893692969ED
:1027600043EA01239361E4E70068FFF7E1FC226894
:10277000D36943F00803D3612268D36923F00403CB
:10278000D3612268D36929690B43D361D1E700681B
:10279000FFF700FD2268D36943F40063D361226828
:1027A000D36923F48063D3612268D369296943EA3A
:1027B0000123D361BDE70220C1E710B4012303FA6E
:1027C00001F4036A23EA04030362036A8A401343A1
:1027D000036210BC7047000010B504460122006877
:1027E000FFF7EBFF2368074A934206D0226813687D
:1027F00043F001031360002010BD5A6C42F4004204
:102800005A64F3E7002C014090F83C30012B25D0AE
:10281000012380F83C30CB6823F440738A6813436B
:1028200023F480634A68134323F400630A68134364
:1028300023F480530A69134323F400534A69134372
:1028400023F480438A69134323F40043134302684B
:102850005364002380F83C301846704702207047CC
:1028600090F83C30012B22D030B4012280F83C207B
:10287000022380F83D300468636823F070036360CE
:10288000046863680D682B4363600468A36823F0E1
:102890008003A3600468A36849680B43A36080F8C1
:1028A0003D20002380F83C30184630BC70470220A1
:1028B0007047704770470268D36823F49073D36001
:1028C0000268536923F001035361202380F83A30F2
:1028D000704790F83930DBB2212B2AD18368B3F5E9
:1028E000805F16D0036A5A1C02621A7803685A6025
:1028F000C38C013B9BB2C384EBB90268D36823F05D
:102900008003D3600268D36843F04003D3600020A3
:102910007047036A1B880268C3F3080353600369A6
:102920001BB9036A02330362E2E7036A01330362FD
:10293000DEE7022070470020704700002DE9F843D1
:1029400005460268136923F44053C1680B431361C1
:10295000836802691343426913430168CA6822F419
:10296000B05222F00C021343CB600268536923F487
:10297000407381690B4353610268594B9A4257D0A7
:10298000FFF714FA00EB800000EB80006C68A400F5
:10299000B0FBF4F4534FA7FB043464092601FFF79E
:1029A00005FA00EB800000EB80006C68A400B0FB2F
:1029B000F4F9FFF7FBF900EB800000EB80006C6896
:1029C000A400B0FBF4F4A7FB043464094FF06408DE
:1029D00008FB149424013234A7FB0434640904F086
:1029E000F0043444FFF7E2F900EB800000EB8000D4
:1029F0006E68B600B0FBF6F6FFF7D8F900EB800082
:102A000000EB80006B689B00B0FBF3F0A7FB00308D
:102A1000400908FB10684FEA081808F13208A7FBC4
:102A20000837C7F343172B6827449F60BDE8F88336
:102A3000FFF7CCF900EB800000EB80006C68A4008D
:102A4000B0FBF4F4274FA7FB043464092601FFF719
:102A5000BDF900EB800000EB80006C68A400B0FBC7
:102A6000F4F9FFF7B3F900EB800000EB80006C682D
:102A7000A400B0FBF4F4A7FB043464094FF064082D
:102A800008FB149424013234A7FB0434640904F0D5
:102A9000F0043444FFF79AF900EB800000EB80006B
:102AA0006E68B600B0FBF6F6FFF790F900EB800019
:102AB00000EB80006B689B00B0FBF3F0A7FB0030DD
:102AC000400908FB10684FEA081808F13208A7FB14
:102AD0000837C7F343172B6827449F60A6E700BF5A
:102AE000003801401F85EB512DE9F04105460F46A6
:102AF00016469846069C2B681B6837EA03030CBFF2
:102B000001230023B3421DD1B4F1FF3FF3D02CB118
:102B1000FEF770FBA0EB0800A042ECD92A68D3684E
:102B200023F4D073D3602A68536923F001035361FF
:102B3000202385F8393085F83A30002385F838307D
:102B4000032000E00020BDE8F08158B310B5044632
:102B500090F839300BB3242384F839302268D368D5
:102B600023F40053D3602046FFF7E8FE2268136980
:102B700023F4904313612268536923F02A035361BD
:102B80002268D36843F40053D3600020E06320231D
:102B900084F8393084F83A3010BD80F8383007F0C6
:102BA00011FCD8E7012070472DE9F04182B01E46A4
:102BB00090F83930DBB2202B55D104460D469046B3
:102BC000002955D0002A55D090F83830012B53D029
:102BD000012380F838300023C363212380F8393083
:102BE000FEF708FB0746A4F82480A4F8268010E02E
:102BF00000963B46002280212046FFF775FF002803
:102C00003CD12B882268C3F3080353602369C3B9FE
:102C10000235E38C9BB2B3B1E38C013B9BB2E384FE
:102C2000A368B3F5805FE3D000963B460022802185
:102C30002046FFF759FF18BB2A7823685A600135F0
:102C4000E7E70135E5E700963B46002240212046B4
:102C5000FFF74AFF0346A8B9202284F83920002252
:102C600084F8382000E00223184602B0BDE8F08165
:102C70000123F9E70123F7E70223F5E70323F3E74D
:102C80000323F1E70323EFE7704708B50168CB683A
:102C900023F04003CB60202380F83930FFF7F4FFA6
:102CA000002008BD704708B590F83A30DBB2222BFF
:102CB00045D18368B3F5805F0ED0036903BB036819
:102CC0005A68836A591C81621A70C38D013B9BB29A
:102CD000C385F3B1002033E0826A036943B9036816
:102CE0005B68C3F308031380836A02338362ECE7F3
:102CF00003685B68DBB21380836A01338362E4E7B5
:102D000003685B68826A511C816203F07F03137061
:102D1000DBE70268D36823F02003D3600268D3683E
:102D200023F48073D3600268536923F00103536175
:102D3000202380F83A30FFF7B5FF002000E00220A2
:102D400008BD704710B5044602681368D16852691F
:102D500013F00F0005D113F0200F02D011F0200F57
:102D600053D1002867D012F0010202D111F4907FF4
:102D700061D013F0010F06D011F4807F03D0E06B17
:102D800040F00100E06313F0040F04D01AB1E06BCF
:102D900040F00200E06313F0020F04D01AB1E06BC0
:102DA00040F00400E06313F0080F04D01AB1E26BA6
:102DB00042F00802E263E26B002A48D013F0200FD1
:102DC00002D011F0200F24D123685B6903F0400387
:102DD000E26B12F0080F00D13BB32046FFF76BFD0A
:102DE00023685A6912F0400F1BD05A6922F0400242
:102DF0005A61636B8BB11A4A5A63606BFEF792FAA1
:102E000028B3606B436B984721E02046FFF74BFFE8
:102E10001DE02046FFF747FFD6E72046FFF791FF6A
:102E200015E02046FFF78DFF11E02046FFF789FFF0
:102E30000023E3630BE013F0800F02D011F0800F4A
:102E400006D113F0400F02D011F0400F04D110BD95
:102E50002046FFF73EFDFAE72046FFF716FFF6E7AC
:102E6000652E000808B5406A0023C385C384FFF7B8
:102E700068FF08BDF0B587B01B4B9A6942F00802A5
:102E80009A619A6902F008020092009A9A6942F0E7
:102E900010029A619B6903F010030193019B0823C0
:102EA00002930126039600250495022405940DEB58
:102EB00003010E48FEF784FB4FF480530293039600
:102EC000049505940A4F02A93846FEF779FB4FF4A2
:102ED0000063029303960495059402A93846FEF711
:102EE0006FFB07B0F0BD00BF00100240000C0140B6
:102EF0000010014010B5044610F0010F17D0012258
:102F000008211548FEF74DFC14F0020F15D00122E0
:102F10004FF480511148FEF744FC14F0040F13D114
:102F200000224FF400610D48FEF73BFC10BD00226B
:102F300008210948FEF735FCE6E700224FF48051EE
:102F40000648FEF72EFCE8E701224FF40061034833
:102F5000FEF727FCEAE700BF000C0140001001402B
:102F600000B587B00C4B9A6942F008029A619B69E0
:102F700003F008030193019B4FF460730293012354
:102F8000039302230493059302A90448FEF718FB58
:102F900007B05DF804FB00BF00100240000C0140C8
:102FA00010B5044610F0010F17D0012280211548FA
:102FB000FEF7F7FB14F0020F15D001224FF4007159
:102FC0001048FEF7EEFB14F0040F13D100224FF46B
:102FD00080710C48FEF7E5FB10BD002280210948F6
:102FE000FEF7DFFBE6E700224FF400710548FEF72D
:102FF000D8FBE8E701224FF480710248FEF7D1FBCD
:10300000EAE700BF000C0140F0B587B0234B9A6996
:1030100042F010029A619A6902F010020092009A3E
:103020009A6942F004029A619B6903F004030193D8
:10303000019B1B4D00224FF480412846FEF7B1FB57
:10304000184E00224FF480613046FEF7AAFB4FF481
:10305000804302930124039404940227059702A954
:103060002846FEF7ADFA4FF480630293039404946C
:10307000059702A93046FEF7A3FA4FF400430293E6
:1030800000260396049402A92846FEF799FAFFF752
:10309000F1FE3046FFF72EFF07B0F0BD00100240F2
:1030A000000801400010014070B500260B2500E02B
:1030B000013D002D20DB124C00224FF480412046C0
:1030C000FEF76FFB00BF00BF00BF00BF00BF00BF27
:1030D00001224FF480412046FEF763FB00BF00BF92
:1030E0004FF400412046FEF755FB0028E0D00120B8
:1030F000A8400643B6B2DBE7701E80B270BD00BFC9
:103100000008014038B51F4C01224FF48061204671
:10311000FEF747FB00224FF480612046FEF741FB9B
:1031200001224FF480411848FEF73BFB0024012C9C
:1031300025D8154D00224FF480412846FEF731FB7B
:1031400001224FF480412846FEF72BFB4FF400414B
:103150002846FEF71FFB10B10134E4B2E7E7FFF7A2
:10316000A3FF044600224FF480412846FEF719FBD6
:1031700001224FF480610348FEF713FB00E00024B6
:10318000204638BD001001400008014008B5FFF797
:10319000B1FEFFF7B7FF08BD08B506F0C1FFFFF7A6
:1031A000DFFE08BD08B507F00DF808BD08B5FFF74C
:1031B000F7FE08BDF8B5054614460846FDF70AF9BE
:1031C00002460B4600200D4907F0FEF906460F4661
:1031D0002846FDF721F932463B46FDF775F9FDF724
:1031E00023FCFDF745FFFDF729FDFDF715F9024624
:1031F0000B460349204608F057FFF8BD0000244065
:10320000C8DE00082DE9F043DDF81CE0DDF820C041
:10321000099F314C266876B9304CA52525705A2572
:1032200065708225E5702E4D2D782571002565711C
:10323000A5710625E5714FEA2029C6EBC604650095
:1032400005F10A08254C04F8089005F10B0804F86C
:1032500008004FEA212805F10C0004F8008005F170
:103260000D0021544FEA2228711CC1EBC1067000E9
:1032700004F8008005F10F002254181205F1100225
:10328000A05405F11102A3544FEA2E2205F11203B6
:10329000E25405F1130304F803E04FEA2C2205F190
:1032A0001403E25405F1150304F803C03A1205F1C2
:1032B0001603E25417356755074B1960CAB2C2EBC3
:1032C000C20043000733A370090A21726272054BE2
:1032D00001221A60BDE8F0839003002078070020E7
:1032E00008000020A408002030B4104B1A68C2EB7C
:1032F000C202530003F10A042546002307E00C4AEA
:1033000012681A440B49C85C0B4988540133AB421C
:10331000F5DB0A4B00221A60054A13682344136048
:103320000133074A136030BC704700BF9003002090
:103330002C0A002078070020A0030020340A002077
:10334000500A002010B40D490B680D4AA524D4542E
:1033500001335A24D45401330424D4540133802437
:10336000D45401330324D45401330024D4540133FE
:10337000D05401330B6010BC704700BF2C0A0020F2
:10338000A003002010B40B490B680B4AA524D454A9
:1033900001335A24D45401330324D45401338024F8
:1033A000D45401330224D4540133D05401330B607C
:1033B00010BC70472C0A0020A003002010B40B4959
:1033C0000B680B4AA524D45401335A24D454013336
:1033D0000324D45401338024D45401330124D4541D
:1033E0002344D05423440B6010BC70472C0A0020A7
:1033F000A0030020002305E0074A1A442021117190
:103400000133DBB2054A125C9A42F5D8024A1344F2
:1034100000221A71704700BF08000020F4D900088C
:1034200030B587B015460446062B17D801AA1946B1
:103430002846FFF7BFFE002303E0154A024411713E
:10344000013306AA1A4412F8141C29B11819104A9B
:1034500002441279002AF0D107B030BD01AA194602
:103460002846FFF7A7FE002304E0094A0A4420216A
:103470001171013306AA1A4412F8142C002AEBD059
:103480001919034A0A441279002AEED1E4E700BF71
:1034900008000020F0B400EB400044013334104D2C
:1034A0002B681048A522C25401330F4E32685A27A8
:1034B000C75401330527C75401338227C75401334A
:1034C000270AC7540133C45401330C12C4540133C6
:1034D000C15401332B6008323260F0BC704700BF2A
:1034E000500A0020A00300202C0A002070B4174DC1
:1034F0002B68174AA524D45401335A24D4540233D8
:103500008224D454013300EB40046601114C24782A
:10351000240144EA2624D4540133D65401332B60C9
:1035200000230A480268CD5C094CA55401320260B0
:103530000133C85C0028F4D1D41A043C0333044995
:103540000B55054B1A6070BC704700BF500A002035
:10355000A0030020580A00202C0A002038B5224D74
:103560002D68B5F5167F13D21D461446884210D03B
:103570001E4B53F822301E4A11688B4217D11D4B47
:1035800053F82400FDF756FB2946FDF73FFDA8B18F
:1035900038BD164B53F82230174A91698B42EED052
:1035A000124B43F824102046FFF774FFE7E70F4B58
:1035B00043F824102046FFF76DFFE0E7E0B2FFF785
:1035C00019FF9DF810302A4621460020FFF728FFFA
:1035D0000A492046FFF78AFF2846FDF76FFD054B95
:1035E00043F82400D4E700BF2C0A0020AC080020D8
:1035F0005C0A0020F4050020080000200C000020D8
:1036000010B584B0A3B90F24884213D1104B1B7896
:1036100013F0040F1AD0079B0293069B01930F230C
:103620000093E318002221462320FFF7EBFD0DE075
:103630001E24E9E7079B0293069B01930F23009347
:10364000E318002221462320FFF7DCFD04B010BD63
:10365000600A002008B572B6FDF7A0FF034A13699F
:1036600023F00203136162B608BD00BF00200240D0
:1036700008B572B60A46CB1701460120FDF740FF98
:1036800062B608BD10B50446FDF742FDC82382B2FC
:1036900021460248FFF788FA10BD00BF3C0B00200E
:1036A000074A936943F001039361064B5A6822F07D
:1036B00040725A605A6842F080625A60704700BF98
:1036C00000100240000001400021042900F2EC81BA
:1036D0002DE9F04F9AE101F14803754A52F82300B1
:1036E00040009CE1734A00241470642404FB03F43A
:1036F000714B1C6002E001336E4A13706D4B1B78F6
:103700001D466E4A52F8232000FB02F29442F2D882
:103710006B4B5A5D6B4B9A558BE16B4A00201060E6
:1037200093E16A4800240470272E02D867480124D8
:1037300004705F48D0F82451AB4213D2E81A40001D
:10374000614C20606248406802EB050E4FEA4E0E65
:1037500070450BD25C4C2468A04207D95D48012417
:10376000047006E0584800240460EBE75948002440
:103770000470272D02D85748012404704C48D0F813
:103780002841A34213D2E01A40004F4F38605048FE
:10379000806802EB04084FEA480840450BD24A4FC4
:1037A0003F68B84207D94C480127077006E04648F1
:1037B00000270760EBE7484800270770272C02D84E
:1037C0004548012707703A48D0F82C01834219D2A6
:1037D000C71A7F00DFF8F090C9F800703C4FFF680F
:1037E00002EB00094FEA49094F4511D2DFF8D8A092
:1037F000DAF800A057450BD9384F4FF0010A87F887
:1038000000A00AE0304F4FF00009C7F80090E5E74C
:10381000324F4FF0000A87F800A0272804D82F4F16
:103820004FF0010A87F800A0214FD7F83071BB4252
:1038300019D2A7EB030A4FEA4A0ADFF88CB0CBF89B
:1038400000A0DFF88CA0DAF810A03A44BAEB420FDF
:1038500010D21D4A126892450CD9214A4FF0010A34
:1038600082F800A00BE0DFF860A04FF0000BCAF870
:1038700000B0E6E71A4A4FF0000A82F800A0272FAE
:1038800004D8174A4FF0010A82F800A00F4A1278B4
:1038900052B3104A12783AB30F4A127822B30F4A41
:1038A00012780AB30F4A4FF0010AC2F800A020E0D4
:1038B000802100205D0D0020BC0D0020C4000020F0
:1038C000E8000020AC230020E41A00206A03002056
:1038D000B42300205C030020480300206403002080
:1038E0005A03002034240020704A4FF0000AC2F826
:1038F00000A0272E05D806F10802DFF8B4A1CAF807
:103900000020272D05D805F10802DFF8A4A1CAF888
:103910000420272C05D804F10802DFF894A1CAF886
:103920000820272805D800F10802DFF884A1CAF88A
:103930000C20272F02D808375D4A17615C4A1268AD
:1039400094450CD35A4F7F68BE4508D3584FBF6883
:10395000B84504D3564FFF68B94580F08B80554F6A
:103960004FF0010C87F800C0534F4FF0000C87F860
:1039700000C09E4240F28480F71A7F00DFF83CC10D
:10398000CCF800704D4F3F68BA4204D2282E02D9BD
:10399000494A01261670AB4278D2EA1A5200474EC5
:1039A0003260434A5668454A1268964204D2282D2E
:1039B00002D9414A01251570A3426BD2E21A520086
:1039C0003E4D2A603A4A95683C4A1268954204D2B4
:1039D000282C02D9384A0124147083425ED2C31ABB
:1039E0005B00364A1360324BDA68344B1B689A42EC
:1039F00004D2282802D9304B01221A702E4B1A7893
:103A00002F4B1A700131C9B204294BD82D4B1B78AA
:103A1000002B3FF460AE2C4BD3F8000340000E4661
:103A2000234B53F821308342FFF45CAE274B002236
:103A30005A54274BD3F82061D3F838319E427FF691
:103A40006CAEF21A52001D480260194A1068204AF2
:103A5000D2F8342106EB020C4FEA4C0C6045BFF45F
:103A600060AE164C2468A0427FF65BAE1948012474
:103A7000047059E60F4F4FF0000C87F800C073E751
:103A80000E4F4FF0000CC7F800C07BE70B4A002632
:103A9000166086E7094A0025156093E7074B002268
:103AA0001A60A0E7BDE8F08F704700BF3424002003
:103AB000B423002062030020F40C0020E41A00204C
:103AC000560300202A030020701B0020AC23002096
:103AD000802100206A0300202B4A13680133136001
:103AE000632B02D9134600221A60284B1A78264B02
:103AF0001B689A4229D926490A7822F001020A70E5
:103B0000224A5278934226D221490A7822F00202B0
:103B10000A701E4A9278934223D21D490A7822F0F5
:103B200004020A70194AD278934220D218490A78BE
:103B300022F008020A70154A127993421DD3144AE2
:103B4000137843F010031370704711490A7842F05C
:103B500001020A70D4E70E490A7842F002020A70A4
:103B6000D7E70B490A7842F004020A70DAE70849FD
:103B70000A7842F008020A70DDE7054A137823F05C
:103B800010031370704700BF7C0D0020AC23002091
:103B90001C2100200023054A1370054A1370054AB2
:103BA0001360054B1B784BB1704700BF2803002002
:103BB000580A002090030020240000202DE9F0473F
:103BC00084B00020B54B1860B54B1860B54B186039
:103BD000B54B1860B54B18221A704223B44A1370C3
:103BE000009002460121FFF7B9FCB24B1B784F2B26
:103BF00000F2BC810133AF4A1370AE4B1978AE4A64
:103C000052F82130013342F82130AC4B1B680D2BA8
:103C100000F0B081A54B18221A70A34B1B684BB95A
:103C2000A74B1B78002B40F03382A64B1B780D2B43
:103C300040F24882A44B00221A60A44B1B7813F078
:103C4000040F00F05582A24B4FF478421A60984B53
:103C50001B7800240094224601212046FFF77EFCB9
:103C60009C4B1B780094012211462046FFF776FCFE
:103C7000994B1B780094022201212046FFF76EFC2D
:103C8000964B1878FCF7D6FF954B18609549FDF7D1
:103C9000DDF801250295FCF7BFFBCDE90001032209
:103CA00021462846FFF75AFC8F4B1B78002B40F02B
:103CB00024828E4BD3F82031272B02D808338C4A2C
:103CC00013608A4BD3F82431272B02D80833884A53
:103CD0005360864BD3F82831272B02D80833844A07
:103CE0009360824BD3F82C31272B02D80833804ABB
:103CF000D3607E4BD3F85031272B02D808337C4A4F
:103D000013617B4D2B68002400945B080722214639
:103D10000120FFF723FC6B6800945B08042211214B
:103D20000120FFF71BFCAB6800945B080A221721F7
:103D30000120FFF713FCE8684008FCF77BFF684BA5
:103D400018600294FCF768FBCDE900010E221C21EB
:103D50000120FFF703FC2B6900945B081422222149
:103D60000120FFF7FBFB574B1A78D31EDBB2022B67
:103D700040F2EE810E2A00F000825E4B1868FCF7DC
:103D80005DFF574B18605749FDF760F80124029416
:103D9000FCF742FBCDE90001082211462046FFF75F
:103DA000DDFB554D00240094D5F818330F220E2169
:103DB0000120FFF7D3FBD5F81C3300940C2213210C
:103DC0000120FFF7CBFB4D4B1B6800940D221C21FB
:103DD0000120FFF7C3FB4A4B1B68009411222621E8
:103DE0000120FFF7BBFB474B1B7813F0020F40F09D
:103DF000D981454B1B680094102226210120FFF732
:103E0000ADFB404B1B7813F0010F40F025823E4B79
:103E10001B6800220092062226210120FFF79EFB4C
:103E2000264B1B68002B00F02182244B1B68022BC1
:103E300000F06282214B1B68032B00F02F831F4B85
:103E40001B68042B00F0F3831C4B1B68052B00F050
:103E5000A3841A4B1B68062B00F07885174B1B6850
:103E6000072B00F07186154B1B68082B00F050875C
:103E7000124B1B68092B01F03D80104B1B680A2B6D
:103E800001F02A810D4B1B680B2B01F032820B4B8A
:103E90001B680E2B01F0A48238E000BF340A00201A
:103EA0002C0A0020500A0020A4080020080000204E
:103EB000560C0020CA230020F4050020A82300206F
:103EC000280300200D2400205C0A0020600A002046
:103ED00020000020AE0C002078210020B00D002032
:103EE0009803002000002041A4230020802100200E
:103EF000B4230020980C0020701B00200421002017
:103F00005C0C00205C0D0020CC230020AA4C207803
:103F1000FCF790FE4FF08741FCF7E4FE0546607821
:103F2000FCF78CFE2946FCF7D5FDA44B1860A44B8A
:103F30001B6813B10E2B41F06E82A24B1B68002B45
:103F400041F07382A04B1B789D4A1068834241F078
:103F500070829E4B18789E4B1B78984201F07082BD
:103F60009B4B1870FFF72AFA01F06ABA994B0022AE
:103F70001A7042E6984A994B1B781360984B1B784D
:103F80005360984B1B789360974B1878974B1B782E
:103F900003F00F0141EA00114FF6FF704140D1607C
:103FA000934909781B0943EA011343401361002335
:103FB000904A1360904A13600F2290490A6090491A
:103FC0000A60904A7D2111608F4ABE2111608F4A9C
:103FD000782111608E4A1721116001E00133DBB2B4
:103FE0001D467D4A52F823208A4951F823108A42FF
:103FF00001D1052BF2D9042B3FF60CAE854941F8CF
:10400000252085490A781A4401320A70C3EB03134C
:10401000DA007D327B4B1A6001241DE0774B1B6870
:10402000754A1268734909687748006802907548B4
:10403000006801907248006800902320FFF7E2F8C2
:104040000FE0714A1368724909680B4413606400F9
:10405000B4F5805FBFF6DEAD5F4B53F825301C42F0
:10406000DCD15D4B53F82530002BEAD1634B1B6844
:10407000614A12685F4909684FF4EB7002900020B2
:1040800001905F48006800902320FFF7BBF8D8E755
:10409000624A52F82310624A52F82320614B1B688F
:1040A000614800681044032402944FF4C9740194D9
:1040B00000900B442E20FFF7A5F85C4B4FF47A726A
:1040C0001A60B7E55A4A52F823105A4A52F8232088
:1040D000594B1B68594800681044032402944FF45C
:1040E000C974019400900B442D20FFF78BF8A1E5D3
:1040F000534B4FF4FC621A60A9E5524D0024009422
:10410000D5F8203107220C210120FFF727FA00946F
:10411000D5F8243104221B210120FFF71FFA009457
:10412000D5F828310A2217210120FFF717FA009449
:10413000D5F82C310E221C210120FFF70FFAD5F8FB
:1041400030310094142222210120FFF707FA0AE6F9
:104150003D4B1868FCF772FD184B18603B49FCF7A3
:1041600075FE01240294FCF757F9CDE900010822FD
:1041700011462046FFF7F2F913E6354B1878FCF7A5
:1041800059FD0E4B18603149FCF760FE0124029482
:10419000FCF742F9CDE90001082211462046FFF75D
:1041A000DDF9FEE52B4B1B68092200921022262127
:1041B0000120FFF7D3F924E6380A002098030020F5
:1041C000A8230020A40800209C0300204000002019
:1041D0001C030020CA230020E00500202403002047
:1041E0002503002026030020610D00205C0D002027
:1041F000DB1A002018030020140300203C000020DC
:104200003800002034000020300000202C00002066
:1042100028000020C805002008000020F0DB00086E
:1042200044DB000840DB00083CDB000844000020C1
:1042300010DD0008D4DC0008D0DC0008CCDC00086D
:1042400020000020802100201821002000002041B3
:1042500031240020CC230020844B1B6809220092CB
:10426000062226210120FFF779F9D9E5804B1B684A
:1042700000240094282221460120FFF76FF97D4B8E
:104280001B680094152221460120FFF767F97A4D3B
:1042900000942B68092221460120FFF75FF9774B34
:1042A0001B680094162221460120FFF757F9744B32
:1042B0001B6900945B082B2221460120FFF74EF971
:1042C000704B1B680094292221460120FFF746F914
:1042D0002868FCF7AFFC6C4B18606C49FCF7B6FD26
:1042E00001250295FCF798F8CDE900010B22214643
:1042F0002846FFF733F998E5654D286DFCF79AFCE1
:10430000DFF88481C8F800006049FCF79FFD614C2C
:10431000266801270297FCF77FF8CDE900010B2200
:1043200014213046FFF71AF9002600962B691C224B
:1043300004212068FFF712F9574B1B6800961922D9
:1043400039462068FFF70AF90096AB681A22022165
:104350002068FFF703F90096EB681B220321206811
:10436000FFF7FCF800966B691D2205212068FFF716
:10437000F5F80096AB691E2206212068FFF7EEF8DB
:104380000096EB691F2207212068FFF7E7F8286AEB
:10439000FCF750FCC8F800003C49FCF757FDD4F886
:1043A00000900297FCF738F8CDE90001202208219F
:1043B0004846FFF7D3F800966B6A2122092120684E
:1043C000FFF7CCF80096AB6A22220A212068FFF79B
:1043D000C5F80096EB6A23220B212068FFF7BEF890
:1043E000286BFCF727FCC8F800002849FCF72EFDD5
:1043F000D4F800800297FCF70FF8CDE900012422E1
:104400000C214046FFF7AAF800966B6B25220D2180
:104410002068FFF7A3F80096AB6B26220E212068D8
:10442000FFF79CF80096EB6B27220F212068FFF71F
:1044300095F800962B6C282210212068FFF78EF843
:1044400000966B6C292211212068FFF787F80096EF
:10445000AB6C2A2212212068FFF780F8EB6C2068F1
:1044600000962B221321FFF779F8E3E4CC230020F8
:10447000600C002008240020040E0020A80D00205D
:10448000B4230020F81A00209803002000002041E7
:10449000701B00207421002004210020BA4DD5F8A3
:1044A000A800FCF7C7FBB94F3860B94CD4F80080BE
:1044B00000260296FBF7B0FFCDE900010B22142184
:1044C0004046FFF74BF80096EB6D1922012120685A
:1044D000FFF744F800962B6E1A2202212068FFF79E
:1044E0003DF800966B6E1B2203212068FFF736F81B
:1044F000A86EFCF79FFB3860A649FCF7A7FCD4F830
:10450000008001230293FBF787FFCDE900011C2205
:1045100004214046FFF722F80096EB6E1D2205218C
:104520002068FFF71BF800962B6F1E2206212068DB
:10453000FFF714F800966B6F1F2207212068FFF722
:104540000DF8A86FFCF776FB38609249FCF77EFC0B
:10455000D4F800800296FBF75FFFCDE9000120222E
:1045600008214046FEF7FAFF0096EB6F2122092151
:104570002068FEF7F3FF0096D5F8803022220A214A
:104580002068FEF7EBFF0096D5F8843023220B213C
:104590002068FEF7E3FFD5F88800FCF74BFB386096
:1045A0007C49FCF753FC27680296FBF735FFCDE901
:1045B000000124220C213846FEF7D0FF0096D5F8E2
:1045C0008C3025220D212068FEF7C8FF0096D5F813
:1045D000903026220E212068FEF7C0FF0096D5F805
:1045E000943027220F212068FEF7B8FF0096D5F8F7
:1045F0009830282210212068FEF7B0FF0096D5F8E9
:104600009C30292211212068FEF7A8FF0096D5F8DA
:10461000A0302A2212212068FEF7A0FFD5F8A4308E
:10462000206800962B221321FEF798FF07E4564DD1
:10463000574C4FF4E273019369230093D5F8E430AB
:1046400058220D212068FEF7DBFFD5F8E000FCF7CB
:10465000F1FADFF83891C9F800004E49FCF7F6FB93
:1046600026684FF00108CDF80880FBF7D5FECDE9AC
:1046700000010B220C213046FEF770FF0926009640
:104680000A2305220C212068FEF768FF0096D5F862
:10469000B030182200212068FEF760FF0027009745
:1046A000D5F8B430192241462068FEF757FF00972D
:1046B000D5F8B8301A2202212068FEF74FFF009784
:1046C000D5F8BC301B2203212068FEF747FFD5F840
:1046D000C000FCF7AFFAC9F800002E49FCF7B6FBA2
:1046E000D4F800A00296FBF797FECDE90001202246
:1046F00004215046FEF732FF0097D5F8C43021223E
:1047000005212068FEF72AFF0097D5F8C83022223D
:1047100006212068FEF722FF0097D5F8CC3023222F
:1047200007212068FEF71AFFD5F8D000FCF782FABF
:10473000C9F800001749FCF789FB2768CDF8088005
:10474000FBF76AFECDE90001282208213846FEF772
:1047500005FF0096D5F8D430292231462068FEF7AF
:10476000FDFE0096D5F8D8302A220A212068FEF7EF
:10477000F5FED5F8DC30206800962B220B21FEF7E1
:10478000EDFEFFF761BB00BF701B00209803002007
:104790007421002000002041684DD5F83401FCF759
:1047A00049FA674F38606749FCF750FB664C26684A
:1047B0004FF00108CDF80880FBF72EFECDE900018F
:1047C00005220B213046FEF7C9FED5F83001FCF773
:1047D00031FA38605B49FCF739FB2668CDF8088070
:1047E000FBF71AFECDE900010B220A213046FEF745
:1047F000B5FED5F80801FCF71DFA3860D4F8009032
:1048000000260296FBF708FECDE90001182231468A
:104810004846FEF7A3FE0096D5F80C311922414612
:104820002068FEF79BFE0096D5F810311A2202216F
:104830002068FEF793FE0096D5F814311B22032161
:104840002068FEF78BFED5F82801FCF7F3F93860F5
:10485000D4F800900296FBF7DFFDCDE9000120229D
:1048600028214846FEF77AFE4FF00909CDF800905E
:10487000D5F81C31222230212068FEF76FFECDF8DA
:104880000090D5F8203123222C212068FEF766FE07
:10489000D5F81801FCF7CEF938602A49FCF7D6FAAA
:1048A000D4F800A0CDF80880FBF7B6FDCDE90001F3
:1048B000242204215046FEF751FE0096D5F81C3103
:1048C000252205212068FEF749FE0096D5F8203103
:1048D000262206212068FEF741FE0096D5F82431F5
:1048E000272207212068FEF739FED5F82801FCF7BA
:1048F000A1F9386027680296FBF78EFDCDE900012B
:10490000282208213846FEF729FE4FF4BD73019393
:1049100069260096D5F82831582208212068FEF72C
:104920006FFED5F82C31206840F29F12019200965C
:1049300058224946FEF764FEFFF78BBA701B002031
:104940009803002000002041742100207A4DD5F802
:10495000A001FCF76FF9794F38607949FCF776FAD6
:10496000784C26684FF00108CDF80880FBF754FD1D
:10497000CDE900010B2210213046FEF7EFFDD5F8FE
:104980006001FCF757F938606D49FCF75FFA26685B
:10499000CDF80880FBF740FDCDE900011822002189
:1049A0003046FEF7DBFD00260096D5F8643119226B
:1049B00041462068FEF7D2FD0096D5F868311A22EC
:1049C00002212068FEF7CAFD0096D5F86C311B2243
:1049D00003212068FEF7C2FDD5F87001FCF72AF923
:1049E00038605749FCF732FAD4F80090CDF80880C7
:1049F000FBF712FDCDE900011C2204214846FEF719
:104A0000ADFD0096D5F874311D2205212068FEF712
:104A1000A5FD0096D5F878311E2206212068FEF704
:104A20009DFD0096D5F87C311F2207212068FEF7F6
:104A300095FDD5F88001FCF7FDF838604049FCF79A
:104A400005FAD4F80090CDF80880FBF7E5FCCDE935
:104A50000001202208214846FEF780FD0096D5F887
:104A60008431212209212068FEF778FD0096D5F8CF
:104A7000883122220A212068FEF770FD0096D5F8C1
:104A80008C3123220B212068FEF768FDD5F89001B8
:104A9000FCF7D0F838602A49FCF7D8F927680926CE
:104AA0000296FBF7B9FCCDE9000124222321384608
:104AB000FEF754FD0096D5F8943125222321206875
:104AC000FEF74CFD0096D5F8983126222321206868
:104AD000FEF744FD0096D5F89C312722232120685B
:104AE000FEF73CFD0096D5F89C3128222321206852
:104AF000FEF734FD0096D5F89C3129222321206849
:104B0000FEF72CFD0096D5F89C312A22232120683F
:104B1000FEF724FD0096D5F89C312B222321206836
:104B2000FEF71CFDD5F89C31206800962C2223212D
:104B3000FEF714FDFFF792B9701B002098030020C8
:104B400000002041742100206D4DD5F8E401FCF7F0
:104B500071F8DFF8B881C8F800006A49FCF776F907
:104B6000694C266801270297FBF756FCCDE9000146
:104B70000B2211463046FEF7F1FCD5F8E001FCF7B8
:104B800059F8C8F80000D4F8009000260296FBF708
:104B900043FCCDE9000113220A214846FEF7DEFC62
:104BA00040F2331301934FF06909CDF80090D5F826
:104BB000D831582208212068FEF722FD4FF4BE7339
:104BC0000193CDF80090D5F8DC31582209212068F6
:104BD000FEF716FDD5F8B801FCF72CF8C8F8000070
:104BE0004849FCF733F9D4F800900297FBF714FC1E
:104BF000CDE90001182231464846FEF7AFFC009689
:104C0000D5F8BC31192239462068FEF7A7FC00967A
:104C1000D5F8C0311A2202212068FEF79FFC0096C9
:104C2000D5F8C4311B2203212068FEF797FCD5F884
:104C3000C801FBF7FFFFC8F800003249FCF706F98E
:104C4000D4F800800297FBF7E7FBCDE900011C22B6
:104C500004214046FEF782FC0096D5F8CC311D2297
:104C600005212068FEF77AFC0096D5F8D0311E2287
:104C700006212068FEF772FC0096D5F8D4311F2279
:104C800007212068FEF76AFC09260096D5F8D43182
:104C9000202225212068FEF761FC0096D5F8D4314A
:104CA00021222F212068FEF759FC0096D5F8D43137
:104CB00022222F212068FEF751FC0096D5F8D4312E
:104CC00023222F212068FEF749FC0096D5F8D43125
:104CD00024222F212068FEF741FC0096D5F8D4311C
:104CE00026222F212068FEF739FCD5F8D431206820
:104CF000009627222F21FEF731FCFFF7B4B800BF42
:104D0000701B002000002041742100209803002027
:104D1000744DD5F85072DFF8D8813846FBF78AFF1A
:104D2000C8F80000704C4FF49A73019369260096FE
:104D30003B46582210212068FEF762FC4FF4BE73F8
:104D400001930096D5F85432582211212068FEF7BD
:104D500057FCD5F81002FBF76DFFC8F80000634957
:104D6000FCF774F8266801270297FBF755FBCDE99D
:104D70000001182200213046FEF7F0FB00260096C5
:104D8000D5F81432192239462068FEF7E7FB009661
:104D9000D5F818321A2202212068FEF7DFFB0096B0
:104DA000D5F81C321B2203212068FEF7D7FBD5F86B
:104DB0002002FBF73FFFC8F800004C49FCF746F81B
:104DC000D4F800900297FBF727FBCDE900011C22E5
:104DD00004214846FEF7C2FB0096D5F824321D2276
:104DE00005212068FEF7BAFB0096D5F828321E226E
:104DF00006212068FEF7B2FB0096D5F82C321F2260
:104E000007212068FEF7AAFBD5F83002FBF712FF56
:104E1000C8F800003549FCF719F8D4F8009002975B
:104E2000FBF7FAFACDE90001202208214846FEF7F7
:104E300095FB2E49D8F80000FCF708F8D4F800904C
:104E40000297FBF7E9FACDE900010B220821484659
:104E5000FEF784FB0096D5F8343221220921206820
:104E6000FEF77CFB0096D5F8383222220A21206812
:104E7000FEF774FB0096D5F83C3223220B21206804
:104E8000FEF76CFBD5F84002FBF7D4FEC8F8000033
:104E90001649FBF7DBFFD4F800800297FBF7BCFA5A
:104EA000CDE9000124220C214046FEF757FB009675
:104EB000D5F8443225220D212068FEF74FFB0096DD
:104EC000D5F8483226220E212068FEF747FBD5F898
:104ED0004C322068009627220F21FEF73FFBFEF799
:104EE000C7BF00BF701B00207421002000002041BC
:104EF00098030020744CD4F8A802FBF79BFE734F74
:104F00003860734D2E684FF00909CDF80890FBF713
:104F100083FACDE900010B222E213046FEF71EFB5D
:104F2000D4F8AC02FBF786FE38604FF4BE730193F1
:104F300069260096D4F8A832582210212868FEF776
:104F40005FFB4FF49A7301930096D4F8AC32582269
:104F500011212868FEF754FBD4F86802FBF76AFEBB
:104F600038605C49FBF772FF2E684FF00108CDF8FE
:104F70000880FBF751FACDE90001182200213046E4
:104F8000FEF7ECFA00260096D4F86C32192241465E
:104F90002868FEF7E3FA0096D4F870321A2202214C
:104FA0002868FEF7DBFA0096D4F874321B2203213E
:104FB0002868FEF7D3FAD4F87802FBF73BFE386096
:104FC0004449FBF743FFD5F800A0CDF80880FBF774
:104FD00023FACDE900011C2204215046FEF7BEFA57
:104FE0000096D4F87C321D2205212868FEF7B6FA17
:104FF0000096D4F880321E2206212868FEF7AEFA09
:105000000096D4F884321F2207212868FEF7A6FAFA
:10501000D4F88802FBF70EFE38602E49FBF716FF26
:10502000D5F800A0CDF80880FBF7F6F9CDE900012E
:10503000202208215046FEF791FA0096D4F88C32CF
:10504000212249462868FEF789FA0096D4F8903262
:1050500022220A212868FEF781FA0096D4F89432B9
:1050600023220B212868FEF779FAD4F89802FBF77F
:10507000E1FD38601749FBF7E9FE2F68CDF808809D
:10508000FBF7CAF9CDE9000124220C213846FEF7CE
:1050900065FA0096D4F89C3225220D212868FEF787
:1050A0005DFA0096D4F8A03226220E212868FEF779
:1050B00055FAD4F8A4322868009627220F21FEF76B
:1050C0004DFAFEF7DABE00BF701B002098030020E7
:1050D0007421002000002041BE4ED6F81003FBF7DB
:1050E000A9FDBD4F3860BD4DD5F800800024029465
:1050F000FBF792F9CDE900010B2211214046FEF7A2
:105100002DFAD6F81403FBF795FD3860D5F800802A
:105110000294FBF781F9CDE90001052212214046F6
:10512000FEF71CFAD6F8C002FBF784FD3860D5F80C
:1051300000800294FBF770F9CDE900012C22214692
:105140004046FEF70BFA0094D6F8C4322D22012116
:105150002868FEF703FA0094D6F8C8322E220221FE
:105160002868FEF7FBF90094D6F8CC322F220321F1
:105170002868FEF7F3F9D6F8D002FBF75BFD38603C
:10518000D5F800800294FBF747F9CDE90001302201
:1051900004214046FEF7E2F9D6F8E002FBF74AFDAB
:1051A0003860D5F800800294FBF736F9CDE90001AC
:1051B000312208214046FEF7D1F9D5F8008002944B
:1051C0003868FBF729F9CDE9000132220821404671
:1051D000FEF7C4F9D5F8008002943868FBF71CF993
:1051E000CDE90001332208214046FEF7B7F90094CB
:1051F000D6F8E032342208212868FEF7AFF9D5F856
:10520000008002943868FBF707F9CDE900013522E8
:1052100008214046FEF7A2F90094D6F8F032362273
:105220000C212868FEF79AF90094D6F8F03237225C
:105230000C212868FEF792F9D6F8F002FBF7FAFC89
:105240003860D5F800800294FBF7E6F8CDE900015C
:1052500038220C214046FEF781F9D5F800800294EF
:105260003868FBF7D9F8CDE9000139220C21404616
:10527000FEF774F9D5F8008002943868FBF7CCF893
:10528000CDE900013A220C214046FEF767F9D6F835
:105290000003FBF7CFFC38602F680294FBF7BCF8E3
:1052A000CDE900013B2210213846FEF757F9009462
:1052B000D6F800333C2210212868FEF74FF90094FD
:1052C000D6F800333D2210212868FEF747F90094F4
:1052D000D6F800333E2210212868FEF73FF9D6F8B1
:1052E0000033286800943F221021FEF737F9FEF7BB
:1052F000C9BD384C394D00260096D4F818330B221E
:1053000031462868FEF72AF90096D4F81C330522A6
:1053100001212868FEF722F90096D4F820331922DB
:1053200002212868FEF71AF90096D4F824331D22CA
:1053300003212868FEF712F90096D4F828332122B9
:1053400004212868FEF70AF94FF00908CDF800801B
:10535000D4F8283325222C212868FEF7FFF84FF4D3
:105360009A73019369270097D4F82C3358220521AA
:105370002868FEF745F94FF4AC7301930097D4F811
:105380003033582206212868FEF73AF94FF4BE73ED
:1053900001930097D4F83433582207212868FEF788
:1053A0002FF90096D4F83833252208212868FEF713
:1053B000D5F828680096D4F83C3329224146FEF7F8
:1053C000CDF8D4F8F002FBF735FC034B1860FEF77C
:1053D0005EBD00BF701B00209803002074210020D8
:1053E000434E444D4FF49A73019369240094D6F8C8
:1053F0002034582200212868FEF702F9D6F8243418
:1054000028684FF4A1720192009458220121FEF7FE
:10541000F7F8FEF77BBD384B1B6800210091152281
:105420000120FEF79BF8FEF788BDFDF75DFFFEF754
:1054300089BDC0B2FDF786FF304B1A68304B1A7039
:10544000304B1868D8B9304B1B683F2B1ED82F4AF9
:1054500013702F4B1B78A52B1CD02E4B00221A70DB
:105460002C4B1B781BB92C4A1370294A137001234B
:105470002A4A53602A4A137004B0BDE8F087C0B2CC
:10548000FDF780FF1F4B00221A60DCE71F4B402214
:105490001A70DEE71E4B5B785A2BDED11C4B9B78D3
:1054A000072BDAD11A4BDB78812BD6D1184B1B791D
:1054B000072BD2D1164B5B79042BCED1194B1B781D
:1054C0000A2BCAD1134B01221A70114B00221A70F9
:1054D0009979FF29C4D0DA7902EB012212490A60D6
:1054E0001A7A5B7A43EA0223104A1360B8E700BFD6
:1054F000701B002074210020A80D0020A82300208C
:105500009C030020C80D0020440000204000002023
:10551000380A0020300A0020250000200044004006
:105520002400002094030020540A0020A808002032
:1055300070470020704700002DE9F04F00200AE07E
:1055400000EB4002D100064A0A440021D154013345
:10555000172BF5DD0130832804DC0023F8E700BFBA
:10556000780E0020D94BC8221A60D94B1A60D94B4B
:105570001A60D94B1A60D94B1A600021D84B1960B8
:10558000D84B1960D84B1960D84B40F24C521A6076
:10559000D74B40F26F621A60D64B40F256421A6007
:1055A000D54B19600124D54B1C60D54B4FF4E172EB
:1055B0001A604FF49670D34B1860D34BC8221A6010
:1055C000D24B1960596050229A604FF03C08C3F8E2
:1055D0000C801961586128269E612922DA61C3F87E
:1055E000208064225A621E259D621F22DA6219639E
:1055F00059639E63DD6319645A229A64DA64412216
:105600005A64C34A41F65E7CC2F81CC04FF00A0ED1
:10561000C2F820E019659965D9651D66C3F86480F4
:105620009966D9661E675E6799674FF04609C3F8A9
:105630007C904FF0320CC3F880C0C3F884C0C3F82C
:105640008810C3F88C00C3F89060C3F89480C3F846
:1056500098104FF4C870C3F89C00C3F8A0504FF0E6
:10566000190AC3F8A4A0C3F8A81050205062C2F8C9
:1056700028A0C820D0621563C2F834904FF4FA70A5
:1056800090632320D063142010644FF42F77576465
:10569000C3F8B010C3F8B4E0C3F8B860C3F8BCA056
:1056A000C3F8C010C827C3F8C470C3F8C860C3F8F3
:1056B000CCA0C3F8D0E0C3F8D410C3F8D810C3F816
:1056C000DC10C3F8E010C3F8E41015279764D76422
:1056D000C2F850C04FF0160AC2F854A0C2F858A041
:1056E0004FF4487AC2F85CA010664FF0050AC2F881
:1056F00064A091664FF4167BC3F808B14FF08D0B90
:10570000C3F80CB14FF0630BC3F810B1C3F814B178
:10571000C3F818414FF08E0BC3F81CB1C3F82051E9
:10572000C3F82451C3F82811C3F82C41C3F8301131
:10573000C3F834114FF0170BC2F86CB0C2F870B058
:10574000C2F874804FF0180BC2F878B0C2F87CB081
:10575000C2F880B0C2F884C0C2F888A0C2F88C40F9
:10576000C3F86001C3F864C1C3F86891C3F86C91D1
:10577000C3F87001C3F87461C3F87881C3F87C8101
:10578000C3F88051C3F88411C3F88811C3F88C1191
:10579000C3F89011C3F89411C3F89811C3F89C1181
:1057A000C3F8A01140F6D63BC2F890B0C2F89450AE
:1057B000C827C2F8987040F6DD1BC2F89CB0C2F84A
:1057C000A00040F2E47BC2F8A4B0C2F8A800C2F87E
:1057D000ACE0C2F8B000C3F8B801C3F8BC11C3F81C
:1057E000C0511F27C3F8C471C3F8C801C3F8CC1156
:1057F000C3F8D0011527C3F8D471C3F8D811C3F882
:10580000DC11C3F8E0E10327C3F8E4714FF00F0B9C
:10581000C2F8B4B0C2F8B8B0C2F8BCA04FF0100BD8
:10582000C2F8C0B0C2F8C4B0C2F8C8004FF0020B52
:10583000C2F8CCB0C2F8D0B0C2F8D440C3F810025D
:10584000C3F81412C3F818622927C3F81C72C3F8EE
:105850002002C3F82412C3F828521F27C3F82C7261
:105860000327C3F83072C3F83412C3F83812C3F8F0
:105870003C12C3F84012C3F84412C3F84812C3F8EC
:105880004C12C3F85012C3F854121127C2F8D87042
:10589000C2F8DC70C2F8E0B04FF0120BC2F8E4B00E
:1058A000C2F8E8B0C2F8EC00C2F8F0A0C2F8F440C8
:1058B000C2F8F840C3F86802C3F86C12C3F870521B
:1058C0001F27C3F87472C3F8780223E01024002065
:1058D000D82300206C0D00204C0C00200024002058
:1058E00008240020F81A0020640C00207C210020ED
:1058F000201B0020B80D002004240020C00D002033
:10590000500000205800002054000020701B002090
:1059100080210020C3F87C12C3F880622927C3F8D5
:105920008472C3F88812C3F88C12C3F890824FF0C7
:105930003D08C3F89482C3F89812C3F89C12C3F8C8
:10594000A0C24FF03308C3F8A482C3F8A812C3F86A
:10595000AC124FF01308C2F8FC80C2F80081C2F804
:1059600004E1C2F808E1C2F80CE14FF00B0EC2F8F6
:1059700010E1C2F814E1C2F818A1C2F81C414FF0BE
:10598000D20EC3F8C0E24FF0D70EC3F8C4E24FF016
:10599000CD0EC3F8C8E24FF0C30EC3F8CCE2C3F893
:1059A000D092C3F8D492C3F8D862C3F8DC12C3F81B
:1059B000E092C3F8E412C3F8E812C3F8EC12C3F89B
:1059C000F062C3F8F412C3F8F812C3F8FC126426AC
:1059D000C3F80063C3F80413C3F80813C3F80C1327
:1059E000C3F810139626C2F82061C2F82461C2F8E9
:1059F0002861C2F82C61C2F830615026C2F83461C7
:105A0000C2F83861C2F83C516425C2F84051C3F86D
:105A100018C3C3F81C03C3F820134FF4FA65C3F886
:105A200024534FF47A75C3F82853C3F82C43C3F8B2
:105A30003043C3F83443C2F844C1C826C2F84861B1
:105A4000C2F84C01C2F8505147F23050C2F854012C
:105A50004FF4FA70C2F8580141F27070C2F85C015C
:105A6000C2F86011C2F86441C3F87013C3F87443FC
:105A7000C3F87813C3F87C13C3F88013C3F88813F2
:105A80004FF4FA72C3F88C234FF42F72C3F88423B7
:105A9000BDE8F08F10B4A84B9A686421D86801FB68
:105AA0000200A64A10609869DC6901FB0040506062
:105AB00058699060586AD060986A1061986CDC6C84
:105AC00001FB00405061586C90614FF48B60D061D5
:105AD000D3F880005062D3F884009062D86FD0620F
