:020000040800F2
:1000000000500020499D0008B19C0008B39C0008E6
:10001000B59C0008B79C0008B99C000800000000CF
:10002000000000000000000000000000BB9C000871
:10003000BD9C000800000000BF9C0008C19C000897
:10004000919D0008919D0008919D0008919D0008D8
:10005000919D0008919D0008919D0008919D0008C8
:10006000919D0008919D0008919D0008919D0008B8
:10007000919D0008919D0008919D0008919D0008A8
:10008000919D0008919D0008919D0008919D000898
:10009000919D0008919D0008919D0008919D000888
:1000A000919D0008DD7F0008919D0008CD9C00080F
:1000B000DD9C0008919D0008919D0008919D00081D
:1000C000919D0008919D0008919D0008919D000858
:1000D000919D0008597B000895710008ED9C00086F
:1000E000919D0008919D0008919D0008000000006E
:1000F0000000000000000000000000000000000000
:0C01000000000000000000005FF808F1A3
:1001100010B5054C237833B9044B13B10448AFF341
:1001200000800123237010BDF802002000000000B1
:1001300068B9000808B5034B1BB103490348AFF386
:10014000008008BD00000000FC02002068B9000823
:1001500081F0004102E000BF83F0004330B54FEA78
:1001600041044FEA430594EA050F08BF90EA020FE5
:100170001FBF54EA000C55EA020C7FEA645C7FEA78
:10018000655C00F0E2804FEA5454D4EB5555B8BF9B
:100190006D420CDD2C4480EA020281EA030382EA0C
:1001A000000083EA010180EA020281EA0303362D9E
:1001B00088BF30BD11F0004F4FEA01314FF4801C71
:1001C0004CEA113102D0404261EB410113F0004F83
:1001D0004FEA03334CEA133302D0524263EB43033A
:1001E00094EA050F00F0A780A4F10104D5F1200ED8
:1001F0000DDB02FA0EFC22FA05F2801841F1000133
:1002000003FA0EF2801843FA05F359410EE0A5F106
:1002100020050EF1200E012A03FA0EFC28BF4CF037
:10022000020C43FA05F3C01851EBE37101F00045ED
:1002300007D54FF0000EDCF1000C7EEB00006EEBFA
:100240000101B1F5801F1BD3B1F5001F0CD3490884
:100250005FEA30004FEA3C0C04F101044FEA4452DB
:1002600012F5800F80F09A80BCF1004F08BF5FEA62
:10027000500C50F1000041EB045141EA050130BD42
:100280005FEA4C0C404141EB010111F4801FA4F1E5
:100290000104E9D191F0000F04BF01460020B1FA3A
:1002A00081F308BF2033A3F10B03B3F120020CDA72
:1002B0000C3208DD02F1140CC2F10C0201FA0CF050
:1002C00021FA02F10CE002F11402D8BFC2F1200CB5
:1002D00001FA02F120FA0CFCDCBF41EA0C0190406B
:1002E000E41AA2BF01EB0451294330BD6FEA0404B4
:1002F0001F3C1CDA0C340EDC04F11404C4F120029F
:1003000020FA04F001FA02F340EA030021FA04F3B0
:1003100045EA030130BDC4F10C04C4F1200220FA07
:1003200002F001FA04F340EA0300294630BD21FA45
:1003300004F0294630BD94F0000F83F4801306BF0B
:1003400081F480110134013D4EE77FEA645C18BFFF
:100350007FEA655C29D094EA050F08BF90EA020F96
:1003600005D054EA000C04BF1946104630BD91EA8E
:10037000030F1EBF0021002030BD5FEA545C05D191
:100380004000494128BF41F0004130BD14F58004D0
:100390003CBF01F5801130BD01F0004545F0FE4144
:1003A00041F470014FF0000030BD7FEA645C1ABF79
:1003B000194610467FEA655C1CBF0B46024650EAB0
:1003C000013406BF52EA033591EA030F41F40021DC
:1003D00030BD00BF90F0000F04BF0021704730B562
:1003E0004FF4806404F132044FF000054FF0000137
:1003F00050E700BF90F0000F04BF0021704730B5F8
:100400004FF4806404F1320410F0004548BF4042CC
:100410004FF000013EE700BF42004FEAE2014FEA21
:1004200031014FEA02701FBF12F07F4393F07F4FFC
:1004300081F06051704732F07F4208BF704793F0FF
:100440007F4F04BF41F40021704730B54FF4607412
:1004500001F0004521F000411CE700BF50EA010215
:1004600008BF704730B54FF000050AE050EA0102BE
:1004700008BF704730B511F0004502D5404261EB2E
:1004800041014FF4806404F132045FEA915C3FF46F
:10049000D8AE4FF003025FEADC0C18BF03325FEA0C
:1004A000DC0C18BF033202EBDC02C2F1200300FABD
:1004B00003FC20FA02F001FA03FE40EA0E0021FAE2
:1004C00002F11444BDE600BF70B54FF0FF0C4CF4D0
:1004D000E06C1CEA11541DBF1CEA135594EA0C0F82
:1004E00095EA0C0F00F0DEF82C4481EA030621EABD
:1004F0004C5123EA4C5350EA013518BF52EA0335F8
:1005000041F4801143F4801338D0A0FB02CE4FF0A9
:100510000005E1FB02E506F00042E0FB03E54FF0D9
:100520000006E1FB03569CF0000F18BF4EF0010ED1
:10053000A4F1FF04B6F5007F64F5407404D25FEACD
:100540004E0E6D4146EB060642EAC62141EA555180
:100550004FEAC52040EA5E504FEACE2EB4F1FD0CC2
:1005600088BFBCF5E06F1ED8BEF1004F08BF5FEA40
:10057000500E50F1000041EB045170BD06F00046F2
:1005800046EA010140EA020081EA0301B4EB5C049F
:10059000C2BFD4EB0C0541EA045170BD41F4801197
:1005A0004FF0000E013C00F3AB8014F1360FDEBFBC
:1005B000002001F0004170BDC4F10004203C35DA98
:1005C0000C341BDC04F11404C4F1200500FA05F31B
:1005D00020FA04F001FA05F240EA020001F00042BC
:1005E00021F0004110EBD37021FA04F642EB060132
:1005F0005EEA430E08BF20EAD37070BDC4F10C045C
:10060000C4F1200500FA04F320FA05F001FA04F21F
:1006100040EA020001F0004110EBD37041F100010B
:100620005EEA430E08BF20EAD37070BDC4F1200516
:1006300000FA05F24EEA020E20FA04F301FA05F27E
:1006400043EA020321FA04F001F0004121FA04F226
:1006500020EA020000EBD3705EEA430E08BF20EAF6
:10066000D37070BD94F0000F0FD101F00046400030
:1006700041EB010111F4801F08BF013CF7D041EAB2
:10068000060195F0000F18BF704703F000465200B6
:1006900043EB030313F4801F08BF013DF7D043EA87
:1006A0000603704794EA0C0F0CEA135518BF95EA3D
:1006B0000C0F0CD050EA410618BF52EA4306D1D1C4
:1006C00081EA030101F000414FF0000070BD50EAE3
:1006D000410606BF1046194652EA430619D094EA6D
:1006E0000C0F02D150EA013613D195EA0C0F05D157
:1006F00052EA03361CBF104619460AD181EA0301AB
:1007000001F0004141F0FE4141F470014FF0000062
:1007100070BD41F0FE4141F4780170BD70B54FF0FD
:10072000FF0C4CF4E06C1CEA11541DBF1CEA13557D
:1007300094EA0C0F95EA0C0F00F0A7F8A4EB05045F
:1007400081EA030E52EA03354FEA013100F0888056
:100750004FEA03334FF0805545EA131343EA12631F
:100760004FEA022245EA111545EA10654FEA0026D4
:100770000EF000419D4208BF964244F1FD0404F58D
:10078000407402D25B084FEA3202B61A65EB0305E9
:100790005B084FEA32024FF480104FF4002CB6EBA6
:1007A000020E75EB030E22BFB61A754640EA0C0026
:1007B0005B084FEA3202B6EB020E75EB030E22BF66
:1007C000B61A754640EA5C005B084FEA3202B6EBA7
:1007D000020E75EB030E22BFB61A754640EA9C0066
:1007E0005B084FEA3202B6EB020E75EB030E22BF36
:1007F000B61A754640EADC0055EA060E18D04FEAF4
:10080000051545EA16754FEA06164FEAC30343EA93
:1008100052734FEAC2025FEA1C1CC0D111F4801F60
:100820000BD141EA00014FF000004FF0004CB6E759
:1008300011F4801F04BF01430020B4F1FD0C88BFF8
:10084000BCF5E06F3FF6AFAEB5EB030C04BFB6EB03
:10085000020C5FEA500C50F1000041EB045170BDF6
:100860000EF0004E4EEA113114EB5C04C2BFD4EB23
:100870000C0541EA045170BD41F480114FF0000EA7
:10088000013C90E645EA060E8DE60CEA135594EA23
:100890000C0F08BF95EA0C0F3FF43BAF94EA0C0F26
:1008A0000AD150EA01347FF434AF95EA0C0F7FF49B
:1008B00025AF104619462CE795EA0C0F06D152EAEF
:1008C00003353FF4FDAE1046194622E750EA4106D3
:1008D00018BF52EA43067FF4C5AE50EA41047FF4E4
:1008E0000DAF52EA43057FF4EBAE12E74FF0FF3C49
:1008F00006E000BF4FF0010C02E000BF4FF0010C1A
:100900004DF804CD4FEA410C7FEA6C5C4FEA430C92
:1009100018BF7FEA6C5C1BD001B050EA410C0CBFE1
:1009200052EA430C91EA030F02BF90EA020F002043
:10093000704710F1000F91EA030F58BF994208BFAA
:1009400090422CBFD8176FEAE37040F00100704767
:100950004FEA410C7FEA6C5C02D150EA013C07D1BE
:100960004FEA430C7FEA6C5CD6D152EA033CD3D009
:100970005DF8040B704700BF8446104662468C4603
:100980001946634600E000BF01B5FFF7B7FF002836
:1009900048BF10F1000F01BD4DF808EDFFF7F4FF5F
:1009A0000CBF012000205DF808FB00BF4DF808EDEA
:1009B000FFF7EAFF34BF012000205DF808FB00BF0D
:1009C0004DF808EDFFF7E0FF94BF012000205DF82F
:1009D00008FB00BF4DF808EDFFF7CEFF94BF0120E4
:1009E00000205DF808FB00BF4DF808EDFFF7C4FFDD
:1009F00034BF012000205DF808FB00BF4FEA410C26
:100A00007FEA6C5C02D150EA013C0AD14FEA430C08
:100A10007FEA6C5C02D152EA033C02D14FF0000045
:100A200070474FF0010070474FEA4102B2F1E043D6
:100A300024BFB3F5001CDCF1FE5C0DD901F0004CC5
:100A40004FEAC0024CEA5070B2F1004F40EB830015
:100A500008BF20F00100704711F0804F21D113F141
:100A60003872BCBF01F00040704741F480114FEA7A
:100A70005252C2F11802C2F1200C10FA0CF320FA03
:100A800002F018BF40F001004FEAC1234FEAD32320
:100A900003FA0CFC40EA0C0023FA02F34FEA43038A
:100AA000CCE77FEA625307D150EA01331EBF4FF013
:100AB000FE4040F44000704701F0004040F0FE402E
:100AC00040F40000704700BF80F0004002E000BF2B
:100AD00081F0004142001FBF5FEA410392EA030F29
:100AE0007FEA226C7FEA236C6AD04FEA1262D2EB73
:100AF0001363C1BFD218414048404140B8BF5B4278
:100B0000192B88BF704710F0004F40F4000020F010
:100B10007F4018BF404211F0004F41F4000121F026
:100B20007F4118BF494292EA030F3FD0A2F1010270
:100B300041FA03FC10EB0C00C3F1200301FA03F1AE
:100B400000F0004302D5494260EB4000B0F5000FD1
:100B500013D3B0F1807F06D340084FEA310102F190
:100B60000102FE2A51D2B1F1004F40EBC25008BF42
:100B700020F0010040EA03007047490040EB00000C
:100B800010F4000FA2F10102EDD1B0FA80FCACF13B
:100B9000080CB2EB0C0200FA0CF0AABF00EBC2503A
:100BA00052421843BCBFD0401843704792F0000F28
:100BB00081F4000106BF80F400000132013BB5E77B
:100BC0004FEA41037FEA226C18BF7FEA236C21D0F1
:100BD00092EA030F04D092F0000F08BF0846704756
:100BE00090EA010F1CBF0020704712F07F4F04D124
:100BF000400028BF40F00040704712F100723CBF37
:100C000000F50000704700F0004343F0FE4040F460
:100C1000000070477FEA226216BF08467FEA23631E
:100C20000146420206BF5FEA412390EA010F40F409
:100C3000800070474FF0000304E000BF10F0004355
:100C400048BF40425FEA000C08BF704743F096433C
:100C500001464FF000001CE050EA010208BF704757
:100C60004FF000030AE000BF50EA010208BF7047DE
:100C700011F0004302D5404261EB41015FEA010CF3
:100C800002BF84460146002043F0B64308BFA3F1EB
:100C90008053A3F50003BCFA8CF2083AA3EBC253CD
:100CA00010DB01FA02FC634400FA02FCC2F12002EC
:100CB000BCF1004F20FA02F243EB020008BF20F023
:100CC0000100704702F1200201FA02FCC2F1200289
:100CD00050EA4C0021FA02F243EB020008BF20EA7E
:100CE000DC7070474FF0FF0C1CEAD0521EBF1CEAAC
:100CF000D15392EA0C0F93EA0C0F6FD01A4480EA9A
:100D0000010C400218BF5FEA41211ED04FF0006382
:100D100043EA501043EA5111A0FB01310CF00040AE
:100D2000B1F5000F3EBF490041EAD3715B0040EAD4
:100D3000010062F17F02FD2A1DD8B3F1004F40EBA4
:100D4000C25008BF20F00100704790F0000F0CF077
:100D5000004C08BF49024CEA502040EA51207F3A3B
:100D6000C2BFD2F1FF0340EAC250704740F4000016
:100D70004FF00003013A5DDC12F1190FDCBF00F007
:100D800000407047C2F10002410021FA02F1C2F1B5
:100D9000200200FA02FC5FEA310040F1000053EA51
:100DA0004C0308BF20EADC70704792F0000F00F09F
:100DB000004C02BF400010F4000F013AF9D040EAA5
:100DC0000C0093F0000F01F0004C02BF490011F439
:100DD000000F013BF9D041EA0C018FE70CEAD15337
:100DE00092EA0C0F18BF93EA0C0F0AD030F0004CB7
:100DF00018BF31F0004CD8D180EA010000F000406B
:100E0000704790F0000F17BF90F0004F084691F028
:100E1000000F91F0004F14D092EA0C0F01D1420262
:100E20000FD193EA0C0F03D14B0218BF084608D12B
:100E300080EA010000F0004040F0FE4040F4000075
:100E4000704740F0FE4040F4400070474FF0FF0C08
:100E50001CEAD0521EBF1CEAD15392EA0C0F93EA4F
:100E60000C0F69D0A2EB030280EA010C49024FEAA1
:100E7000402037D04FF0805343EA111143EA10135A
:100E80000CF000408B4238BF5B0042F17D024FF412
:100E9000000C8B4224BF5B1A40EA0C00B3EB510FED
:100EA00024BFA3EB510340EA5C00B3EB910F24BFD6
:100EB000A3EB910340EA9C00B3EBD10F24BFA3EB5B
:100EC000D10340EADC001B0118BF5FEA1C1CE0D123
:100ED000FD2A3FF650AF8B4240EBC25008BF20F0D6
:100EE000010070470CF0004C4CEA50207F32C2BF2A
:100EF000D2F1FF0340EAC250704740F400004FF0C7
:100F00000003013A37E792F0000F00F0004C02BFF7
:100F1000400010F4000F013AF9D040EA0C0093F0C1
:100F2000000F01F0004C02BF490011F4000F013B1B
:100F3000F9D041EA0C0195E70CEAD15392EA0C0F83
:100F400008D142027FF47DAF93EA0C0F7FF470AFBB
:100F5000084676E793EA0C0F04D14B023FF44CAFFE
:100F600008466EE730F0004C18BF31F0004CCAD193
:100F700030F000427FF45CAF31F000437FF43CAFCF
:100F80005FE700BF4FF0FF3C06E000BF4FF0010CF1
:100F900002E000BF4FF0010C4DF804CD4FEA4002D3
:100FA0004FEA41037FEA226C18BF7FEA236C11D01D
:100FB00001B052EA530C18BF90EA010F58BFB2EBD0
:100FC000030088BFC81738BF6FEAE17018BF40F050
:100FD000010070477FEA226C02D15FEA402C05D104
:100FE0007FEA236CE4D15FEA412CE1D05DF8040B89
:100FF000704700BF844608466146FFE70FB5FFF71C
:10100000C9FF002848BF10F1000F0FBD4DF808EDD3
:10101000FFF7F4FF0CBF012000205DF808FB00BFC4
:101020004DF808EDFFF7EAFF34BF012000205DF81E
:1010300008FB00BF4DF808EDFFF7E0FF94BF01206B
:1010400000205DF808FB00BF4DF808EDFFF7D2FF68
:1010500094BF012000205DF808FB00BF4DF808EDAB
:10106000FFF7C8FF34BF012000205DF808FB00BF78
:101070004FEA4002B2F1FE4F0FD34FF09E03B3EBA5
:1010800012620DD94FEA002343F0004310F0004FE5
:1010900023FA02F018BF404270474FF0000070473B
:1010A00012F1610F01D1420205D110F0004008BFDA
:1010B0006FF0004070474FF00000704742000ED2C2
:1010C000B2F1FE4F0BD34FF09E03B3EB126209D483
:1010D0004FEA002343F0004323FA02F070474FF039
:1010E0000000704712F1610F01D1420202D14FF0AE
:1010F000FF3070474FF00000704700BF10F8012B21
:1011000011F8013B012A28BF9A42F7D0D01A704744
:10111000034613F8012B002AFBD1181A0138704737
:1011200010B504460E4B18784FF47A73B3FBF0F306
:101130000C4A1068B0FBF3F000F0A0F868B90F2C6F
:1011400001D901200AE0002221464FF0FF3000F0D3
:1011500055F8034B5C60002000E0012010BD00BF8B
:10116000000000202001002008B5074A136843F062
:1011700010031360032000F02FF80020FFF7D0FFCA
:1011800008F026FC002008BD00200240034A116838
:10119000034B1B780B441360704700BF4C030020C7
:1011A00000000020014B1868704700BF4C0300206E
:1011B00038B50446FFF7F6FF0546B4F1FF3F02D00D
:1011C000044B1B781C44FFF7EDFF401BA042FAD3F1
:1011D00038BD00BF00000020074AD36823F4E06355
:1011E0001B041B0C000200F4E060184340F0BF60D9
:1011F00040F40030D060704700ED00E030B4174B91
:10120000DB68C3F30223C3F10704042C28BF0424C2
:101210001D1D062D18D9033B4FF0FF3505FA04F4C8
:1012200021EA0401994005FA03F322EA0303194372
:1012300000280BDB0901C9B200F1604000F56140F4
:1012400080F8001330BC70470023E5E700F00F0082
:101250000901C9B2024B1954F4E700BF00ED00E0E8
:1012600014ED00E000F01F02400901239340024A00
:1012700042F82030704700BF00E100E00138B0F1D3
:10128000807F0AD2064B5860064AF02182F823106C
:101290000020986007221A6070470120704700BF45
:1012A00010E000E000ED00E0042805D0054A1368D6
:1012B00023F0040313607047024A136843F00403E9
:1012C0001360704710E000E0704708B5FFF7FCFFBF
:1012D00008BD000008B590F82130022B03D004238C
:1012E0008363012008BD0268136823F00E031360B6
:1012F0000268136823F0010313600368194A9342DC
:1013000014D0143293421FD0143293421ED01432A0
:1013100093421ED0143293421ED01432934202D014
:101320004FF0807203E04FF4801200E001220E4B78
:101330005A60012380F82130002380F82030436B6D
:101340006BB198470020CDE71022F0E74FF4807290
:10135000EDE74FF48052EAE74FF48032E7E70020F0
:10136000C0E700BF08000240000002400A4B1B69B2
:1013700013F0800F0DD0084B084A5A6002F18832F2
:101380005A601B6913F0800F01D0012070470020C4
:1013900070470020704700BF0020024023016745CE
:1013A000034A136943F0800313610020704700BFB4
:1013B00000200240F0B482B000263546A1E0002CA7
:1013C00059D0012C00D1CE68FF2B68D88446FF2B62
:1013D00068D8AC00DCF800200F27A74022EA0702FB
:1013E00006FA04F42243CCF800204A6812F0805F29
:1013F00000F086805E4A946944F001049461926929
:1014000002F001020192019AAC08A71C594A52F855
:10141000272005F00307BF004FF00F0C0CFA07FC64
:1014200022EA0C0C544A904242D002F5806290426B
:101430007FD002F5806290427DD002F580629042BA
:1014400034D0042235E04D4FBC4214D00BD94C4F60
:10145000BC4210D007F58037BC420CD0A7F58017EE
:10146000BC42B1D107E0A7F58017BC4203D007F515
:101470008037BC42A8D18C687CB1012C08D0426175
:101480000826A1E7CE6808369EE7CE680C369BE7B3
:101490000261082698E7002696E7042694E700F103
:1014A000040C94E7A5F10804A40093E7032200E0EC
:1014B0000022BA4042EA0C0202342E4F47F82420A0
:1014C0004A6812F4803F38D02E4C22681A432260BA
:1014D0004A6812F4003F36D02A4C62681A436260B0
:1014E0004A6812F4801F34D0264CA2681A43A260C6
:1014F0004A6812F4001F32D0224CE2681343E360C2
:1015000001350F2D31D80122AA400B6813409A42B1
:10151000F6D14C68122CB8D095D8022CB2D07FF6F8
:101520004EAF032CB7D0112C7FF44EAFCE680436EB
:101530004AE70122BDE70222BBE7124C226822EAF9
:1015400003022260C4E70F4C626822EA0302626071
:10155000C6E70C4CA26822EA0302A260C8E7094C65
:10156000E26822EA0303E360CAE702B0F0BC704716
:10157000001002400000014000080140000021105E
:1015800000003110000401408368194201D100209D
:1015900070470120704712B9090401617047016169
:1015A0007047000082B0084B1B68084AA2FB032367
:1015B0005B0A00FB03F0019000BF019B5A1E0192E1
:1015C000002BF9D102B0704720010020D34D6210EA
:1015D00070B582B00446036813F0010F2CD0AB4BFA
:1015E0005B6803F00C03042B1DD0A84B5B6803F071
:1015F0000C03082B12D06368B3F5803F41D0002B59
:1016000055D103F1804303F504331A6822F4803284
:101610001A601A6822F480221A6037E09B4B5B68DC
:1016200013F4803FE7D0994B1B6813F4003F03D0BD
:101630006368002B00F0AE81236813F0020F76D0B0
:10164000924B5B6813F00C0F5FD0904B5B6803F01C
:101650000C03082B54D02369002B00F08A808C4B9C
:1016600001221A60FFF79EFD0546884B1B6813F0A8
:10167000020F75D1FFF796FD401B0228F5D9032014
:101680008BE1824A136843F480331360636843B389
:10169000FFF788FD05467D4B1B6813F4003FCBD157
:1016A000FFF780FD401B6428F5D9032075E1B3F5F1
:1016B000A02F09D0754B1A6822F480321A601A687C
:1016C00022F480221A60E1E703F18043A3F53C3362
:1016D0001A6842F480221A601A6842F480321A6052
:1016E000D4E7FFF75FFD0546684B1B6813F4003F26
:1016F000A2D0FFF757FD401B6428F5D903204CE129
:10170000624B5B6813F4803FA5D1604B1B6813F0FC
:10171000020F04D02369012B01D001203DE15B4A77
:10172000136823F0F803616943EAC1031360236877
:1017300013F0080F32D0A369002B5BD0554B012268
:101740001A60FFF72FFD0546504B5B6A13F0020F3E
:1017500021D1FFF727FD401B0228F5D903201CE10A
:101760004A4A136823F0F803616943EAC10313602E
:10177000DDE7474B00221A60FFF714FD0546434B97
:101780001B6813F0020FD2D0FFF70CFD401B02289C
:10179000F5D9032001E10120FFF704FF236813F0CE
:1017A000040F00F09780394BDB6913F0805F33D171
:1017B000364BDA6942F08052DA61DB6903F080531C
:1017C0000193019B0125344B1B6813F4807F25D0C6
:1017D000E368012B36D0002B4CD103F1804303F595
:1017E00004331A6A22F001021A621A6A22F0040211
:1017F0001A622CE0274B00221A60FFF7D3FC054643
:10180000224B5B6A13F0020FC8D0FFF7CBFC401BE2
:101810000228F5D90320C0E00025D4E71E4A13684A
:1018200043F480731360FFF7BDFC06461A4B1B6838
:1018300013F4807FCCD1FFF7B5FC801B6428F5D969
:101840000320AAE0114A136A43F001031362E3681C
:1018500073B3FFF7A7FC06460C4B1B6A13F0020F8D
:1018600037D1FFF79FFC801B41F288339842F3D9B0
:10187000032092E0052B11D0044B1A6A22F00102DA
:101880001A621A6A22F004021A62E0E700100240AB
:10189000000042428004424200700040414B1A6AFC
:1018A00042F004021A621A6A42F001021A62CEE79A
:1018B000FFF778FC06463B4B1B6A13F0020F08D07B
:1018C000FFF770FC801B41F288339842F3D9032064
:1018D00063E0E5B9E369002B5ED0324A526802F05A
:1018E0000C02082A5BD0022B17D02F4B00221A6063
:1018F000FFF758FC04462B4B1B6813F0007F47D0C2
:10190000FFF750FC001B0228F5D9032045E0254ACB
:10191000D36923F08053D361DCE7234B00221A60A4
:10192000FFF740FC05461F4B1B6813F0007F06D0F5
:10193000FFF738FC401B0228F5D903202DE0236A6D
:10194000B3F5803F1AD017494B6823F47413226A09
:10195000606A024313434B60134B01221A60FFF786
:1019600021FC04460F4B1B6813F0007F0ED1FFF7DC
:1019700019FC001B0228F5D903200EE0094A536820
:1019800023F40033A1680B435360DCE7002004E03C
:10199000002002E0012000E0002002B070BD012024
:1019A000FBE700BF001002406000424210B487B065
:1019B000164C94E80F000DF1180C0CE90F00238A67
:1019C000ADF80430124B5B6803F00C02082A1AD100
:1019D000C3F38342624412F8102C13F4803F05D104
:1019E0000C4800FB02F007B010BC7047084B5B6866
:1019F000C3F34043634413F8143C074800FB02F070
:101A0000B0FBF3F0EFE70448EDE700BF80B9000852
:101A10000010024000093D0000127A00594B1B687B
:101A200003F007038B420CD2564A136823F00703D6
:101A30000B431360136803F007038B4201D00120AE
:101A4000704770B5036813F0020F06D04E4A536812
:101A500023F0F0038468234353600C460546036873
:101A600013F0010F52D04368012B23D0022B28D052
:101A7000454A126812F0020F00F0828042494A681B
:101A800022F0030213434B60FFF78CFB06466B68A2
:101A9000012B1DD0022B2AD03B4B5B6813F00C0F9F
:101AA00034D0FFF77FFB801B41F288339842F3D993
:101AB000032064E0344A126812F4003FDED10120B2
:101AC0005DE0314A126812F0007FD7D1012056E064
:101AD0002D4B5B6803F00C03042B17D0FFF762FB60
:101AE000801B41F288339842F2D9032047E0264B0D
:101AF0005B6803F00C03082B08D0FFF753FB801B37
:101B000041F288339842F2D9032038E01D4B1B681C
:101B100003F00703A3420CD91A4A136823F0070302
:101B200023431360136803F00703A34201D001208D
:101B300025E02B6813F0040F06D0134A536823F4F2
:101B4000E063E9680B4353602B6813F0080F07D07C
:101B50000D4A536823F46053296943EAC103536073
:101B6000FFF724FF084B5B68C3F30313074AD35CFA
:101B7000D840074B18600020FFF7D2FA002070BD54
:101B80000120FCE7002002400010024048BE00088F
:101B900020010020014B1868704700BF2001002081
:101BA00008B5FFF7F7FF044B5B68C3F30223034A52
:101BB000D35CD84008BD00BF0010024058BE0008EA
:101BC00008B5FFF7E7FF044B5B68C3F3C223034A82
:101BD000D35CD84008BD00BF0010024058BE0008CA
:101BE00000283CD010B504460023836290F85130A1
:101BF000002B31D0022384F851302268136823F07F
:101C0000400313606368A2681343E26813432269C8
:101C1000134362691343A26902F400721343E26939
:101C20001343226A1343A16A22680B431360638B38
:101C300003F00403616A22680B4353602368E26A7D
:101C40001A612268D36923F40063D36100206065C0
:101C5000012384F8513010BD07F00AFFCAE70120C4
:101C60007047000070B4036A23F001030362036A43
:101C70004268846924F073040D6845EA040623F081
:101C800002048B6823430D4DA84209D00B4DA84296
:101C90000DD0426086614A684263036270BC70473F
:101CA00023F00803CC68234323F00403EEE722F477
:101CB00040724C6914438A692243EAE7002C0140D0
:101CC00030B4036A23F480730362036A4268C46910
:101CD00024F073040D682C4323F400738D6843EAE9
:101CE00005230F4DA84209D00D4DA8420ED04260E9
:101CF000C4614A68C263036230BC704723F4006366
:101D0000CD6843EA052323F48063EDE722F44052D3
:101D10004D6942EA05128D6942EA0512E7E700BF04
:101D2000002C014030B4036A23F480530362036A39
:101D30004468C26922F4E6420D6842EA052223F4AF
:101D400000538D6843EA0533074DA84206D044602E
:101D5000C2614A680264036230BC704724F4804464
:101D60004D6944EA8514F2E7002C014010B4036A7F
:101D7000046A24F001040462846924F0F00444EA53
:101D8000021223F00A030B438261036210BC704706
:101D900010B4036A23F0100303628469036A24F415
:101DA000704444EA023223F0A00343EA0113826143
:101DB000036210BC7047836823F0700341F0070191
:101DC00019438160704710B4846824F47F4442EA68
:101DD00003230B432343836010BC70470268D3681E
:101DE00043F00103D3600268136843F001031360FA
:101DF000002070477047704790F83C30012B7DD031
:101E000010B50446012380F83C30022380F83D30B1
:101E10000268936823F47F4323F0770393600B6891
:101E2000402B57D010D9702B3ED01FD8502B47D005
:101E3000602B32D1CA6849680068FFF7A9FF6021AA
:101E40002068FFF7B8FF28E0102B4DD008D9202BD1
:101E50004FD0302B21D130210068FFF7ACFF1CE0C0
:101E6000DBB900210068FFF7A6FF16E0B3F5805F3D
:101E70000ED0B3F5005F10D1CB684A68896800685E
:101E8000FFF7A1FF2268936843F48043936004E066
:101E90000268936823F007039360012384F83D30C0
:101EA000002084F83C0010BDCB684A68896800684F
:101EB000FFF789FF2268936843F077039360ECE7AC
:101EC000CA6849680068FFF751FF50212068FFF792
:101ED00072FFE2E7CA6849680068FFF747FF4021E0
:101EE0002068FFF768FFD8E710210068FFF763FF5D
:101EF000D3E720210068FFF75EFFCEE7022070479E
:101F00007047704770477047704710B504460368C4
:101F10001A6912F0020F11D0DA6812F0020F0DD018
:101F20006FF002021A610123037703689B6913F0C3
:101F3000030F70D0FFF7E6FF0023237723681A69A9
:101F400012F0040F12D0DA6812F0040F0ED06FF006
:101F500004021A610223237723689B6913F4407FEC
:101F60005FD02046FFF7CEFF0023237723681A694E
:101F700012F0080F12D0DA6812F0080F0ED06FF0CE
:101F800008021A61042323772368DB6913F0030F27
:101F90004ED02046FFF7B6FF0023237723681A6947
:101FA00012F0100F12D0DA6812F0100F0ED06FF08E
:101FB00010021A61082323772368DB6913F4407F3A
:101FC0003DD02046FFF79EFF0023237723681A6940
:101FD00012F0010F03D0DA6812F0010F36D1236836
:101FE0001A6912F0800F03D0DA6812F0800F34D132
:101FF00023681A6912F0400F03D0DA6812F0400F1C
:1020000032D123681A6912F0200F03D0DA6812F077
:10201000200F30D110BDFFF774FF2046FFF773FF8C
:102020008AE72046FFF76DFF2046FFF76CFF9BE72E
:102030002046FFF766FF2046FFF765FFACE7204626
:10204000FFF75FFF2046FFF75EFFBDE76FF001027D
:102050001A612046FFF754FFC1E76FF080021A6152
:10206000204600F0E1F9C3E76FF040021A61204614
:10207000FFF74AFFC5E76FF020021A61204600F023
:10208000D2F9C7E703681B4A90420AD0B0F1804FEB
:1020900007D0A2F59432904203D002F580629042BC
:1020A00003D123F070034A681343124A90420AD0C6
:1020B000B0F1804F07D0A2F59432904203D002F5E0
:1020C0008062904203D123F44073CA68134323F023
:1020D00080034A69134303608B68C3620B688362A1
:1020E000044B984202D00123436170470B6903639C
:1020F000F9E700BF002C0140A8B110B5044690F8E4
:102100003D305BB1022384F83D30211D2068FFF78C
:10211000B9FF012384F83D30002010BD80F83C3029
:1021200007F0CAFCEEE701207047A8B110B50446DD
:1021300090F83D305BB1022384F83D30211D2068CA
:10214000FFF7A0FF012384F83D30002010BD80F888
:102150003C30FFF74FFEEEE701207047A8B110B505
:10216000044690F83D305BB1022384F83D30211DD8
:102170002068FFF787FF012384F83D30002010BD61
:1021800080F83C30FFF737FEEEE701207047000093
:1021900030B4036A23F010030362036A446882695F
:1021A00022F4E6420D6842EA052223F020038D68FE
:1021B00043EA05130E4DA84209D00D4DA8420ED09A
:1021C000446082614A688263036230BC704723F0D6
:1021D0008003CD6843EA051323F04003EDE724F4C0
:1021E00040644D6944EA85048D6944EA8504E7E763
:1021F000002C014090F83C30012B28D010B504464B
:10220000012380F83C30022380F83D300C2A0BD8A3
:10221000DFE802F0070A0A0A110A0A0A150A0A0A7E
:1022200019000068FFF71EFD012384F83D300020EF
:1022300084F83C0010BD0068FFF7AAFFF4E70068CF
:10224000FFF73EFDF0E70068FFF76CFDECE70220CA
:10225000704738B590F83C30012B66D00D460446E7
:10226000012380F83C30022380F83D300C2A1AD834
:10227000DFE802F007191919201919193419191969
:1022800047000068FFF7EEFC2268936943F00803FB
:1022900093612268936923F0040393612268936930
:1022A00029690B439361012384F83D30002084F8B1
:1022B0003C0038BD0068FFF76BFF2268936943F468
:1022C000006393612268936923F4806393612268B9
:1022D0009369296943EA01239361E4E70068FFF702
:1022E000EFFC2268D36943F00803D3612268D36905
:1022F00023F00403D3612268D36929690B43D361B6
:10230000D1E70068FFF70EFD2268D36943F400634C
:10231000D3612268D36923F48063D3612268D369CF
:10232000296943EA0123D361BDE70220C1E710B464
:10233000012303FA01F4036A23EA04030362036A34
:102340008A401343036210BC7047000010B5044676
:1023500001220068FFF7EBFF2368074A934206D08B
:102360002268136843F001031360002010BD5A6C0B
:1023700042F400425A64F3E7002C014090F83C30EC
:10238000012B25D0012380F83C30CB6823F4407327
:102390008A68134323F480634A68134323F4006379
:1023A0000A68134323F480530A69134323F4005348
:1023B0004A69134323F480438A69134323F4004397
:1023C000134302685364002380F83C30184670477A
:1023D0000220704790F83C30012B22D030B401220B
:1023E00080F83C20022380F83D300468636823F0C5
:1023F00070036360046863680D682B43636004685E
:10240000A36823F08003A3600468A36849680B43B2
:10241000A36080F83D20002380F83C30184630BC93
:10242000704702207047704770470268D36823F4F2
:102430009073D3600268536923F001035361202332
:1024400080F83A30704790F83930DBB2212B2AD12E
:102450008368B3F5805F16D0036A5A1C02621A784B
:1024600003685A60C38C013B9BB2C384EBB902681A
:10247000D36823F08003D3600268D36843F040033D
:10248000D36000207047036A1B880268C3F3080307
:10249000536003691BB9036A02330362E2E7036A0C
:1024A00001330362DEE7022070470020704700001E
:1024B0002DE9F84305460268136923F44053C168C7
:1024C0000B43136183680269134342691343016834
:1024D000CA6822F4B05222F00C021343CB600268A7
:1024E000536923F4407381690B4353610268594B6C
:1024F0009A4257D0FFF754FB00EB800000EB8000BE
:102500006C68A400B0FBF4F4534FA7FB04346409D7
:102510002601FFF745FB00EB800000EB80006C68B4
:10252000A400B0FBF4F9FFF73BFB00EB800000EBED
:1025300080006C68A400B0FBF4F4A7FB04346409C9
:102540004FF0640808FB149424013234A7FB0434D0
:10255000640904F0F0043444FFF722FB00EB800030
:1025600000EB80006E68B600B0FBF6F6FFF718FBD4
:1025700000EB800000EB80006B689B00B0FBF3F089
:10258000A7FB0030400908FB10684FEA081808F163
:102590003208A7FB0837C7F343172B6827449F600F
:1025A000BDE8F883FFF70CFB00EB800000EB800038
:1025B0006C68A400B0FBF4F4274FA7FB0434640953
:1025C0002601FFF7FDFA00EB800000EB80006C684D
:1025D000A400B0FBF4F9FFF7F3FA00EB800000EB86
:1025E00080006C68A400B0FBF4F4A7FB0434640919
:1025F0004FF0640808FB149424013234A7FB043420
:10260000640904F0F0043444FFF7DAFA00EB8000C8
:1026100000EB80006E68B600B0FBF6F6FFF7D0FA6C
:1026200000EB800000EB80006B689B00B0FBF3F0D8
:10263000A7FB0030400908FB10684FEA081808F1B2
:102640003208A7FB0837C7F343172B6827449F605E
:10265000A6E700BF003801401F85EB512DE9F0418E
:1026600005460F4616469846069C2B681B6837EAB7
:1026700003030CBF01230023B3421DD1B4F1FF3F7C
:10268000F3D02CB1FEF78EFDA0EB0800A042ECD9F0
:102690002A68D36823F4D073D3602A68536923F07F
:1026A00001035361202385F8393085F83A3000233F
:1026B00085F83830032000E00020BDE8F08158B3F1
:1026C00010B5044690F839300BB3242384F8393020
:1026D0002268D36823F40053D3602046FFF7E8FE56
:1026E0002268136923F4904313612268536923F02D
:1026F0002A0353612268D36843F40053D360002057
:10270000E063202384F8393084F83A3010BD80F833
:10271000383007F039FAD8E7012070472DE9F04149
:1027200082B01E4690F83930DBB2202B55D10446DA
:102730000D469046002955D0002A55D090F83830E3
:10274000012B53D0012380F838300023C3632123A9
:1027500080F83930FEF726FD0746A4F82480A4F857
:10276000268010E000963B46002280212046FFF79D
:1027700075FF00283CD12B882268C3F308035360FF
:102780002369C3B90235E38C9BB2B3B1E38C013B3F
:102790009BB2E384A368B3F5805FE3D000963B4629
:1027A000002280212046FFF759FF18BB2A782368B2
:1027B0005A600135E7E70135E5E700963B46002220
:1027C00040212046FFF74AFF0346A8B9202284F89B
:1027D0003920002284F8382000E00223184602B095
:1027E000BDE8F0810123F9E70123F7E70223F5E7CC
:1027F0000323F3E70323F1E70323EFE7704708B56B
:102800000168CB6823F04003CB60202380F8393087
:10281000FFF7F4FF002008BD704708B590F83A3084
:10282000DBB2222B45D18368B3F5805F0ED00369FC
:1028300003BB03685A68836A591C81621A70C38D8E
:10284000013B9BB2C385F3B1002033E0826A036988
:1028500043B903685B68C3F308031380836A0233D8
:102860008362ECE703685B68DBB21380836A013341
:102870008362E4E703685B68826A511C816203F04B
:102880007F031370DBE70268D36823F02003D36073
:102890000268D36823F48073D3600268536923F01D
:1028A00001035361202380F83A30FFF7B5FF002081
:1028B00000E0022008BD704710B5044602681368A6
:1028C000D168526913F00F0005D113F0200F02D028
:1028D00011F0200F53D1002867D012F0010202D16D
:1028E00011F4907F61D013F0010F06D011F4807FB6
:1028F00003D0E06B40F00100E06313F0040F04D05C
:102900001AB1E06B40F00200E06313F0020F04D054
:102910001AB1E06B40F00400E06313F0080F04D03C
:102920001AB1E26B42F00802E263E26B002A48D07F
:1029300013F0200F02D011F0200F24D123685B691F
:1029400003F04003E26B12F0080F00D13BB32046C6
:10295000FFF76BFD23685A6912F0400F1BD05A69CC
:1029600022F040025A61636B8BB11A4A5A63606B62
:10297000FEF7B0FC28B3606B436B984721E020461C
:10298000FFF74BFF1DE02046FFF747FFD6E7204645
:10299000FFF791FF15E02046FFF78DFF11E020467D
:1029A000FFF789FF0023E3630BE013F0800F02D0F1
:1029B00011F0800F06D113F0400F02D011F0400F3C
:1029C00004D110BD2046FFF73EFDFAE72046FFF791
:1029D00016FFF6E7D929000808B5406A0023C38529
:1029E000C384FFF768FF08BDF0B587B01B4B9A6939
:1029F00042F008029A619A6902F008020092009A75
:102A00009A6942F010029A619B6903F010030193E6
:102A1000019B0823029301260396002504950224B6
:102A200005940DEB03010E48FEF7C4FC4FF48053F0
:102A300002930396049505940A4F02A93846FEF7BF
:102A4000B9FC4FF40063029303960495059402A920
:102A50003846FEF7AFFC07B0F0BD00BF00100240E3
:102A6000000C01400010014010B5044610F0010FA9
:102A700017D0012208211548FEF78DFD14F0020F32
:102A800015D001224FF480511148FEF784FD14F057
:102A9000040F13D100224FF400610D48FEF77BFDB7
:102AA00010BD002208210948FEF775FDE6E7002267
:102AB0004FF480510648FEF76EFDE8E701224FF41F
:102AC00000610348FEF767FDEAE700BF000C014024
:102AD00000100140F0B587B0234B9A6942F0100214
:102AE0009A619A6902F010020092009A9A6942F083
:102AF00004029A619B6903F004030193019B1B4D3F
:102B000000224FF480412846FEF745FD184E002272
:102B10004FF480613046FEF73EFD4FF48043029350
:102B20000124039404940227059702A92846FEF77E
:102B300041FC4FF48063029303940494059702A927
:102B40003046FEF737FC4FF400430293002603960D
:102B5000049402A92846FEF72DFCFFF745FF3046F6
:102B6000FFF782FF07B0F0BD0010024000080140EF
:102B70000010014070B500260B2500E0013D002D3E
:102B800020DB124C00224FF480412046FEF703FD6B
:102B900000BF00BF00BF00BF00BF00BF01224FF455
:102BA00080412046FEF7F7FC00BF00BF4FF4004114
:102BB0002046FEF7E9FC0028E0D00120A8400643AB
:102BC000B6B2DBE7701E80B270BD00BF00080140E6
:102BD00038B51F4C01224FF480612046FEF7DBFC24
:102BE00000224FF480612046FEF7D5FC01224FF40D
:102BF00080411848FEF7CFFC0024012C25D8154D44
:102C000000224FF480412846FEF7C5FC01224FF414
:102C100080412846FEF7BFFC4FF400412846FEF7EE
:102C2000B3FC10B10134E4B2E7E7FFF7A3FF0446B9
:102C300000224FF480412846FEF7ADFC01224FF4FC
:102C400080610348FEF7A7FC00E00024204638BD61
:102C5000001001400008014008B5FFF705FFFFF72D
:102C6000B7FF08BDF8B5054614460846FDF7B2FBA8
:102C700002460B4600200D4907F08CF806460F4629
:102C80002846FDF7C9FB32463B46FDF71DFCFDF724
:102C9000CBFEFEF7EDF9FDF7D1FFFDF7BDFB0246D8
:102CA0000B460349204608F08BF9F8BD000024408C
:102CB00060BE00082DE9F043DDF81CE0DDF820C01F
:102CC000099F314C266876B9304CA52525705A25C8
:102CD00065708225E5702E4D2D7825710025657172
:102CE000A5710625E5714FEA2029C6EBC6046500EB
:102CF00005F10A08254C04F8089005F10B0804F8C2
:102D000008004FEA212805F10C0004F8008005F1C5
:102D10000D0021544FEA2228711CC1EBC10670003E
:102D200004F8008005F10F002254181205F110027A
:102D3000A05405F11102A3544FEA2E2205F112030B
:102D4000E25405F1130304F803E04FEA2C2205F1E5
:102D50001403E25405F1150304F803C03A1205F117
:102D60001603E25417356755074B1960CAB2C2EB18
:102D7000C20043000733A370090A21726272054B37
:102D800001221A60BDE8F08370030020580700207C
:102D9000080000208408002030B4104B1A68C2EBF1
:102DA000C202530003F10A042546002307E00C4A3F
:102DB00012681A440B49C85C0B4988540133AB4272
:102DC000F5DB0A4B00221A60054A1368234413609E
:102DD0000133074A136030BC704700BF7003002006
:102DE0000C0A00205807002080030020140A00204D
:102DF000300A002010B40D490B680D4AA524D454A4
:102E000001335A24D45401330424D454013380248C
:102E1000D45401330324D45401330024D454013353
:102E2000D05401330B6010BC704700BF0C0A002067
:102E30008003002010B40B490B680B4AA524D4541E
:102E400001335A24D45401330324D454013380244D
:102E5000D45401330224D4540133D05401330B60D1
:102E600010BC70470C0A00208003002010B40B49EE
:102E70000B680B4AA524D45401335A24D45401338B
:102E80000324D45401338024D45401330124D45472
:102E90002344D05423440B6010BC70470C0A00201C
:102EA00080030020002305E0074A1A442021117105
:102EB0000133DBB2054A125C9A42F5D8024A134448
:102EC00000221A71704700BF0800002094B9000862
:102ED00030B587B015460446062B17D801AA194607
:102EE0002846FFF7BFFE002303E0154A0244117194
:102EF000013306AA1A4412F8141C29B11819104AF1
:102F000002441279002AF0D107B030BD01AA194657
:102F10002846FFF7A7FE002304E0094A0A442021BF
:102F20001171013306AA1A4412F8142C002AEBD0AE
:102F30001919034A0A441279002AEED1E4E700BFC6
:102F400008000020F0B400EB400044013334104D81
:102F50002B681048A522C25401330F4E32685A27FD
:102F6000C75401330527C75401338227C75401339F
:102F7000270AC7540133C45401330C12C45401331B
:102F8000C15401332B6008323260F0BC704700BF7F
:102F9000300A0020800300200C0A002070B4174D76
:102FA0002B68174AA524D45401335A24D45402332D
:102FB0008224D454013300EB40046601114C247880
:102FC000240144EA2624D4540133D65401332B601F
:102FD00000230A480268CD5C094CA5540132026006
:102FE0000133C85C0028F4D1D41A043C03330449EB
:102FF0000B55054B1A6070BC704700BF300A0020AB
:1030000080030020380A00200C0A002038B5224D29
:103010002D68B5F5167F13D21D461446884210D090
:103020001E4B53F822301E4A11688B4217D11D4B9C
:1030300053F82400FDF7FEFD2946FDF7E7FFA8B190
:1030400038BD164B53F82230174A91698B42EED0A7
:10305000124B43F824102046FFF774FFE7E70F4BAD
:1030600043F824102046FFF76DFFE0E7E0B2FFF7DA
:1030700019FF9DF810302A4621460020FFF728FF4F
:103080000A492046FFF78AFF2846FEF717F8054B46
:1030900043F82400D4E700BF0C0A00208C0800206D
:1030A0003C0A0020D4050020080000200C0000206D
:1030B00010B584B0A3B90F24884213D1104B1B78EC
:1030C00013F0040F1AD0079B0293069B01930F2362
:1030D0000093E318002221462320FFF7EBFD0DE0CB
:1030E0001E24E9E7079B0293069B01930F2300939D
:1030F000E318002221462320FFF7DCFD04B010BDB9
:10310000400A0020002070470020704710B5044698
:10311000FDF7FEFFC82382B221460248FFF7FEFA00
:1031200010BD00BF1C0B0020074A936943F0010348
:103130009361064B5A6822F040725A605A6842F016
:1031400080625A60704700BF0010024000000140DA
:103150000021042900F2EC812DE9F04F9AE101F100
:103160004803754A52F8230040009CE1734A00244A
:103170001470642404FB03F4714B1C6002E00133FF
:103180006E4A13706D4B1B781D466E4A52F8232011
:1031900000FB02F29442F2D86B4B5A5D6B4B9A558E
:1031A0008BE16B4A0020106093E16A4800240470B0
:1031B000272E02D86748012404705F48D0F82451B4
:1031C000AB4213D2E81A4000614C2060624840686C
:1031D00002EB050E4FEA4E0E70450BD25C4C246894
:1031E000A04207D95D480124047006E05848002435
:1031F0000460EBE7594800240470272D02D8574893
:10320000012404704C48D0F82841A34213D2E01A9C
:1032100040004F4F38605048806802EB04084FEA86
:10322000480840450BD24A4F3F68B84207D94C483E
:103230000127077006E0464800270760EBE748488B
:1032400000270770272C02D84548012707703A4805
:10325000D0F82C01834219D2C71A7F00DFF8F09012
:10326000C9F800703C4FFF6802EB00094FEA4909BA
:103270004F4511D2DFF8D8A0DAF800A057450BD996
:10328000384F4FF0010A87F800A00AE0304F4FF0A6
:103290000009C7F80090E5E7324F4FF0000A87F8C1
:1032A00000A0272804D82F4F4FF0010A87F800A06C
:1032B000214FD7F83071BB4219D2A7EB030A4FEA6E
:1032C0004A0ADFF88CB0CBF800A0DFF88CA0DAF85F
:1032D00010A03A44BAEB420F10D21D4A1268924530
:1032E0000CD9214A4FF0010A82F800A00BE0DFF868
:1032F00060A04FF0000BCAF800B0E6E71A4A4FF0A2
:10330000000A82F800A0272F04D8174A4FF0010ABC
:1033100082F800A00F4A127852B3104A12783AB3DA
:103320000F4A127822B30F4A12780AB30F4A4FF0AD
:10333000010AC2F800A020E0602100203D0D00201D
:103340009C0D0020C4000020E80000208C230020F9
:10335000C41A00206A030020942300205C0300208C
:1033600048030020640300205A0300201424002096
:10337000704A4FF0000AC2F800A0272E05D806F1C7
:103380000802DFF8B4A1CAF80020272D05D805F1FE
:103390000802DFF8A4A1CAF80420272C05D804F1FC
:1033A0000802DFF894A1CAF80820272805D800F100
:1033B0000802DFF884A1CAF80C20272F02D80837AA
:1033C0005D4A17615C4A126894450CD35A4F7F6876
:1033D000BE4508D3584FBF68B84504D3564FFF6861
:1033E000B94580F08B80554F4FF0010C87F800C035
:1033F000534F4FF0000C87F800C09E4240F284808B
:10340000F71A7F00DFF83CC1CCF800704D4F3F68E1
:10341000BA4204D2282E02D9494A01261670AB427C
:1034200078D2EA1A5200474E3260434A5668454AFB
:103430001268964204D2282D02D9414A01251570FE
:10344000A3426BD2E21A52003E4D2A603A4A956876
:103450003C4A1268954204D2282C02D9384A0124E9
:10346000147083425ED2C31A5B00364A1360324B3B
:10347000DA68344B1B689A4204D2282802D9304BB0
:1034800001221A702E4B1A782F4B1A700131C9B2D3
:1034900004294BD82D4B1B78002B3FF460AE2C4BEE
:1034A000D3F8000340000E46234B53F821308342EB
:1034B000FFF45CAE274B00225A54274BD3F820610F
:1034C000D3F838319E427FF66CAEF21A52001D4896
:1034D0000260194A1068204AD2F8342106EB020C27
:1034E0004FEA4C0C6045BFF460AE164C2468A04215
:1034F0007FF65BAE19480124047059E60F4F4FF078
:10350000000C87F800C073E70E4F4FF0000CC7F8AF
:1035100000C07BE70B4A0026166086E7094A0025B3
:10352000156093E7074B00221A60A0E7BDE8F08F13
:10353000704700BF14240020942300206203002061
:10354000D40C0020C41A0020560300202A030020B7
:10355000501B00208C230020602100206A030020E3
:103560002B4A136801331360632B02D913460022E0
:103570001A60284B1A78264B1B689A4229D926498B
:103580000A7822F001020A70224A5278934226D227
:1035900021490A7822F002020A701E4A9278934268
:1035A00023D21D490A7822F004020A70194AD278FF
:1035B000934220D218490A7822F008020A70154A6C
:1035C000127993421DD3144A137843F010031370F9
:1035D000704711490A7842F001020A70D4E70E4997
:1035E0000A7842F002020A70D7E70B490A7842F0E3
:1035F00004020A70DAE708490A7842F008020A7001
:10360000DDE7054A137823F010031370704700BFFD
:103610005C0D00208C230020FC2000200023B34AF6
:103620001370B34A1360B34B1B78002B41F09B849B
:103630002DE9F04784B0B04A1360B04A1360B04A35
:103640001360B04A1360B04B1B784F2B00F2C68159
:103650000133AD4A1370AC4B1978AC4A52F82130A3
:10366000013342F82130AA4B1B680D2B00F0BA81C0
:10367000A84B18221A70A34B1B684BB9A64B1B789A
:10368000002B40F03C82A54B1B780D2B40F2518261
:10369000A34B00221A60A34B1B7813F0040F00F019
:1036A0005E82A14B4FF478421A609B4B1B78002B33
:1036B00040F05A829D4B1B78002000900246012169
:1036C000FFF7A4FC9A4B1B780024009401221146BA
:1036D0002046FFF79BFC974B1B78009402220121A8
:1036E0002046FFF793FC944B1878FDF7A3FA934B11
:1036F00018609349FDF7AAFB01250295FCF78CFEA3
:10370000CDE90001032221462846FFF77FFC8D4BBF
:103710001B78002B40F02F828B4BD3F82031272BC6
:1037200002D80833894A1360874BD3F82431272BFA
:1037300002D80833854A5360834BD3F82831272BAE
:1037400002D80833814A93607F4BD3F82C31272B62
:1037500002D808337D4AD3607B4BD3F85031272BF6
:1037600002D80833794A1361784D2B6800240094FD
:103770005B08072221460120FFF748FC6B68009494
:103780005B08042211210120FFF740FCAB68009484
:103790005B080A2217210120FFF738FCE86840087F
:1037A000FDF748FA654B18600294FCF735FECDE949
:1037B00000010E221C210120FFF728FC2B69009438
:1037C0005B08142222210120FFF720FC534B1A78BA
:1037D000D31EDBB2022B40F2F9810E2A00F0588290
:1037E0005B4B1868FDF72AFA544B18605449FDF7F3
:1037F0002DFB01240294FCF70FFECDE90001082205
:1038000011462046FFF702FC524D00240094D5F8E3
:1038100018330F220E210120FFF7F8FBD5F81C33D7
:1038200000940C2213210120FFF7F0FB4A4B1B6888
:1038300000940D221C210120FFF7E8FB474B1B6879
:103840000094112226210120FFF7E0FB444B1B7856
:1038500013F0020F40F03182424B1B68009410229B
:1038600026210120FFF7D2FB3D4B1B7813F0010FFF
:1038700040F02D823B4B1B6800220092062226213D
:103880000120FFF7C3FB224B1B68002B00F02982AD
:103890001F4B1B68022B00F06A821D4B1B68032B19
:1038A00000F03A831A4B1B68042B00F0FF83184B7F
:1038B0001B68052B00F0AE84154B1B68062B00F02F
:1038C0008385134B1B68072B00F07C86104B1B680D
:1038D000082B00F05B870E4B1B68092B01F048801A
:1038E0000B4B1B680A2B01F035813DE0380A0020A4
:1038F0007003002024000020140A00200C0A00207D
:10390000300A002084080020AA230020D4050020CB
:10391000882300200800002028030020ED23002039
:103920003C0A0020400A002020000020360C002025
:103930008E0C002058210020900D002078030020DC
:1039400000002041842300206021002094230020D7
:10395000780C0020501B0020E42000203C0C0020AC
:103960003C0D0020AC230020A34B1B680B2B01F067
:10397000FE81A14B1B680E2B01F070829F4C2078BA
:10398000FDF758F94FF08741FDF7ACF9054660782F
:10399000FDF754F92946FDF79DF8994B1860964BB1
:1039A0001B6813B10E2B41F07482964B1B68002BE1
:1039B00041F07982944B1B788F4A1068834241F022
:1039C0007682924B1878924B1B78984201F076825F
:1039D0008F4B1870FFF74AFA01F070BA8D4B002236
:1039E0001A7038E68C4A8D4B1B7813608C4B1B7811
:1039F00053608C4B1B7893608B4B18788B4B1B78E8
:103A000003F00F0141EA00114FF6FF704140D16011
:103A1000874909781B0943EA0113434013610023D6
:103A2000844A1360844A13600F2284490A608449DF
:103A30000A60844A7D211160834ABE211160834A55
:103A400078211160824A1721116001E00133DBB255
:103A50001D46714A52F823207E4951F823108A42AC
:103A600001D1052BF2D9042B3FF602AE794941F87A
:103A7000252003F11901784A1170C3EB0313DA0012
:103A80007D32704B1A6001241DE06C4B1B686A4A42
:103A90001268684909686C480068029069480068C3
:103AA00001906748006800902320FFF703F90FE0BA
:103AB000654A1368664909680B4413606400B4F5ED
:103AC000805FBFF6D5AD544B53F825301C42DCD196
:103AD000514B53F82530002BEAD1584B1B68564AFE
:103AE0001268544909684FF4EB700290002001906D
:103AF0005348006800902320FFF7DCF8D8E7574AC6
:103B000052F82310564A52F82320564B1B68564849
:103B100000681044032402944FF4C9740194009087
:103B20000B442E20FFF7C6F8504B4FF47A721A6000
:103B3000AEE54F4A52F823104E4A52F823204E4B1E
:103B40001B684E4800681044032402944FF4C97463
:103B5000019400900B442D20FFF7ACF898E5484BFA
:103B60004FF4FC621A60A0E500200090024601219B
:103B7000FFF74CFAA6E5434D00240094D5F8203118
:103B800007220C210120FFF741FA0094D5F82431D7
:103B900004221B210120FFF739FA0094D5F82831BF
:103BA0000A2217210120FFF731FA0094D5F82C31B1
:103BB0000E221C210120FFF729FAD5F8303100949C
:103BC000142222210120FFF721FAFFE52E4B18686D
:103BD000FDF734F80A4B18602C49FDF737F901243A
:103BE0000294FCF719FCCDE9000108221146204699
:103BF000FFF70CFA08E600BF88230020180A00200F
:103C000078030020840800207C030020400000206E
:103C10001C030020AA230020C0050020240300204C
:103C20002503002026030020410D00203C0D00202C
:103C3000BB1A002018030020140300203C000020C1
:103C40003800002034000020300000202C0000202C
:103C500028000020A80500200800002090BB0008D4
:103C6000E4BA0008E0BA0008DCBA0008440000200A
:103C7000B0BC000874BC000870BC00086CBC000834
:103C80002000002060210020F820002000002041BA
:103C9000944B1878FCF7CEFF934B18609349FDF7CF
:103CA000D5F801240294FCF7B7FBCDE90001082206
:103CB00011462046FFF7AAF9A6E58D4B1B6809229D
:103CC0000092102226210120FFF7A0F9CCE5884BB5
:103CD0001B6809220092062226210120FFF796F98F
:103CE000D1E5844B1B680024009428222146012042
:103CF000FFF78CF9804B1B680094152221460120A8
:103D0000FFF784F97D4D00942B680922214601209C
:103D1000FFF77CF97A4B1B6800941622214601209C
:103D2000FFF774F9774B1B6900945B082B2221463F
:103D30000120FFF76BF9744B1B6800942922214680
:103D40000120FFF763F92868FCF774FF664B1860E1
:103D50006649FDF77BF801250295FCF75DFBCDE98F
:103D600000010B2221462846FFF750F990E5674DE8
:103D7000286DFCF75FFFDFF87081C8F800005B4931
:103D8000FDF764F8624C266801270297FCF744FBB4
:103D9000CDE900010B2214213046FFF737F9002648
:103DA00000962B691C2204212068FFF72FF9594B3C
:103DB0001B680096192239462068FFF727F90096FC
:103DC000AB681A2202212068FFF720F90096EB6801
:103DD0001B2203212068FFF719F900966B691D2249
:103DE00005212068FFF712F90096AB691E22062113
:103DF0002068FFF70BF90096EB691F220721206866
:103E0000FFF704F9286AFCF715FFC8F800003749E6
:103E1000FDF71CF8D4F800900297FCF7FDFACDE905
:103E20000001202208214846FFF7F0F800966B6A4F
:103E3000212209212068FFF7E9F80096AB6A2222C7
:103E40000A212068FFF7E2F80096EB6A23220B2193
:103E50002068FFF7DBF8286BFCF7ECFEC8F80000E1
:103E60002249FCF7F3FFD4F800800297FCF7D4FA5C
:103E7000CDE9000124220C214046FFF7C7F8009647
:103E80006B6B25220D212068FFF7C0F80096AB6B05
:103E900026220E212068FFF7B9F80096EB6B272247
:103EA0000F212068FFF7B2F800962B6C2822102112
:103EB0002068FFF7ABF800966B6C2922112120686F
:103EC000FFF7A4F80096AB6C2A2212212068FFF7B6
:103ED0009DF8EB6C206800962B221321FFF796F8D3
:103EE000DBE400BF11240020780300200000204103
:103EF000AC230020400C0020E8230020E40D00202B
:103F0000880D002094230020D81A0020501B002088
:103F100054210020E4200020BA4DD5F8A800FCF779
:103F200089FEB94F3860B94CD4F80080002602965B
:103F3000FCF772FACDE900010B2214214046FFF78D
:103F400065F80096EB6D192201212068FFF75EF8F5
:103F500000962B6E1A2202212068FFF757F8009670
:103F60006B6E1B2203212068FFF750F8A86EFCF748
:103F700061FE3860A649FCF769FFD4F80080012390
:103F80000293FCF749FACDE900011C2204214046C6
:103F9000FFF73CF80096EB6E1D2205212068FFF725
:103FA00035F800962B6F1E2206212068FFF72EF8A9
:103FB00000966B6F1F2207212068FFF727F8A86F74
:103FC000FCF738FE38609249FCF740FFD4F80080D7
:103FD0000296FCF721FACDE9000120220821404693
:103FE000FFF714F80096EB6F212209212068FFF7F4
:103FF0000DF80096D5F8803022220A212068FFF7BC
:1040000005F80096D5F8843023220B212068FEF7AE
:10401000FDFFD5F88800FCF70DFE38607C49FCF701
:1040200015FF27680296FCF7F7F9CDE90001242275
:104030000C213846FEF7EAFF0096D5F88C30252291
:104040000D212068FEF7E2FF0096D5F89030262279
:104050000E212068FEF7DAFF0096D5F8943027226B
:104060000F212068FEF7D2FF0096D5F8983028225D
:1040700010212068FEF7CAFF0096D5F89C3029224F
:1040800011212068FEF7C2FF0096D5F8A0302A2241
:1040900012212068FEF7BAFFD5F8A43020680096F8
:1040A0002B221321FEF7B2FFFFF7FCBB554D574CF7
:1040B0004FF4E273019369230093D5F8E43058225A
:1040C0000D212068FEF7F4FFD5F8E000FCF7B2FD03
:1040D000DFF83491C9F800004D49FCF7B7FE2668B7
:1040E0004FF00108CDF80880FCF796F9CDE9000102
:1040F0000B220C213046FEF789FF092600960A2381
:1041000005220C212068FEF781FF0096D5F8B0301B
:10411000182200212068FEF779FF00270097D5F8C4
:10412000B430192241462068FEF770FF0097D5F899
:10413000B8301A2202212068FEF768FF0097D5F8F0
:10414000BC301B2203212068FEF760FFD5F8C000B9
:10415000FCF770FDC9F800002D49FCF777FED4F894
:1041600000A00296FCF758F9CDE9000120220421B5
:104170005046FEF74BFF0097D5F8C43021220521A9
:104180002068FEF743FF0097D5F8C83022220621A9
:104190002068FEF73BFF0097D5F8CC30232207219B
:1041A0002068FEF733FFD5F8D000FCF743FDC9F8CF
:1041B00000001749FCF74AFE2768CDF80880FCF795
:1041C0002BF9CDE90001282208213846FEF71EFF11
:1041D0000096D5F8D430292231462068FEF716FF24
:1041E0000096D5F8D8302A220A212068FEF70EFF63
:1041F000D5F8DC30206800962B220B21FEF706FF55
:10420000FFF755BB501B00207803002054210020ED
:1042100000002041684DD5F83401FCF70BFD674FD5
:1042200038606749FCF712FE664C26684FF00108BB
:10423000CDF80880FCF7F0F8CDE9000105220B214C
:104240003046FEF7E3FED5F83001FCF7F3FC3860AA
:104250005B49FCF7FBFD2668CDF80880FCF7DCF82D
:10426000CDE900010B220A213046FEF7CFFED5F83A
:104270000801FCF7DFFC3860D4F8009000260296B5
:10428000FCF7CAF8CDE90001182231464846FEF78E
:10429000BDFE0096D5F80C31192241462068FEF784
:1042A000B5FE0096D5F810311A2202212068FEF7DB
:1042B000ADFE0096D5F814311B2203212068FEF7CD
:1042C000A5FED5F82801FCF7B5FC3860D4F80090BD
:1042D0000296FCF7A1F8CDE90001202228214846EA
:1042E000FEF794FE4FF00909CDF80090D5F81C3187
:1042F000222230212068FEF789FECDF80090D5F803
:10430000203123222C212068FEF780FED5F81801E9
:10431000FCF790FC38602A49FCF798FDD4F800A01F
:10432000CDF80880FCF778F8CDE9000124220421BB
:104330005046FEF76BFE0096D5F81C31252205216C
:104340002068FEF763FE0096D5F82031262206216C
:104350002068FEF75BFE0096D5F82431272207215E
:104360002068FEF753FED5F82801FCF763FC38609F
:1043700027680296FCF750F8CDE9000128220821B1
:104380003846FEF743FE4FF4BD730193692600964D
:10439000D5F82831582208212068FEF789FED5F883
:1043A0002C31206840F29F12019200965822494613
:1043B000FEF77EFEFFF780BA501B00207803002036
:1043C00000002041542100207A4DD5F8A001FCF7CF
:1043D00031FC794F38607949FCF738FD784C266814
:1043E0004FF00108CDF80880FCF716F8CDE9000180
:1043F0000B2210213046FEF709FED5F86001FCF7CC
:1044000019FC38606D49FCF721FD2668CDF808805D
:10441000FCF702F8CDE90001182200213046FEF732
:10442000F5FD00260096D5F8643119224146206832
:10443000FEF7ECFD0096D5F868311A2202212068BB
:10444000FEF7E4FD0096D5F86C311B2203212068AD
:10445000FEF7DCFDD5F87001FCF7ECFB386057493E
:10446000FCF7F4FCD4F80090CDF80880FBF7D4FFFB
:10447000CDE900011C2204214846FEF7C7FD009645
:10448000D5F874311D2205212068FEF7BFFD009686
:10449000D5F878311E2206212068FEF7B7FD009678
:1044A000D5F87C311F2207212068FEF7AFFDD5F833
:1044B0008001FCF7BFFB38604049FCF7C7FCD4F82B
:1044C0000090CDF80880FBF7A7FFCDE9000120227E
:1044D00008214846FEF79AFD0096D5F8843121223E
:1044E00009212068FEF792FD0096D5F88831222236
:1044F0000A212068FEF78AFD0096D5F88C31232228
:104500000B212068FEF782FDD5F89001FCF792FBA5
:1045100038602A49FCF79AFC276809260296FBF7BF
:104520007BFFCDE90001242223213846FEF76EFDF2
:104530000096D5F89431252223212068FEF766FDE8
:104540000096D5F89831262223212068FEF75EFDDB
:104550000096D5F89C31272223212068FEF756FDCE
:104560000096D5F89C31282223212068FEF74EFDC5
:104570000096D5F89C31292223212068FEF746FDBC
:104580000096D5F89C312A2223212068FEF73EFDB3
:104590000096D5F89C312B2223212068FEF736FDAA
:1045A000D5F89C31206800962C222321FEF72EFDA1
:1045B000FFF787B9501B002078030020000020413E
:1045C000542100206D4DD5F8E401FCF733FBDFF8F2
:1045D000B881C8F800006A49FCF738FC694C2668C5
:1045E00001270297FBF718FFCDE900010B221146C6
:1045F0003046FEF70BFDD5F8E001FCF71BFBC8F8D1
:104600000000D4F8009000260296FBF705FFCDE9E4
:10461000000113220A214846FEF7F8FC40F233134A
:1046200001934FF06909CDF80090D5F8D8315822A0
:1046300008212068FEF73CFD4FF4BE730193CDF8CE
:104640000090D5F8DC31582209212068FEF730FDB2
:10465000D5F8B801FCF7EEFAC8F800004849FCF7B5
:10466000F5FBD4F800900297FBF7D6FECDE90001E8
:10467000182231464846FEF7C9FC0096D5F8BC31F1
:10468000192239462068FEF7C1FC0096D5F8C031E2
:104690001A2202212068FEF7B9FC0096D5F8C43131
:1046A0001B2203212068FEF7B1FCD5F8C801FCF7F6
:1046B000C1FAC8F800003249FCF7C8FBD4F8008002
:1046C0000297FBF7A9FECDE900011C220421404618
:1046D000FEF79CFC0096D5F8CC311D220521206800
:1046E000FEF794FC0096D5F8D0311E2206212068F2
:1046F000FEF78CFC0096D5F8D4311F2207212068E4
:10470000FEF784FC09260096D5F8D4312022252115
:104710002068FEF77BFC0096D5F8D43121222F21AA
:104720002068FEF773FC0096D5F8D43122222F21A1
:104730002068FEF76BFC0096D5F8D43123222F2198
:104740002068FEF763FC0096D5F8D43124222F218F
:104750002068FEF75BFC0096D5F8D43126222F2185
:104760002068FEF753FCD5F8D43120680096272244
:104770002F21FEF74BFCFFF7A9B800BF501B00200C
:10478000000020415421002078030020744DD5F80A
:104790005072DFF8D8813846FCF74CFAC8F80000B0
:1047A000704C4FF49A730193692600963B46582249
:1047B00010212068FEF77CFC4FF4BE730193009635
:1047C000D5F85432582211212068FEF771FCD5F833
:1047D0001002FCF72FFAC8F800006349FCF736FB1B
:1047E000266801270297FBF717FECDE90001182282
:1047F00000213046FEF70AFC00260096D5F8143258
:10480000192239462068FEF701FC0096D5F81832C7
:104810001A2202212068FEF7F9FB0096D5F81C3217
:104820001B2203212068FEF7F1FBD5F82002FCF7DC
:1048300001FAC8F800004C49FCF708FBD4F80090D6
:104840000297FBF7E9FDCDE900011C22042148464F
:10485000FEF7DCFB0096D5F824321D2205212068E6
:10486000FEF7D4FB0096D5F828321E2206212068D8
:10487000FEF7CCFB0096D5F82C321F2207212068CA
:10488000FEF7C4FBD5F83002FCF7D4F9C8F80000F5
:104890003549FCF7DBFAD4F800900297FBF7BCFD32
:1048A000CDE90001202208214846FEF7AFFB2E4942
:1048B000D8F80000FCF7CAFAD4F800900297FBF78A
:1048C000ABFDCDE900010B2208214846FEF79EFB17
:1048D0000096D5F83432212209212068FEF796FB94
:1048E0000096D5F8383222220A212068FEF78EFB86
:1048F0000096D5F83C3223220B212068FEF786FB78
:10490000D5F84002FCF796F9C8F800001649FCF704
:104910009DFAD4F800800297FBF77EFDCDE90001F7
:1049200024220C214046FEF771FB0096D5F8443254
:1049300025220D212068FEF769FB0096D5F8483244
:1049400026220E212068FEF761FBD5F84C32206844
:10495000009627220F21FEF759FBFEF7BCBF00BFD0
:10496000501B00205421002000002041780300202B
:10497000744CD4F8A802FCF75DF9734F3860734D9E
:104980002E684FF00909CDF80890FBF745FDCDE9F9
:1049900000010B222E213046FEF738FBD4F8AC0282
:1049A000FCF748F938604FF4BE730193692600960E
:1049B000D4F8A832582210212868FEF779FB4FF46A
:1049C0009A7301930096D4F8AC32582211212868CA
:1049D000FEF76EFBD4F86802FCF72CF938605C49EE
:1049E000FCF734FA2E684FF00108CDF80880FBF789
:1049F00013FDCDE90001182200213046FEF706FB29
:104A000000260096D4F86C32192241462868FEF739
:104A1000FDFA0096D4F870321A2202212868FEF7B7
:104A2000F5FA0096D4F874321B2203212868FEF7A9
:104A3000EDFAD4F87802FCF7FDF838604449FCF749
:104A400005FAD5F800A0CDF80880FBF7E5FCCDE924
:104A500000011C2204215046FEF7D8FA0096D4F833
:104A60007C321D2205212868FEF7D0FA0096D4F882
:104A700080321E2206212868FEF7C8FA0096D4F874
:104A800084321F2207212868FEF7C0FAD4F8880272
:104A9000FCF7D0F838602E49FCF7D8F9D5F800A01B
:104AA000CDF80880FBF7B8FCCDE9000120220821F1
:104AB0005046FEF7ABFA0096D4F88C3221224946D4
:104AC0002868FEF7A3FA0096D4F8903222220A2131
:104AD0002868FEF79BFA0096D4F8943223220B2123
:104AE0002868FEF793FAD4F89802FCF7A3F8386028
:104AF0001749FCF7ABF92F68CDF80880FBF78CFC61
:104B0000CDE9000124220C213846FEF77FFA0096F9
:104B1000D4F89C3225220D212868FEF777FA0096FA
:104B2000D4F8A03226220E212868FEF76FFAD4F8B6
:104B3000A4322868009627220F21FEF767FAFEF7B5
:104B4000CFBE00BF501B002078030020542100205E
:104B500000002041BE4ED6F81003FCF76BF8BD4FA5
:104B60003860BD4DD5F8008000240294FBF754FC5A
:104B7000CDE900010B2211214046FEF747FAD6F895
:104B80001403FCF757F83860D5F800800294FBF75F
:104B900043FCCDE90001052212214046FEF736FA1A
:104BA000D6F8C002FCF746F83860D5F800800294C9
:104BB000FBF732FCCDE900012C2221464046FEF7EE
:104BC00025FA0094D6F8C4322D2201212868FEF778
:104BD0001DFA0094D6F8C8322E2202212868FEF76A
:104BE00015FA0094D6F8CC322F2203212868FEF75C
:104BF0000DFAD6F8D002FCF71DF83860D5F8008021
:104C00000294FBF709FCCDE9000130220421404663
:104C1000FEF7FCF9D6F8E002FCF70CF83860D5F89E
:104C200000800294FBF7F8FBCDE900013122082156
:104C30004046FEF7EBF9D5F8008002943868FBF7A0
:104C4000EBFBCDE90001322208214046FEF7DEF9F8
:104C5000D5F8008002943868FBF7DEFBCDE900014F
:104C6000332208214046FEF7D1F90094D6F8E0320D
:104C7000342208212868FEF7C9F9D5F8008002948B
:104C80003868FBF7C9FBCDE9000135220821404611
:104C9000FEF7BCF90094D6F8F03236220C212868D1
:104CA000FEF7B4F90094D6F8F03237220C212868C8
:104CB000FEF7ACF9D6F8F002FBF7BCFF3860D5F888
:104CC00000800294FBF7A8FBCDE9000138220C21FB
:104CD0004046FEF79BF9D5F8008002943868FBF750
:104CE0009BFBCDE9000139220C214046FEF78EF9ED
:104CF000D5F8008002943868FBF78EFBCDE90001FF
:104D00003A220C214046FEF781F9D6F80003FBF762
:104D100091FF38602F680294FBF77EFBCDE900011C
:104D20003B2210213846FEF771F90094D6F8003383
:104D30003C2210212868FEF769F90094D6F8003368
:104D40003D2210212868FEF761F90094D6F800335F
:104D50003E2210212868FEF759F9D6F8003328685A
:104D600000943F221021FEF751F9FEF7FDBD384CAB
:104D7000394D00260096D4F818330B2231462868A6
:104D8000FEF744F90096D4F81C3305220121286867
:104D9000FEF73CF90096D4F8203319220221286846
:104DA000FEF734F90096D4F824331D220321286835
:104DB000FEF72CF90096D4F8283321220421286824
:104DC000FEF724F94FF00908CDF80080D4F8283315
:104DD00025222C212868FEF719F94FF49A730193C4
:104DE00069270097D4F82C33582205212868FEF74C
:104DF0005FF94FF4AC7301930097D4F83033582225
:104E000006212868FEF754F94FF4BE73019300970A
:104E1000D4F83433582207212868FEF749F9009660
:104E2000D4F83833252208212868FEF7EFF82868DF
:104E30000096D4F83C3329224146FEF7E7F8D4F82F
:104E4000F002FBF7F7FE034B1860FEF792BD00BFC0
:104E5000501B00207803002054210020424E434D77
:104E60004FF49A73019369240094D6F820345822A1
:104E700000212868FEF71CF9D6F8243428684FF47E
:104E8000A1720192009458220121FEF711F9FEF758
:104E900075BD374B1B680021009115220120FEF7DC
:104EA000B5F8FEF782BDFDF777FFFEF783BDC0B210
:104EB000FDF7A0FF2F4B1A682F4B1A702F4B186865
:104EC000C8B92F4B1B683F2B1CD82E4A13702E4B92
:104ED0001B78A52B1AD02D4B00221A702B4B1B7858
:104EE0001BB92B4A1370284A13702A4B01221A70DF
:104EF00004B0BDE8F087C0B2FDF79CFF1F4B002255
:104F00001A60DEE71F4B40221A70E0E71E4B5B7809
:104F10005A2BE0D11C4B9B78072BDCD11A4BDB784A
:104F2000812BD8D1184B1B79072BD4D1164B5B7929
:104F3000042BD0D1184B1B780A2BCCD1134B012258
:104F40001A70114B00221A709979FF29C6D0DA79AC
:104F500002EB012211490A601A7A5B7A43EA0223C2
:104F60000F4A1360BAE77047501B002054210020FD
:104F7000880D0020882300207C030020A80D00203D
:104F80004400002040000020180A0020100A0020E1
:104F9000250000202400002074030020340A002093
:104FA0008808002070470020704700002DE9F04F6E
:104FB00000200AE000EB4002D100064A0A4400212A
:104FC000D1540133172BF5DD0130832804DC002395
:104FD000F8E700BF580E0020D94BC8221A60D94B01
:104FE0001A60D94B1A60D94B1A60D94B1A6000214C
:104FF000D84B1960D84B1960D84B1960D84B40F288
:105000004C521A60D74B40F26F621A60D64B40F296
:1050100056421A60D54B19600124D54B1C60D54B04
:105020004FF4E1721A604FF49670D34B1860D34B73
:10503000C8221A60D24B1960596050229A604FF012
:105040003C08C3F80C801961586128269E6129220A
:10505000DA61C3F8208064225A621E259D621F22F5
:10506000DA62196359639E63DD6319645A229A6494
:10507000DA6441225A64C34A41F65E7CC2F81CC01D
:105080004FF00A0EC2F820E019659965D9651D66D2
:10509000C3F864809966D9661E675E6799674FF0AA
:1050A0004609C3F87C904FF0320CC3F880C0C3F8B7
:1050B00084C0C3F88810C3F88C00C3F89060C3F8AC
:1050C0009480C3F898104FF4C870C3F89C00C3F8DC
:1050D000A0504FF0190AC3F8A4A0C3F8A81050209C
:1050E0005062C2F828A0C820D0621563C2F834907C
:1050F0004FF4FA7090632320D063142010644FF4AF
:105100002F775764C3F8B010C3F8B4E0C3F8B860A1
:10511000C3F8BCA0C3F8C010C827C3F8C470C3F854
:10512000C860C3F8CCA0C3F8D0E0C3F8D410C3F86B
:10513000D810C3F8DC10C3F8E010C3F8E41015274A
:105140009764D764C2F850C04FF0160AC2F854A052
:10515000C2F858A04FF4487AC2F85CA010664FF02D
:10516000050AC2F864A091664FF4167BC3F808B133
:105170004FF08D0BC3F80CB14FF0630BC3F810B1B7
:10518000C3F814B1C3F818414FF08E0BC3F81CB12B
:10519000C3F82051C3F82451C3F82811C3F82C4197
:1051A000C3F83011C3F834114FF0170BC2F86CB0CC
:1051B000C2F870B0C2F874804FF0180BC2F878B023
:1051C000C2F87CB0C2F880B0C2F884C0C2F888A02F
:1051D000C2F88C40C3F86001C3F864C1C3F8689199
:1051E000C3F86C91C3F87001C3F87461C3F8788197
:1051F000C3F87C81C3F88051C3F88411C3F88811C7
:10520000C3F88C11C3F89011C3F89411C3F8981126
:10521000C3F89C11C3F8A01140F6D63BC2F890B079
:10522000C2F89450C827C2F8987040F6DD1BC2F847
:105230009CB0C2F8A00040F2E47BC2F8A4B0C2F86F
:10524000A800C2F8ACE0C2F8B000C3F8B801C3F8D7
:10525000BC11C3F8C0511F27C3F8C471C3F8C801FB
:10526000C3F8CC11C3F8D0011527C3F8D471C3F823
:10527000D811C3F8DC11C3F8E0E10327C3F8E471E7
:105280004FF00F0BC2F8B4B0C2F8B8B0C2F8BCA06F
:105290004FF0100BC2F8C0B0C2F8C4B0C2F8C800DA
:1052A0004FF0020BC2F8CCB0C2F8D0B0C2F8D44074
:1052B000C3F81002C3F81412C3F818622927C3F800
:1052C0001C72C3F82002C3F82412C3F828521F2707
:1052D000C3F82C720327C3F83072C3F83412C3F832
:1052E0003812C3F83C12C3F84012C3F84412C3F892
:1052F0004812C3F84C12C3F85012C3F854121127C5
:10530000C2F8D870C2F8DC70C2F8E0B04FF0120BEF
:10531000C2F8E4B0C2F8E8B0C2F8EC00C2F8F0A0FD
:10532000C2F8F440C2F8F840C3F86802C3F86C123F
:10533000C3F870521F27C3F87472C3F8780223E0D1
:10534000F0230020B82300204C0D00202C0C00205E
:10535000E0230020E8230020D81A0020440C00207D
:105360005C210020001B0020980D0020E423002079
:10537000A00D002050000020580000205400002004
:10538000501B002060210020C3F87C12C3F880620B
:105390002927C3F88472C3F88812C3F88C12C3F8A3
:1053A00090824FF03D08C3F89482C3F89812C3F876
:1053B0009C12C3F8A0C24FF03308C3F8A482C3F80C
:1053C000A812C3F8AC124FF01308C2F8FC80C2F860
:1053D0000081C2F804E1C2F808E1C2F80CE14FF024
:1053E0000B0EC2F810E1C2F814E1C2F818A1C2F81D
:1053F0001C414FF0D20EC3F8C0E24FF0D70EC3F8F5
:10540000C4E24FF0CD0EC3F8C8E24FF0C30EC3F8AC
:10541000CCE2C3F8D092C3F8D492C3F8D862C3F8F0
:10542000DC12C3F8E092C3F8E412C3F8E812C3F840
:10543000EC12C3F8F062C3F8F412C3F8F812C3F820
:10544000FC126426C3F80063C3F80413C3F80813FE
:10545000C3F80C13C3F810139626C2F82061C2F8E3
:105460002461C2F82861C2F82C61C2F8306150266C
:10547000C2F83461C2F83861C2F83C516425C2F800
:105480004051C3F818C3C3F81C03C3F820134FF4EA
:10549000FA65C3F824534FF47A75C3F82853C3F858
:1054A0002C43C3F83043C3F83443C2F844C1C82680
:1054B000C2F84861C2F84C01C2F8505147F230506E
:1054C000C2F854014FF4FA70C2F8580141F27070FA
:1054D000C2F85C01C2F86011C2F86441C3F87013ED
:1054E000C3F87443C3F87813C3F87C13C3F880136C
:1054F000C3F888134FF4FA72C3F88C234FF42F7259
:10550000C3F88423BDE8F08F10B4A84B9A686421D7
:10551000D86801FB0200A64A10609869DC6901FBAB
:105520000040506058699060586AD060986A106175
:10553000986CDC6C01FB00405061586C90614FF43A
:105540008B60D061D3F880005062D3F88400906201
:10555000D86FD062D3F890001063D3F894005063F2
:10556000D3F88C009063D3F8A000D063D3F8A400E4
:105570001064D3F89C005064D3F8B8009064D3F85A
:10558000BC00D064D3F8B4001065D3F8C8009065AF
:10559000D3F8CC005065D3F8C400D065D3F8D00060
:1055A0001066D3F8E401834CA4FB0040C0085066A9
:1055B000D3F8E4009066D3F81001D066D3F8140154
:1055C0001067D3F80C015067D3F808019067D3F83F
:1055D0002001D067D3F82401C2F88000D3F81C0161
:1055E000C2F88400D3F83401C2F88800D3F82C0143
:1055F000C2F88C00D3F86801D3F86C4101FB00407D
:10560000C2F89000D3F86001C2F89400D3F86401A6
:10561000C2F89800D3F87001C2F8A000D3F878015E
:10562000D3F87C4101FB0040C2F89C00D3F8800114
:10563000C2F8A800D3F88801D3F88C4101FB0041DF
:10564000C2F8A410D3F8A011C2F8AC10D3F87411AA
:10565000C2F8B010D3F8C011C2F8B410D3F8C41116
:10566000C2F8B810D3F8B811C2F8BC10D3F8D011F2
:10567000C2F8C010D3F8D411C2F8C410D3F8C811BE
:10568000C2F8C810D3F8DC11C2F8CC10D3F8E0117E
:10569000C2F8D010D3F8D811C2F8D410D3F8181229
:1056A000C2F8D810D3F81C12C2F8DC10D3F81012CC
:1056B000C2F8E010D3F82812C2F8E410D3F82C1284
:1056C000C2F8E810D3F82012C2F8EC10D3F8301268
:1056D000C2F8F010D3F85012C2F8F410D3F85412F4
:1056E000C2F8F810D3F87012C2F8FC10D3F8741294
:1056F000C2F80011D3F86812C2F80411996BC2F80D
:105700000811D96BC2F80C11196FC2F81011596F3A
:10571000C2F814110121C2F81811D3F8AC12C2F862
:105720001C11D3F8C012C2F82011D3F8C412C2F869
:105730002411D3F8C812C2F82811D3F8CC12C2F839
:105740002C11D3F8D012C2F83011D3F8E012C2F8FD
:105750003411D3F8F012C2F83811D3F80013C2F89C
:105760003C11D3F81813C2F84411D3F81C13C2F833
:105770004811D3F82013C2F84C11D3F82413C2F8FF
:1057800050115E21C2F854115F21C2F858114FF434
:105790001651C2F85C11D3F83413C2F86011D3F873
:1057A0003033C2F8643110BC704700BF501B00207A
:1057B00060210020CDCCCCCC8C4B1B68022B1BD0A5
:1057C000032B00F08E80042B00F01481052B00F0D9
:1057D0007E81062B00F0B781072B00F04782082B53
:1057E00000F08282092B00F0F5820A2B00F06A8318
:1057F0000B2B00F0728470477D4A5268B2F57A7FB5
:1058000003D37B4A40F2E7315160794A5269B2F5DD
:105810007A7F03D3764A40F2E7315161744A526A83
:10582000B2F57A7F03D3724A40F2E7315162704A8F
:10583000526BB2F57A7F03D36D4A40F2E731516380
:105840006B4A526CB2F57A7F03D3694A40F2E73172
:105850005164674A9268632A02D9654A632191605C
:10586000634AD268632A02D9614A6321D160604ADF
:105870009269632A02D95E4A632191615C4AD269C6
:10588000632A02D95A4A6321D161594A926A632A2A
:1058900002D9574A63219162554AD26A632A02D9D2
:1058A000534A6321D162524A926B632A02D9504A09
:1058B000632191634E4AD26B632A02D94C4A632119
:1058C000D1634B4A926C632A02D9494A632191649D
:1058D000474AD26C632A7FF673AF454A6321D1648D
:1058E0006EE7434AD26DB2F57A7F03D3404A40F265
:1058F000E731D1653E4AD26EB2F57A7F03D33C4A96
:1059000040F2E731D1663A4AD26FB2F57A7F03D3DB
:10591000374A40F2E731D167354AD2F88C20B2F5E8
:105920007A7F04D3324A40F2E731C2F88C10304A11
:10593000D2F89C20B2F57A7F04D32D4A40F2E731A9
:10594000C2F89C102A4A126E632A02D9284A63219F
:105950001166274A526E632A02D9254A632151668D
:10596000234A126F632A02D9214A63211167204A10
:10597000526F632A02D91E4A632151671C4AD2F82A
:105980008020632A03D91A4A6321C2F88010184A7A
:10599000D2F88420632A03D9154A6321C2F88410FF
:1059A000134AD2F89020632A03D9114A6321C2F81E
:1059B00090100F4AD2F89420632A03D90C4A63212D
:1059C000C2F894100A4AD2F8A020632A03D9084AE0
:1059D0006321C2F8A010064AD2F8A420632A7FF6F9
:1059E000F2AE034A6321C2F8A410ECE6882300203B
:1059F000501B0020BB4AD2F8B420B2F57A7F04D302
:105A0000B84A40F2E731C2F8B410B64AD2F8C4201E
:105A1000B2F57A7F04D3B34A40F2E731C2F8C4103A
:105A2000B04AD2F8D420B2F57A7F04D3AD4A40F21E
:105A3000E731C2F8D410AB4AD2F8B820632A03D9B0
:105A4000A84A6321C2F8B810A64AD2F8BC20632A3B
:105A500003D9A44A6321C2F8BC10A24AD2F8C820D4
:105A6000632A03D99F4A6321C2F8C8109D4AD2F81D
:105A7000CC20632A03D99B4A6321C2F8CC10994AEF
:105A8000D2F8D820632A03D9964A6321C2F8D810E5
:105A9000944AD2F8DC20632A03D9924A6321C2F8DF
:105AA000DC10904AD2F8E020B2F57A7F04D38D4A18
:105AB00040F2E731C2F8E0108A4AD2F8E420012A25
:105AC0007FF684AE874A0121C2F8E4107EE6854A5B
:105AD000D2F80C21B2F57A7F04D3824A40F2E73142
