:020000040800F2
:100000000050002009A9000879A800087BA8000872
:100010007DA800087FA8000881A800080000000053
:1000200000000000000000000000000083A800089D
:1000300085A800080000000087A8000889A800081B
:1000400051A9000851A9000851A9000851A90008A8
:1000500051A9000851A9000851A9000851A9000898
:1000600051A9000851A9000851A9000851A9000888
:1000700051A9000851A9000851A9000851A9000878
:1000800051A9000851A9000851A9000851A9000868
:1000900051A9000851A9000851A9000851A9000858
:1000A00051A90008C189000851A9000895A80008B5
:1000B000AD89000851A9000851A9000851A90008FC
:1000C00051A9000851A9000851A9000851A9000828
:1000D00051A9000821850008A57A0008ADA80008EC
:1000E00051A9000851A9000851A90008000000000A
:1000F0000000000000000000000000000000000000
:0C01000000000000000000005FF808F1A3
:1001100010B5054C237833B9044B13B10448AFF341
:1001200000800123237010BDF802002000000000B1
:100130004CDD000808B5034B1BB103490348AFF37E
:10014000008008BD00000000FC0200204CDD00081B
:1001500081F0004102E000BF83F0004330B54FEA78
:1001600041044FEA430594EA050F08BF90EA020FE5
:100170001FBF54EA000C55EA020C7FEA645C7FEA78
:10018000655C00F0E2804FEA5454D4EB5555B8BF9B
:100190006D420CDD2C4480EA020281EA030382EA0C
:1001A000000083EA010180EA020281EA0303362D9E
:1001B00088BF30BD11F0004F4FEA01314FF4801C71
:1001C0004CEA113102D0404261EB410113F0004F83
:1001D0004FEA03334CEA133302D0524263EB43033A
:1001E00094EA050F00F0A780A4F10104D5F1200ED8
:1001F0000DDB02FA0EFC22FA05F2801841F1000133
:1002000003FA0EF2801843FA05F359410EE0A5F106
:1002100020050EF1200E012A03FA0EFC28BF4CF037
:10022000020C43FA05F3C01851EBE37101F00045ED
:1002300007D54FF0000EDCF1000C7EEB00006EEBFA
:100240000101B1F5801F1BD3B1F5001F0CD3490884
:100250005FEA30004FEA3C0C04F101044FEA4452DB
:1002600012F5800F80F09A80BCF1004F08BF5FEA62
:10027000500C50F1000041EB045141EA050130BD42
:100280005FEA4C0C404141EB010111F4801FA4F1E5
:100290000104E9D191F0000F04BF01460020B1FA3A
:1002A00081F308BF2033A3F10B03B3F120020CDA72
:1002B0000C3208DD02F1140CC2F10C0201FA0CF050
:1002C00021FA02F10CE002F11402D8BFC2F1200CB5
:1002D00001FA02F120FA0CFCDCBF41EA0C0190406B
:1002E000E41AA2BF01EB0451294330BD6FEA0404B4
:1002F0001F3C1CDA0C340EDC04F11404C4F120029F
:1003000020FA04F001FA02F340EA030021FA04F3B0
:1003100045EA030130BDC4F10C04C4F1200220FA07
:1003200002F001FA04F340EA0300294630BD21FA45
:1003300004F0294630BD94F0000F83F4801306BF0B
:1003400081F480110134013D4EE77FEA645C18BFFF
:100350007FEA655C29D094EA050F08BF90EA020F96
:1003600005D054EA000C04BF1946104630BD91EA8E
:10037000030F1EBF0021002030BD5FEA545C05D191
:100380004000494128BF41F0004130BD14F58004D0
:100390003CBF01F5801130BD01F0004545F0FE4144
:1003A00041F470014FF0000030BD7FEA645C1ABF79
:1003B000194610467FEA655C1CBF0B46024650EAB0
:1003C000013406BF52EA033591EA030F41F40021DC
:1003D00030BD00BF90F0000F04BF0021704730B562
:1003E0004FF4806404F132044FF000054FF0000137
:1003F00050E700BF90F0000F04BF0021704730B5F8
:100400004FF4806404F1320410F0004548BF4042CC
:100410004FF000013EE700BF42004FEAE2014FEA21
:1004200031014FEA02701FBF12F07F4393F07F4FFC
:1004300081F06051704732F07F4208BF704793F0FF
:100440007F4F04BF41F40021704730B54FF4607412
:1004500001F0004521F000411CE700BF50EA010215
:1004600008BF704730B54FF000050AE050EA0102BE
:1004700008BF704730B511F0004502D5404261EB2E
:1004800041014FF4806404F132045FEA915C3FF46F
:10049000D8AE4FF003025FEADC0C18BF03325FEA0C
:1004A000DC0C18BF033202EBDC02C2F1200300FABD
:1004B00003FC20FA02F001FA03FE40EA0E0021FAE2
:1004C00002F11444BDE600BF70B54FF0FF0C4CF4D0
:1004D000E06C1CEA11541DBF1CEA135594EA0C0F82
:1004E00095EA0C0F00F0DEF82C4481EA030621EABD
:1004F0004C5123EA4C5350EA013518BF52EA0335F8
:1005000041F4801143F4801338D0A0FB02CE4FF0A9
:100510000005E1FB02E506F00042E0FB03E54FF0D9
:100520000006E1FB03569CF0000F18BF4EF0010ED1
:10053000A4F1FF04B6F5007F64F5407404D25FEACD
:100540004E0E6D4146EB060642EAC62141EA555180
:100550004FEAC52040EA5E504FEACE2EB4F1FD0CC2
:1005600088BFBCF5E06F1ED8BEF1004F08BF5FEA40
:10057000500E50F1000041EB045170BD06F00046F2
:1005800046EA010140EA020081EA0301B4EB5C049F
:10059000C2BFD4EB0C0541EA045170BD41F4801197
:1005A0004FF0000E013C00F3AB8014F1360FDEBFBC
:1005B000002001F0004170BDC4F10004203C35DA98
:1005C0000C341BDC04F11404C4F1200500FA05F31B
:1005D00020FA04F001FA05F240EA020001F00042BC
:1005E00021F0004110EBD37021FA04F642EB060132
:1005F0005EEA430E08BF20EAD37070BDC4F10C045C
:10060000C4F1200500FA04F320FA05F001FA04F21F
:1006100040EA020001F0004110EBD37041F100010B
:100620005EEA430E08BF20EAD37070BDC4F1200516
:1006300000FA05F24EEA020E20FA04F301FA05F27E
:1006400043EA020321FA04F001F0004121FA04F226
:1006500020EA020000EBD3705EEA430E08BF20EAF6
:10066000D37070BD94F0000F0FD101F00046400030
:1006700041EB010111F4801F08BF013CF7D041EAB2
:10068000060195F0000F18BF704703F000465200B6
:1006900043EB030313F4801F08BF013DF7D043EA87
:1006A0000603704794EA0C0F0CEA135518BF95EA3D
:1006B0000C0F0CD050EA410618BF52EA4306D1D1C4
:1006C00081EA030101F000414FF0000070BD50EAE3
:1006D000410606BF1046194652EA430619D094EA6D
:1006E0000C0F02D150EA013613D195EA0C0F05D157
:1006F00052EA03361CBF104619460AD181EA0301AB
:1007000001F0004141F0FE4141F470014FF0000062
:1007100070BD41F0FE4141F4780170BD70B54FF0FD
:10072000FF0C4CF4E06C1CEA11541DBF1CEA13557D
:1007300094EA0C0F95EA0C0F00F0A7F8A4EB05045F
:1007400081EA030E52EA03354FEA013100F0888056
:100750004FEA03334FF0805545EA131343EA12631F
:100760004FEA022245EA111545EA10654FEA0026D4
:100770000EF000419D4208BF964244F1FD0404F58D
:10078000407402D25B084FEA3202B61A65EB0305E9
:100790005B084FEA32024FF480104FF4002CB6EBA6
:1007A000020E75EB030E22BFB61A754640EA0C0026
:1007B0005B084FEA3202B6EB020E75EB030E22BF66
:1007C000B61A754640EA5C005B084FEA3202B6EBA7
:1007D000020E75EB030E22BFB61A754640EA9C0066
:1007E0005B084FEA3202B6EB020E75EB030E22BF36
:1007F000B61A754640EADC0055EA060E18D04FEAF4
:10080000051545EA16754FEA06164FEAC30343EA93
:1008100052734FEAC2025FEA1C1CC0D111F4801F60
:100820000BD141EA00014FF000004FF0004CB6E759
:1008300011F4801F04BF01430020B4F1FD0C88BFF8
:10084000BCF5E06F3FF6AFAEB5EB030C04BFB6EB03
:10085000020C5FEA500C50F1000041EB045170BDF6
:100860000EF0004E4EEA113114EB5C04C2BFD4EB23
:100870000C0541EA045170BD41F480114FF0000EA7
:10088000013C90E645EA060E8DE60CEA135594EA23
:100890000C0F08BF95EA0C0F3FF43BAF94EA0C0F26
:1008A0000AD150EA01347FF434AF95EA0C0F7FF49B
:1008B00025AF104619462CE795EA0C0F06D152EAEF
:1008C00003353FF4FDAE1046194622E750EA4106D3
:1008D00018BF52EA43067FF4C5AE50EA41047FF4E4
:1008E0000DAF52EA43057FF4EBAE12E74FF0FF3C49
:1008F00006E000BF4FF0010C02E000BF4FF0010C1A
:100900004DF804CD4FEA410C7FEA6C5C4FEA430C92
:1009100018BF7FEA6C5C1BD001B050EA410C0CBFE1
:1009200052EA430C91EA030F02BF90EA020F002043
:10093000704710F1000F91EA030F58BF994208BFAA
:1009400090422CBFD8176FEAE37040F00100704767
:100950004FEA410C7FEA6C5C02D150EA013C07D1BE
:100960004FEA430C7FEA6C5CD6D152EA033CD3D009
:100970005DF8040B704700BF8446104662468C4603
:100980001946634600E000BF01B5FFF7B7FF002836
:1009900048BF10F1000F01BD4DF808EDFFF7F4FF5F
:1009A0000CBF012000205DF808FB00BF4DF808EDEA
:1009B000FFF7EAFF34BF012000205DF808FB00BF0D
:1009C0004DF808EDFFF7E0FF94BF012000205DF82F
:1009D00008FB00BF4DF808EDFFF7CEFF94BF0120E4
:1009E00000205DF808FB00BF4DF808EDFFF7C4FFDD
:1009F00034BF012000205DF808FB00BF4FEA410C26
:100A00007FEA6C5C02D150EA013C0AD14FEA430C08
:100A10007FEA6C5C02D152EA033C02D14FF0000045
:100A200070474FF0010070474FEA4102B2F1E043D6
:100A300024BFB3F5001CDCF1FE5C0DD901F0004CC5
:100A40004FEAC0024CEA5070B2F1004F40EB830015
:100A500008BF20F00100704711F0804F21D113F141
:100A60003872BCBF01F00040704741F480114FEA7A
:100A70005252C2F11802C2F1200C10FA0CF320FA03
:100A800002F018BF40F001004FEAC1234FEAD32320
:100A900003FA0CFC40EA0C0023FA02F34FEA43038A
:100AA000CCE77FEA625307D150EA01331EBF4FF013
:100AB000FE4040F44000704701F0004040F0FE402E
:100AC00040F40000704700BF80F0004002E000BF2B
:100AD00081F0004142001FBF5FEA410392EA030F29
:100AE0007FEA226C7FEA236C6AD04FEA1262D2EB73
:100AF0001363C1BFD218414048404140B8BF5B4278
:100B0000192B88BF704710F0004F40F4000020F010
:100B10007F4018BF404211F0004F41F4000121F026
:100B20007F4118BF494292EA030F3FD0A2F1010270
:100B300041FA03FC10EB0C00C3F1200301FA03F1AE
:100B400000F0004302D5494260EB4000B0F5000FD1
:100B500013D3B0F1807F06D340084FEA310102F190
:100B60000102FE2A51D2B1F1004F40EBC25008BF42
:100B700020F0010040EA03007047490040EB00000C
:100B800010F4000FA2F10102EDD1B0FA80FCACF13B
:100B9000080CB2EB0C0200FA0CF0AABF00EBC2503A
:100BA00052421843BCBFD0401843704792F0000F28
:100BB00081F4000106BF80F400000132013BB5E77B
:100BC0004FEA41037FEA226C18BF7FEA236C21D0F1
:100BD00092EA030F04D092F0000F08BF0846704756
:100BE00090EA010F1CBF0020704712F07F4F04D124
:100BF000400028BF40F00040704712F100723CBF37
:100C000000F50000704700F0004343F0FE4040F460
:100C1000000070477FEA226216BF08467FEA23631E
:100C20000146420206BF5FEA412390EA010F40F409
:100C3000800070474FF0000304E000BF10F0004355
:100C400048BF40425FEA000C08BF704743F096433C
:100C500001464FF000001CE050EA010208BF704757
:100C60004FF000030AE000BF50EA010208BF7047DE
:100C700011F0004302D5404261EB41015FEA010CF3
:100C800002BF84460146002043F0B64308BFA3F1EB
:100C90008053A3F50003BCFA8CF2083AA3EBC253CD
:100CA00010DB01FA02FC634400FA02FCC2F12002EC
:100CB000BCF1004F20FA02F243EB020008BF20F023
:100CC0000100704702F1200201FA02FCC2F1200289
:100CD00050EA4C0021FA02F243EB020008BF20EA7E
:100CE000DC7070474FF0FF0C1CEAD0521EBF1CEAAC
:100CF000D15392EA0C0F93EA0C0F6FD01A4480EA9A
:100D0000010C400218BF5FEA41211ED04FF0006382
:100D100043EA501043EA5111A0FB01310CF00040AE
:100D2000B1F5000F3EBF490041EAD3715B0040EAD4
:100D3000010062F17F02FD2A1DD8B3F1004F40EBA4
:100D4000C25008BF20F00100704790F0000F0CF077
:100D5000004C08BF49024CEA502040EA51207F3A3B
:100D6000C2BFD2F1FF0340EAC250704740F4000016
:100D70004FF00003013A5DDC12F1190FDCBF00F007
:100D800000407047C2F10002410021FA02F1C2F1B5
:100D9000200200FA02FC5FEA310040F1000053EA51
:100DA0004C0308BF20EADC70704792F0000F00F09F
:100DB000004C02BF400010F4000F013AF9D040EAA5
:100DC0000C0093F0000F01F0004C02BF490011F439
:100DD000000F013BF9D041EA0C018FE70CEAD15337
:100DE00092EA0C0F18BF93EA0C0F0AD030F0004CB7
:100DF00018BF31F0004CD8D180EA010000F000406B
:100E0000704790F0000F17BF90F0004F084691F028
:100E1000000F91F0004F14D092EA0C0F01D1420262
:100E20000FD193EA0C0F03D14B0218BF084608D12B
:100E300080EA010000F0004040F0FE4040F4000075
:100E4000704740F0FE4040F4400070474FF0FF0C08
:100E50001CEAD0521EBF1CEAD15392EA0C0F93EA4F
:100E60000C0F69D0A2EB030280EA010C49024FEAA1
:100E7000402037D04FF0805343EA111143EA10135A
:100E80000CF000408B4238BF5B0042F17D024FF412
:100E9000000C8B4224BF5B1A40EA0C00B3EB510FED
:100EA00024BFA3EB510340EA5C00B3EB910F24BFD6
:100EB000A3EB910340EA9C00B3EBD10F24BFA3EB5B
:100EC000D10340EADC001B0118BF5FEA1C1CE0D123
:100ED000FD2A3FF650AF8B4240EBC25008BF20F0D6
:100EE000010070470CF0004C4CEA50207F32C2BF2A
:100EF000D2F1FF0340EAC250704740F400004FF0C7
:100F00000003013A37E792F0000F00F0004C02BFF7
:100F1000400010F4000F013AF9D040EA0C0093F0C1
:100F2000000F01F0004C02BF490011F4000F013B1B
:100F3000F9D041EA0C0195E70CEAD15392EA0C0F83
:100F400008D142027FF47DAF93EA0C0F7FF470AFBB
:100F5000084676E793EA0C0F04D14B023FF44CAFFE
:100F600008466EE730F0004C18BF31F0004CCAD193
:100F700030F000427FF45CAF31F000437FF43CAFCF
:100F80005FE700BF4FF0FF3C06E000BF4FF0010CF1
:100F900002E000BF4FF0010C4DF804CD4FEA4002D3
:100FA0004FEA41037FEA226C18BF7FEA236C11D01D
:100FB00001B052EA530C18BF90EA010F58BFB2EBD0
:100FC000030088BFC81738BF6FEAE17018BF40F050
:100FD000010070477FEA226C02D15FEA402C05D104
:100FE0007FEA236CE4D15FEA412CE1D05DF8040B89
:100FF000704700BF844608466146FFE70FB5FFF71C
:10100000C9FF002848BF10F1000F0FBD4DF808EDD3
:10101000FFF7F4FF0CBF012000205DF808FB00BFC4
:101020004DF808EDFFF7EAFF34BF012000205DF81E
:1010300008FB00BF4DF808EDFFF7E0FF94BF01206B
:1010400000205DF808FB00BF4DF808EDFFF7D2FF68
:1010500094BF012000205DF808FB00BF4DF808EDAB
:10106000FFF7C8FF34BF012000205DF808FB00BF78
:101070004FEA4002B2F1FE4F0FD34FF09E03B3EBA5
:1010800012620DD94FEA002343F0004310F0004FE5
:1010900023FA02F018BF404270474FF0000070473B
:1010A00012F1610F01D1420205D110F0004008BFDA
:1010B0006FF0004070474FF00000704742000ED2C2
:1010C000B2F1FE4F0BD34FF09E03B3EB126209D483
:1010D0004FEA002343F0004323FA02F070474FF039
:1010E0000000704712F1610F01D1420202D14FF0AE
:1010F000FF3070474FF00000704700BF10F8012B21
:1011000011F8013B012A28BF9A42F7D0D01A704744
:10111000034613F8012B002AFBD1181A0138704737
:101120004FEA410212F5001215D211D56FF478730F
:10113000B3EB625212D94FEAC12343F0004343EAB2
:10114000505311F0004F23FA02F018BF404270478D
:101150004FF00000704750EA013005D111F0004017
:1011600008BF6FF0004070474FF00000704700BFAD
:1011700010B504460E4B18784FF47A73B3FBF0F3B6
:101180000C4A1068B0FBF3F000F0A0F868B90F2C1F
:1011900001D901200AE0002221464FF0FF3000F083
:1011A00055F8034B5C60002000E0012010BD00BF3B
:1011B000000000202001002008B5074A136843F012
:1011C00010031360032000F02FF80020FFF7D0FF7A
:1011D00009F0E2F9002008BD00200240034A11682E
:1011E000034B1B780B441360704700BF4C03002077
:1011F00000000020014B1868704700BF4C0300201E
:1012000038B50446FFF7F6FF0546B4F1FF3F02D0BC
:10121000044B1B781C44FFF7EDFF401BA042FAD3A0
:1012200038BD00BF00000020074AD36823F4E06304
:101230001B041B0C000200F4E060184340F0BF6088
:1012400040F40030D060704700ED00E030B4174B40
:10125000DB68C3F30223C3F10704042C28BF042472
:101260001D1D062D18D9033B4FF0FF3505FA04F478
:1012700021EA0401994005FA03F322EA0303194322
:1012800000280BDB0901C9B200F1604000F56140A4
:1012900080F8001330BC70470023E5E700F00F0032
:1012A0000901C9B2024B1954F4E700BF00ED00E098
:1012B00014ED00E000F01F02400901239340024AB0
:1012C00042F82030704700BF00E100E00138B0F183
:1012D000807F0AD2064B5860064AF02182F823101C
:1012E0000020986007221A6070470120704700BFF5
:1012F00010E000E000ED00E0042805D0054A136886
:1013000023F0040313607047024A136843F0040398
:101310001360704710E000E0704708B5FFF7FCFF6E
:1013200008BD000008B590F82130022B03D004233B
:101330008363012008BD0268136823F00E03136065
:101340000268136823F0010313600368194A93428B
:1013500014D0143293421FD0143293421ED0143250
:1013600093421ED0143293421ED01432934202D0C4
:101370004FF0807203E04FF4801200E001220E4B28
:101380005A60012380F82130002380F82030436B1D
:101390006BB198470020CDE71022F0E74FF4807240
:1013A000EDE74FF48052EAE74FF48032E7E70020A0
:1013B000C0E700BF0800024000000240044B0022CA
:1013C000DA61044A136943F0010313610180704735
:1013D00070030020002002401A4BDB6813F0100F4E
:1013E00027D0194AD36943F00203D3611023154A69
:1013F000D26812F0040F06D01349CA6942F0010204
:10140000CA6143F004030F4AD26912F0010F09D0F8
:101410000D49CA6942F00402CA610A49CA6922F048
:101420000102CA6140F20112934204D0054AD3601E
:1014300070470023DBE7034AD36923F00103D3613C
:10144000704700BF00200240700300200A4B1B6958
:1014500013F0800F0DD0084B084A5A6002F1883211
:101460005A601B6913F0800F01D0012070470020E3
:1014700070470020704700BF0020024023016745ED
:10148000034A136943F0800313610020704700BFD3
:101490000020024038B50446FFF7ACFE0546174B66
:1014A000DB6813F0010F0AD0B4F1FF3FF7D00CB3A3
:1014B000FFF7A0FE401BA042F1D9032019E00F4B1B
:1014C000DB6813F0200F02D00C4B2022DA600B4BAC
:1014D000DB6813F0100F09D1084BDB6913F0010F23
:1014E00004D1064BDB6813F0040F05D0FFF774FF3F
:1014F000012038BD0320FCE70020FAE7002002406D
:101500002DE9F843234C247E012C41D01E46904601
:101510000F4604461F4B01221A764CF25030FFF75B
:10152000B9FF034670BB012C29D0022C24D04FF008
:10153000040900244C4525D22101C1F12002A1F16A
:10154000200328FA01F106FA02F2114326FA03F306
:10155000194389B207EB4400FFF730FF4CF25030DB
:10156000FFF798FF0C4B1D6925F001051D6103462F
:1015700040B90134E4B2DDE74FF00209D9E74FF09A
:101580000109D6E7034A002111761846BDE8F88321
:101590000223FAE77003002000200240064B0022DD
:1015A000DA61064B1A6942F002021A6158611A693F
:1015B00042F040021A617047700300200020024090
:1015C000F0B482B000263546A1E0002C59D0012CA1
:1015D00000D1CE68FF2B68D88446FF2B68D8AC00BA
:1015E000DCF800200F27A74022EA070206FA04F4DD
:1015F0002243CCF800204A6812F0805F00F0868019
:101600005E4A946944F001049461926902F0010217
:101610000192019AAC08A71C594A52F8272005F0FC
:101620000307BF004FF00F0C0CFA07FC22EA0C0C6A
:10163000544A904242D002F5806290427FD002F537
:10164000806290427DD002F58062904234D00422C4
:1016500035E04D4FBC4214D00BD94C4FBC4210D09A
:1016600007F58037BC420CD0A7F58017BC42B1D13A
:1016700007E0A7F58017BC4203D007F58037BC42CE
:10168000A8D18C687CB1012C08D042610826A1E762
:10169000CE6808369EE7CE680C369BE702610826C6
:1016A00098E7002696E7042694E700F1040C94E7F7
:1016B000A5F10804A40093E7032200E00022BA4049
:1016C00042EA0C0202342E4F47F824204A6812F4F2
:1016D000803F38D02E4C22681A4322604A6812F4A8
:1016E000003F36D02A4C62681A4362604A6812F49E
:1016F000801F34D0264CA2681A43A2604A6812F4B4
:10170000001F32D0224CE2681343E36001350F2DF5
:1017100031D80122AA400B6813409A42F6D14C6896
:10172000122CB8D095D8022CB2D07FF64EAF032C35
:10173000B7D0112C7FF44EAFCE6804364AE70122B1
:10174000BDE70222BBE7124C226822EA03022260B4
:10175000C4E70F4C626822EA03026260C6E70C4CE1
:10176000A26822EA0302A260C8E7094CE26822EA02
:101770000303E360CAE702B0F0BC70470010024008
:10178000000001400008014000002110000031105D
:10179000000401408368194201D1002070470120F4
:1017A000704712B909040161704701617047000078
:1017B00082B0084B1B68084AA2FB03235B0A00FBAC
:1017C00003F0019000BF019B5A1E0192002BF9D13A
:1017D00002B0704720010020D34D621070B582B076
:1017E0000446036813F0010F2CD0AB4B5B6803F089
:1017F0000C03042B1DD0A84B5B6803F00C03082BD3
:1018000012D06368B3F5803F41D0002B55D103F16E
:10181000804303F504331A6822F480321A601A6890
:1018200022F480221A6037E09B4B5B6813F4803F00
:10183000E7D0994B1B6813F4003F03D06368002B7B
:1018400000F0AE81236813F0020F76D0924B5B68F4
:1018500013F00C0F5FD0904B5B6803F00C03082B68
:1018600054D02369002B00F08A808C4B01221A602F
:10187000FFF7C0FC0546884B1B6813F0020F75D1BB
:10188000FFF7B8FC401B0228F5D903208BE1824A00
:10189000136843F480331360636843B3FFF7AAFC13
:1018A00005467D4B1B6813F4003FCBD1FFF7A2FC2C
:1018B000401B6428F5D9032075E1B3F5A02F09D0AA
:1018C000754B1A6822F480321A601A6822F480225A
:1018D0001A60E1E703F18043A3F53C331A6842F450
:1018E00080221A601A6842F480321A60D4E7FFF747
:1018F00081FC0546684B1B6813F4003FA2D0FFF73C
:1019000079FC401B6428F5D903204CE1624B5B68ED
:1019100013F4803FA5D1604B1B6813F0020F04D075
:101920002369012B01D001203DE15B4A136823F0BC
:10193000F803616943EAC1031360236813F0080FD9
:1019400032D0A369002B5BD0554B01221A60FFF700
:1019500051FC0546504B5B6A13F0020F21D1FFF793
:1019600049FC401B0228F5D903201CE14A4A1368B0
:1019700023F0F803616943EAC1031360DDE7474BD5
:1019800000221A60FFF736FC0546434B1B6813F034
:10199000020FD2D0FFF72EFC401B0228F5D90320FE
:1019A00001E10120FFF704FF236813F0040F00F0AA
:1019B0009780394BDB6913F0805F33D1364BDA699E
:1019C00042F08052DA61DB6903F080530193019B9E
:1019D0000125344B1B6813F4807F25D0E368012B6D
:1019E00036D0002B4CD103F1804303F504331A6A3F
:1019F00022F001021A621A6A22F004021A622CE032
:101A0000274B00221A60FFF7F5FB0546224B5B6A65
:101A100013F0020FC8D0FFF7EDFB401B0228F5D9E9
:101A20000320C0E00025D4E71E4A136843F4807306
:101A30001360FFF7DFFB06461A4B1B6813F4807F29
:101A4000CCD1FFF7D7FB801B6428F5D90320AAE08F
:101A5000114A136A43F001031362E36873B3FFF79B
:101A6000C9FB06460C4B1B6A13F0020F37D1FFF778
:101A7000C1FB801B41F288339842F3D9032092E0E6
:101A8000052B11D0044B1A6A22F001021A621A6A5D
:101A900022F004021A62E0E7001002400000424215
:101AA0008004424200700040414B1A6A42F0040236
:101AB0001A621A6A42F001021A62CEE7FFF79AFB35
:101AC00006463B4B1B6A13F0020F08D0FFF792FB50
:101AD000801B41F288339842F3D9032063E0E5B9D3
:101AE000E369002B5ED0324A526802F00C02082AE9
:101AF0005BD0022B17D02F4B00221A60FFF77AFB26
:101B000004462B4B1B6813F0007F47D0FFF772FB96
:101B1000001B0228F5D9032045E0254AD36923F0AC
:101B20008053D361DCE7234B00221A60FFF762FB8E
:101B300005461F4B1B6813F0007F06D0FFF75AFBCA
:101B4000401B0228F5D903202DE0236AB3F5803F1E
:101B50001AD017494B6823F47413226A606A02434F
:101B600013434B60134B01221A60FFF743FB0446FB
:101B70000F4B1B6813F0007F0ED1FFF73BFB001BE0
:101B80000228F5D903200EE0094A536823F40033F4
:101B9000A1680B435360DCE7002004E0002002E072
:101BA000012000E0002002B070BD0120FBE700BF73
:101BB000001002406000424210B487B0164C94E816
:101BC0000F000DF1180C0CE90F00238AADF804305A
:101BD000124B5B6803F00C02082A1AD1C3F383424C
:101BE000624412F8102C13F4803F05D10C4800FB1E
:101BF00002F007B010BC7047084B5B68C3F340436A
:101C0000634413F8143C074800FB02F0B0FBF3F008
:101C1000EFE70448EDE700BF68DD00080010024070
:101C200000093D0000127A00594B1B6803F00703BE
:101C30008B420CD2564A136823F007030B43136000
:101C4000136803F007038B4201D00120704770B581
:101C5000036813F0020F06D04E4A536823F0F003D6
:101C60008468234353600C460546036813F0010F54
:101C700052D04368012B23D0022B28D0454A12684A
:101C800012F0020F00F0828042494A6822F00302FB
:101C900013434B60FFF7AEFA06466B68012B1DD06D
:101CA000022B2AD03B4B5B6813F00C0F34D0FFF7AC
:101CB000A1FA801B41F288339842F3D9032064E0F3
:101CC000344A126812F4003FDED101205DE0314A4F
:101CD000126812F0007FD7D1012056E02D4B5B68CF
:101CE00003F00C03042B17D0FFF784FA801B41F29A
:101CF00088339842F2D9032047E0264B5B6803F013
:101D00000C03082B08D0FFF775FA801B41F28833CB
:101D10009842F2D9032038E01D4B1B6803F00703FB
:101D2000A3420CD91A4A136823F007032343136014
:101D3000136803F00703A34201D0012025E02B68BC
:101D400013F0040F06D0134A536823F4E063E968E4
:101D50000B4353602B6813F0080F07D00D4A5368EC
:101D600023F46053296943EAC1035360FFF724FF5A
:101D7000084B5B68C3F30313074AD35CD840074B97
:101D800018600020FFF7F4F9002070BD0120FCE787
:101D9000002002400010024038E20008200100202C
:101DA000014B1868704700BF2001002008B5FFF7FD
:101DB000F7FF044B5B68C3F30223034AD35CD840AC
:101DC00008BD00BF0010024048E2000808B5FFF758
:101DD000E7FF044B5B68C3F3C223034AD35CD840DC
:101DE00008BD00BF0010024048E20008F8B50546F3
:101DF0000F4616461C463BE02CB1FFF7FBF9069B4D
:101E0000C01AA04234D32A68536823F0E003536019
:101E10006B68B3F5827F0BD0AB6AB3F5005F14D06B
:101E2000012385F85130002385F85030032027E046
:101E3000AB68B3F5004F02D0B3F5806FECD12A68E0
:101E4000136823F040031360E6E72A68136823F45D
:101E500000531B041B0C13602A68136843F40053DF
:101E60001360DDE70123B34209D0B4F1FF3FC3D1D2
:101E70002B689B6837EA0303F4D00023F3E70020C4
:101E8000F8BD10B582B0044600920B4600228021B6
:101E9000FFF7ACFF034610B9184602B010BD636DE2
:101EA00043F0200363650323F6E72DE9F04184B096
:101EB0001E4690F85030012B00F0C88004460D46B5
:101EC0009046012380F85030FFF794F9074694F8C4
:101ED0005130DBB2012B0AD00223012284F85120B9
:101EE000002284F85020184604B0BDE8F081002D8F
:101EF00000F0A480B8F1000F00F0A280032384F862
:101F00005130002363652563A4F83480A4F836803B
:101F1000A363A387E38763642364A368B3F5004FD7
:101F20001BD023681A6812F0400F03D11A6842F0E0
:101F300040021A60E368B3F5006F14D063681BB108
:101F4000E38E9BB2012B3ED1236815F8012B1A7347
:101F5000E38E013B9BB2E38635E02268136843F4CD
:101F600080431360DDE763681BB1E38E9BB2012BF6
:101F70000DD1236835F8022BDA60E38E013B9BB26A
:101F8000E38604E0002E5DD0B6F1FF3F0FD1E38E73
:101F90009BB27BB323689A6812F0020FF2D035F837
:101FA000022BDA60E38E013B9BB2E386EFE7FFF79B
:101FB00021F9C01BB042EAD303238EE7002E43D0A1
:101FC000B6F1FF3F0FD1E38E9BB29BB123689A68B5
:101FD00012F0020FF2D015F8012B1A73E38E013BB9
:101FE0009BB2E386EFE7FFF705F9C01BB042EAD3E7
:101FF000032372E700973346012202212046FFF7B0
:10200000F5FE08B1032368E73A4631462046FFF75C
:1020100038FF034618B12023636501235DE7A268FA
:1020200032B903922268D168039192680392039AAD
:10203000626D002A3FF451AF01234EE701234CE7C4
:1020400001234AE7032348E7032346E702234AE73D
:1020500000283CD010B504460023836290F851302C
:10206000002B31D0022384F851302268136823F00A
:10207000400313606368A2681343E2681343226954
:10208000134362691343A26902F400721343E269C5
:102090001343226A1343A16A22680B431360638BC4
:1020A00003F00403616A22680B4353602368E26A09
:1020B0001A612268D36923F40063D361002060654C
:1020C000012384F8513010BD08F0B6FACAE70120A8
:1020D0007047000070B4036A23F001030362036ACF
:1020E0004268846924F073040D6845EA040623F00D
:1020F00002048B6823430D4DA84209D00B4DA84222
:102100000DD0426086614A684263036270BC7047CA
:1021100023F00803CC68234323F00403EEE722F402
:1021200040724C6914438A692243EAE7002C01405B
:1021300030B4036A23F480730362036A4268C4699B
:1021400024F073040D682C4323F400738D6843EA74
:1021500005230F4DA84209D00D4DA8420ED0426074
:10216000C4614A68C263036230BC704723F40063F1
:10217000CD6843EA052323F48063EDE722F440525F
:102180004D6942EA05128D6942EA0512E7E700BF90
:10219000002C014030B4036A23F480530362036AC5
:1021A0004468C26922F4E6420D6842EA052223F43B
:1021B00000538D6843EA0533074DA84206D04460BA
:1021C000C2614A680264036230BC704724F48044F0
:1021D0004D6944EA8514F2E7002C014010B4036A0B
:1021E000046A24F001040462846924F0F00444EADF
:1021F000021223F00A030B438261036210BC704792
:1022000010B4036A23F0100303628469036A24F4A0
:10221000704444EA023223F0A00343EA01138261CE
:10222000036210BC7047836823F0700341F007011C
:1022300019438160704710B4846824F47F4442EAF3
:1022400003230B432343836010BC7047022380F8B1
:102250003D300268136843F001031360012380F8E6
:102260003D30002070470268D36843F00103D3601B
:102270000268136843F00103136000207047704741
:10228000704790F83C30012B7DD010B504460123F7
:1022900080F83C30022380F83D300268936823F4D4
:1022A0007F4323F0770393600B68402B57D010D9FE
:1022B000702B3ED01FD8502B47D0602B32D1CA682C
:1022C00049680068FFF79CFF60212068FFF7ABFFBB
:1022D00028E0102B4DD008D9202B4FD0302B21D106
:1022E00030210068FFF79FFF1CE0DBB90021006888
:1022F000FFF799FF16E0B3F5805F0ED0B3F5005FEE
:1023000010D1CB684A6889680068FFF794FF22689B
:10231000936843F48043936004E00268936823F079
:1023200007039360012384F83D30002084F83C00CB
:1023300010BDCB684A6889680068FFF77CFF226897
:10234000936843F077039360ECE7CA6849680068D4
:10235000FFF744FF50212068FFF765FFE2E7CA68F6
:1023600049680068FFF73AFF40212068FFF75BFFEC
:10237000D8E710210068FFF756FFD3E72021006857
:10238000FFF751FFCEE70220704770477047704754
:102390007047704710B5044603681A6912F0020FBF
:1023A00011D0DA6812F0020F0DD06FF002021A613C
:1023B0000123037703689B6913F0030F70D0FFF7C5
:1023C000E6FF0023237723681A6912F0040F12D066
:1023D000DA6812F0040F0ED06FF004021A610223C3
:1023E000237723689B6913F4407F5FD02046FFF773
:1023F000CEFF0023237723681A6912F0080F12D04A
:10240000DA6812F0080F0ED06FF008021A61042388
:1024100023772368DB6913F0030F4ED02046FFF7C4
:10242000B6FF0023237723681A6912F0100F12D029
:10243000DA6812F0100F0ED06FF010021A61082344
:1024400023772368DB6913F4407F3DD02046FFF7F4
:102450009EFF0023237723681A6912F0010F03D02F
:10246000DA6812F0010F36D123681A6912F0800F72
:1024700003D0DA6812F0800F34D123681A6912F0A1
:10248000400F03D0DA6812F0400F32D123681A6986
:1024900012F0200F03D0DA6812F0200F30D110BDF7
:1024A000FFF774FF2046FFF773FF8AE72046FFF728
:1024B0006DFF2046FFF76CFF9BE72046FFF766FFA6
:1024C0002046FFF765FFACE72046FFF75FFF204699
:1024D000FFF75EFFBDE76FF001021A612046FFF7CC
:1024E00054FFC1E76FF080021A61204600F0E2F964
:1024F000C3E76FF040021A612046FFF74AFFC5E7C5
:102500006FF020021A61204600F0D3F9C7E70000FF
:1025100003681B4A90420AD0B0F1804F07D0A2F561
:102520009432904203D002F58062904203D123F0AE
:1025300070034A681343124A90420AD0B0F1804FA8
:1025400007D0A2F59432904203D002F58062904207
:1025500003D123F44073CA68134323F080034A690C
:10256000134303608B68C3620B688362044B984219
:1025700002D00123436170470B690363F9E700BF91
:10258000002C0140A8B110B5044690F83D305BB175
:10259000022384F83D30211D2068FFF7B9FF012395
:1025A00084F83D30002010BD80F83C3008F068F819
:1025B000EEE701207047A8B110B5044690F83D3011
:1025C0005BB1022384F83D30211D2068FFF7A0FF96
:1025D000012384F83D30002010BD80F83C30FFF727
:1025E0004EFEEEE701207047A8B110B5044690F802
:1025F0003D305BB1022384F83D30211D2068FFF798
:1026000087FF012384F83D30002010BD80F83C3066
:10261000FFF736FEEEE701207047000030B4036A92
:1026200023F010030362036A4468826922F4E642DD
:102630000D6842EA052223F020038D6843EA051362
:102640000E4DA84209D00D4DA8420ED044608261C3
:102650004A688263036230BC704723F08003CD6810
:1026600043EA051323F04003EDE724F440644D6989
:1026700044EA85048D6944EA8504E7E7002C0140BB
:1026800090F83C30012B28D010B50446012380F887
:102690003C30022380F83D300C2A0BD8DFE802F0F2
:1026A000070A0A0A110A0A0A150A0A0A1900006822
:1026B000FFF710FD012384F83D30002084F83C0032
:1026C00010BD0068FFF7AAFFF4E70068FFF730FDD0
:1026D000F0E70068FFF75EFDECE70220704738B5D1
:1026E00090F83C30012B66D00D460446012380F85B
:1026F0003C30022380F83D300C2A1AD8DFE802F083
:1027000007191919201919193419191947000068DE
:10271000FFF7E0FC2268936943F0080393612268A5
:10272000936923F0040393612268936929690B4339
:102730009361012384F83D30002084F83C0038BDCB
:102740000068FFF76BFF2268936943F400639361AD
:102750002268936923F480639361226893692969ED
:1027600043EA01239361E4E70068FFF7E1FC226894
:10277000D36943F00803D3612268D36923F00403CB
:10278000D3612268D36929690B43D361D1E700681B
:10279000FFF700FD2268D36943F40063D361226828
:1027A000D36923F48063D3612268D369296943EA3A
:1027B0000123D361BDE70220C1E710B4012303FA6E
:1027C00001F4036A23EA04030362036A8A401343A1
:1027D000036210BC7047000010B504460122006877
:1027E000FFF7EBFF2368074A934206D0226813687D
:1027F00043F001031360002010BD5A6C42F4004204
:102800005A64F3E7002C014090F83C30012B25D0AE
:10281000012380F83C30CB6823F440738A6813436B
:1028200023F480634A68134323F400630A68134364
:1028300023F480530A69134323F400534A69134372
:1028400023F480438A69134323F40043134302684B
:102850005364002380F83C301846704702207047CC
:1028600090F83C30012B22D030B4012280F83C207B
:10287000022380F83D300468636823F070036360CE
:10288000046863680D682B4363600468A36823F0E1
:102890008003A3600468A36849680B43A36080F8C1
:1028A0003D20002380F83C30184630BC70470220A1
:1028B0007047704770470268D36823F49073D36001
:1028C0000268536923F001035361202380F83A30F2
:1028D000704790F83930DBB2212B2AD18368B3F5E9
:1028E000805F16D0036A5A1C02621A7803685A6025
:1028F000C38C013B9BB2C384EBB90268D36823F05D
:102900008003D3600268D36843F04003D3600020A3
:102910007047036A1B880268C3F3080353600369A6
:102920001BB9036A02330362E2E7036A01330362FD
:10293000DEE7022070470020704700002DE9F843D1
:1029400005460268136923F44053C1680B431361C1
:10295000836802691343426913430168CA6822F419
:10296000B05222F00C021343CB600268536923F487
:10297000407381690B4353610268594B9A4257D0A7
:10298000FFF714FA00EB800000EB80006C68A400F5
:10299000B0FBF4F4534FA7FB043464092601FFF79E
:1029A00005FA00EB800000EB80006C68A400B0FB2F
:1029B000F4F9FFF7FBF900EB800000EB80006C6896
:1029C000A400B0FBF4F4A7FB043464094FF06408DE
:1029D00008FB149424013234A7FB0434640904F086
:1029E000F0043444FFF7E2F900EB800000EB8000D4
:1029F0006E68B600B0FBF6F6FFF7D8F900EB800082
:102A000000EB80006B689B00B0FBF3F0A7FB00308D
:102A1000400908FB10684FEA081808F13208A7FBC4
:102A20000837C7F343172B6827449F60BDE8F88336
:102A3000FFF7CCF900EB800000EB80006C68A4008D
:102A4000B0FBF4F4274FA7FB043464092601FFF719
:102A5000BDF900EB800000EB80006C68A400B0FBC7
:102A6000F4F9FFF7B3F900EB800000EB80006C682D
:102A7000A400B0FBF4F4A7FB043464094FF064082D
:102A800008FB149424013234A7FB0434640904F0D5
:102A9000F0043444FFF79AF900EB800000EB80006B
:102AA0006E68B600B0FBF6F6FFF790F900EB800019
:102AB00000EB80006B689B00B0FBF3F0A7FB0030DD
:102AC000400908FB10684FEA081808F13208A7FB14
:102AD0000837C7F343172B6827449F60A6E700BF5A
:102AE000003801401F85EB512DE9F04105460F46A6
:102AF00016469846069C2B681B6837EA03030CBFF2
:102B000001230023B3421DD1B4F1FF3FF3D02CB118
:102B1000FEF770FBA0EB0800A042ECD92A68D3684E
:102B200023F4D073D3602A68536923F001035361FF
:102B3000202385F8393085F83A30002385F838307D
:102B4000032000E00020BDE8F08158B310B5044632
:102B500090F839300BB3242384F839302268D368D5
:102B600023F40053D3602046FFF7E8FE2268136980
:102B700023F4904313612268536923F02A035361BD
:102B80002268D36843F40053D3600020E06320231D
:102B900084F8393084F83A3010BD80F8383007F0C6
:102BA000D7FDD8E7012070472DE9F04182B01E46DD
:102BB00090F83930DBB2202B55D104460D469046B3
:102BC000002955D0002A55D090F83830012B53D029
:102BD000012380F838300023C363212380F8393083
:102BE000FEF708FB0746A4F82480A4F8268010E02E
:102BF00000963B46002280212046FFF775FF002803
:102C00003CD12B882268C3F3080353602369C3B9FE
:102C10000235E38C9BB2B3B1E38C013B9BB2E384FE
:102C2000A368B3F5805FE3D000963B460022802185
:102C30002046FFF759FF18BB2A7823685A600135F0
:102C4000E7E70135E5E700963B46002240212046B4
:102C5000FFF74AFF0346A8B9202284F83920002252
:102C600084F8382000E00223184602B0BDE8F08165
:102C70000123F9E70123F7E70223F5E70323F3E74D
:102C80000323F1E70323EFE7704708B50168CB683A
:102C900023F04003CB60202380F83930FFF7F4FFA6
:102CA000002008BD704708B590F83A30DBB2222BFF
:102CB00045D18368B3F5805F0ED0036903BB036819
:102CC0005A68836A591C81621A70C38D013B9BB29A
:102CD000C385F3B1002033E0826A036943B9036816
:102CE0005B68C3F308031380836A02338362ECE7F3
:102CF00003685B68DBB21380836A01338362E4E7B5
:102D000003685B68826A511C816203F07F03137061
:102D1000DBE70268D36823F02003D3600268D3683E
:102D200023F48073D3600268536923F00103536175
:102D3000202380F83A30FFF7B5FF002000E00220A2
:102D400008BD704710B5044602681368D16852691F
:102D500013F00F0005D113F0200F02D011F0200F57
:102D600053D1002867D012F0010202D111F4907FF4
:102D700061D013F0010F06D011F4807F03D0E06B17
:102D800040F00100E06313F0040F04D01AB1E06BCF
:102D900040F00200E06313F0020F04D01AB1E06BC0
:102DA00040F00400E06313F0080F04D01AB1E26BA6
:102DB00042F00802E263E26B002A48D013F0200FD1
:102DC00002D011F0200F24D123685B6903F0400387
:102DD000E26B12F0080F00D13BB32046FFF76BFD0A
:102DE00023685A6912F0400F1BD05A6922F0400242
:102DF0005A61636B8BB11A4A5A63606BFEF792FAA1
:102E000028B3606B436B984721E02046FFF74BFFE8
:102E10001DE02046FFF747FFD6E72046FFF791FF6A
:102E200015E02046FFF78DFF11E02046FFF789FFF0
:102E30000023E3630BE013F0800F02D011F0800F4A
:102E400006D113F0400F02D011F0400F04D110BD95
:102E50002046FFF73EFDFAE72046FFF716FFF6E7AC
:102E6000652E000808B5406A0023C385C384FFF7B8
:102E700068FF08BDF0B587B01B4B9A6942F00802A5
:102E80009A619A6902F008020092009A9A6942F0E7
:102E900010029A619B6903F010030193019B0823C0
:102EA00002930126039600250495022405940DEB58
:102EB00003010E48FEF784FB4FF480530293039600
:102EC000049505940A4F02A93846FEF779FB4FF4A2
:102ED0000063029303960495059402A93846FEF711
:102EE0006FFB07B0F0BD00BF00100240000C0140B6
:102EF0000010014010B5044610F0010F17D0012258
:102F000008211548FEF74DFC14F0020F15D00122E0
:102F10004FF480511148FEF744FC14F0040F13D114
:102F200000224FF400610D48FEF73BFC10BD00226B
:102F300008210948FEF735FCE6E700224FF48051EE
:102F40000648FEF72EFCE8E701224FF40061034833
:102F5000FEF727FCEAE700BF000C0140001001402B
:102F600000B587B00C4B9A6942F008029A619B69E0
:102F700003F008030193019B4FF460730293012354
:102F8000039302230493059302A90448FEF718FB58
:102F900007B05DF804FB00BF00100240000C0140C8
:102FA00010B5044610F0010F17D0012280211548FA
:102FB000FEF7F7FB14F0020F15D001224FF4007159
:102FC0001048FEF7EEFB14F0040F13D100224FF46B
:102FD00080710C48FEF7E5FB10BD002280210948F6
:102FE000FEF7DFFBE6E700224FF400710548FEF72D
:102FF000D8FBE8E701224FF480710248FEF7D1FBCD
:10300000EAE700BF000C0140F0B587B0234B9A6996
:1030100042F010029A619A6902F010020092009A3E
:103020009A6942F004029A619B6903F004030193D8
:10303000019B1B4D00224FF480412846FEF7B1FB57
:10304000184E00224FF480613046FEF7AAFB4FF481
:10305000804302930124039404940227059702A954
:103060002846FEF7ADFA4FF480630293039404946C
:10307000059702A93046FEF7A3FA4FF400430293E6
:1030800000260396049402A92846FEF799FAFFF752
:10309000F1FE3046FFF72EFF07B0F0BD00100240F2
:1030A000000801400010014070B500260B2500E02B
:1030B000013D002D20DB124C00224FF480412046C0
:1030C000FEF76FFB00BF00BF00BF00BF00BF00BF27
:1030D00001224FF480412046FEF763FB00BF00BF92
:1030E0004FF400412046FEF755FB0028E0D00120B8
:1030F000A8400643B6B2DBE7701E80B270BD00BFC9
:103100000008014038B51F4C01224FF48061204671
:10311000FEF747FB00224FF480612046FEF741FB9B
:1031200001224FF480411848FEF73BFB0024012C9C
:1031300025D8154D00224FF480412846FEF731FB7B
:1031400001224FF480412846FEF72BFB4FF400414B
:103150002846FEF71FFB10B10134E4B2E7E7FFF7A2
:10316000A3FF044600224FF480412846FEF719FBD6
:1031700001224FF480610348FEF713FB00E00024B6
:10318000204638BD001001400008014008B5FFF797
:10319000B1FEFFF7B7FF08BD08B507F087F9FFF7E5
:1031A000DFFE08BD08B507F0D3F908BD08B5FFF785
:1031B000F7FE08BD2DE9F043DDF81CE0DDF820C086
:1031C000099F314C266876B9304CA52525705A25C3
:1031D00065708225E5702E4D2D782571002565716D
:1031E000A5710625E5714FEA2029C6EBC6046500E6
:1031F00005F10A08254C04F8089005F10B0804F8BD
:1032000008004FEA212805F10C0004F8008005F1C0
:103210000D0021544FEA2228711CC1EBC106700039
:1032200004F8008005F10F002254181205F1100275
:10323000A05405F11102A3544FEA2E2205F1120306
:10324000E25405F1130304F803E04FEA2C2205F1E0
:103250001403E25405F1150304F803C03A1205F112
:103260001603E25417356755074B1960CAB2C2EB13
:10327000C20043000733A370090A21726272054B32
:1032800001221A60BDE8F083900300207807002037
:1032900008000020A408002030B4104B1A68C2EBCC
:1032A000C202530003F10A042546002307E00C4A3A
:1032B00012681A440B49C85C0B4988540133AB426D
:1032C000F5DB0A4B00221A60054A13682344136099
:1032D0000133074A136030BC704700BF90030020E1
:1032E0002C0A002078070020A0030020340A0020C8
:1032F000500A002010B40D490B680D4AA524D4547F
:1033000001335A24D45401330424D4540133802487
:10331000D45401330324D45401330024D45401334E
:10332000D05401330B6010BC704700BF2C0A002042
:10333000A00300207047000010B40B490B680B4A33
:10334000A524D45401335A24D45401330324D4542F
:1033500001338024D45401330124D4542344D05461
:1033600023440B6010BC70472C0A0020A0030020EF
:10337000002305E0074A1A44202111710133DBB212
:10338000054A125C9A42F5D8024A134400221A7187
:10339000704700BF080000207CDD000830B587B012
:1033A00015460446062B17D801AA1946284600F0F0
:1033B0002FF9002303E0154A02441171013306AAD4
:1033C0001A4412F8141C29B11819104A024412792F
:1033D000002AF0D107B030BD01AA1946284600F0F6
:1033E00017F9002304E0094A0A442021117101332E
:1033F00006AA1A4412F8142C002AEBD01919034A11
:103400000A441279002AEED1E4E700BF0800002048
:10341000F0B400EB400044013334104D2B681048E9
:10342000A522C25401330F4E32685A27C7540133C4
:103430000527C75401338227C7540133270AC754CD
:103440000133C45401330C12C4540133C154013349
:103450002B6008323260F0BC704700BF500A002079
:10346000A00300202C0A002070B4174D2B68174AC7
:10347000A524D45401335A24D45402338224D4547E
:10348000013300EB40046601114C2478240144EA26
:103490002624D4540133D65401332B6000230A4828
:1034A0000268CD5C094CA554013202600133C85C4E
:1034B0000028F4D1D41A043C033304490B55054BBE
:1034C0001A6070BC704700BF500A0020A0030020A3
:1034D000580A00202C0A002038B51F4D2D68B5F57C
:1034E000167F11D21D46144688420ED01B4B53F84E
:1034F00022301B4A11688B4215D12946194B53F8CB
:103500002400FDF783FDA8B138BD144B53F82230D9
:10351000154A91698B42F0D0104B43F82410204695
:10352000FFF776FFE9E70D4B43F824102046FFF73D
:103530006FFFE2E7E0B2FFF71BFF9DF810302A466D
:1035400021460020FFF72AFF08492046FFF78CFF9D
:10355000044B43F82450D7E72C0A0020AC08002085
:103560005C0A0020F4050020080000200C00002068
:1035700010B584B0A3B90F24884213D1104B1B7827
:1035800013F0040F1AD0079B0293069B01930F239D
:103590000093E318002221462320FFF70BFE0DE0E5
:1035A0001E24E9E7079B0293069B01930F230093D8
:1035B000E318002221462320FFF7FCFD04B010BDD4
:1035C000600A002008B572B6FDF7E8FF034A1369E8
:1035D00023F00203136162B608BD00BF0020024061
:1035E00008B572B60A46CB1701460120FDF788FFE1
:1035F00062B608BD10B50446FDF78AFDC82382B245
:1036000021460248FFF7D0FA10BD00BF3C0B002056
:103610002DE9F04186B080460D4614460846FCF779
:10362000D9FE02460B4600201F4907F093F90646D3
:103630000F464046FCF7F0FE32463B46FCF744FF9F
:10364000FDF7F2F9FDF714FD0022184981FB003166
:10365000C317C3EBA103194603EB83035E00831B6F
:10366000303306A8104400F8143C08460132D2B2A8
:103670000029EAD1002308E0013A06A9114411F813
:10368000141CE1540133DBB2D2B232B1AA42F3D1FD
:103690002E21E1540133DBB2EEE7E2542046FFF77E
:1036A000A9FF06B0BDE8F0810000244067666666A9
:1036B000074A936943F001039361064B5A6822F06D
:1036C00040725A605A6842F080625A60704700BF88
:1036D00000100240000001400021042900F2EC81AA
:1036E0002DE9F04F9AE101F14803754A52F82300A1
:1036F00040009CE1734A00241470642404FB03F42A
:10370000714B1C6002E001336E4A13706D4B1B78E5
:103710001D466E4A52F8232000FB02F29442F2D872
:103720006B4B5A5D6B4B9A558BE16B4A00201060D6
:1037300093E16A4800240470272E02D867480124C8
:1037400004705F48D0F82451AB4213D2E81A40000D
:10375000614C20606248406802EB050E4FEA4E0E55
:1037600070450BD25C4C2468A04207D95D48012407
:10377000047006E0584800240460EBE75948002430
:103780000470272D02D85748012404704C48D0F803
:103790002841A34213D2E01A40004F4F38605048EE
:1037A000806802EB04084FEA480840450BD24A4FB4
:1037B0003F68B84207D94C480127077006E04648E1
:1037C00000270760EBE7484800270770272C02D83E
:1037D0004548012707703A48D0F82C01834219D296
:1037E000C71A7F00DFF8F090C9F800703C4FFF68FF
:1037F00002EB00094FEA49094F4511D2DFF8D8A082
:10380000DAF800A057450BD9384F4FF0010A87F876
:1038100000A00AE0304F4FF00009C7F80090E5E73C
:10382000324F4FF0000A87F800A0272804D82F4F06
:103830004FF0010A87F800A0214FD7F83071BB4242
:1038400019D2A7EB030A4FEA4A0ADFF88CB0CBF88B
:1038500000A0DFF88CA0DAF810A03A44BAEB420FCF
:1038600010D21D4A126892450CD9214A4FF0010A24
:1038700082F800A00BE0DFF860A04FF0000BCAF860
:1038800000B0E6E71A4A4FF0000A82F800A0272F9E
:1038900004D8174A4FF0010A82F800A00F4A1278A4
:1038A00052B3104A12783AB30F4A127822B30F4A31
:1038B00012780AB30F4A4FF0010AC2F800A020E0C4
:1038C000802100205D0D0020BC0D0020C4000020E0
:1038D000E8000020AC230020E41A00206A03002046
:1038E000B42300205C030020480300206403002070
:1038F0005A03002034240020704A4FF0000AC2F816
:1039000000A0272E05D806F10802DFF8B4A1CAF8F6
:103910000020272D05D805F10802DFF8A4A1CAF878
:103920000420272C05D804F10802DFF894A1CAF876
:103930000820272805D800F10802DFF884A1CAF87A
:103940000C20272F02D808375D4A17615C4A12689D
:1039500094450CD35A4F7F68BE4508D3584FBF6873
:10396000B84504D3564FFF68B94580F08B80554F5A
:103970004FF0010C87F800C0534F4FF0000C87F850
:1039800000C09E4240F28480F71A7F00DFF83CC1FD
:10399000CCF800704D4F3F68BA4204D2282E02D9AD
:1039A000494A01261670AB4278D2EA1A5200474EB5
:1039B0003260434A5668454A1268964204D2282D1E
:1039C00002D9414A01251570A3426BD2E21A520076
:1039D0003E4D2A603A4A95683C4A1268954204D2A4
:1039E000282C02D9384A0124147083425ED2C31AAB
:1039F0005B00364A1360324BDA68344B1B689A42DC
:103A000004D2282802D9304B01221A702E4B1A7882
:103A10002F4B1A700131C9B204294BD82D4B1B789A
:103A2000002B3FF460AE2C4BD3F8000340000E4651
:103A3000234B53F821308342FFF45CAE274B002226
:103A40005A54274BD3F82061D3F838319E427FF681
:103A50006CAEF21A52001D480260194A1068204AE2
:103A6000D2F8342106EB020C4FEA4C0C6045BFF44F
:103A700060AE164C2468A0427FF65BAE1948012464
:103A8000047059E60F4F4FF0000C87F800C073E741
:103A90000E4F4FF0000CC7F800C07BE70B4A002622
:103AA000166086E7094A0025156093E7074B002258
:103AB0001A60A0E7BDE8F08F704700BF34240020F3
:103AC000B423002062030020F40C0020E41A00203C
:103AD000560300202A030020701B0020AC23002086
:103AE000802100206A0300202B4A136801331360F1
:103AF000632B02D9134600221A60284B1A78264BF2
:103B00001B689A4229D926490A7822F001020A70D4
:103B1000224A5278934226D221490A7822F00202A0
:103B20000A701E4A9278934223D21D490A7822F0E5
:103B300004020A70194AD278934220D218490A78AE
:103B400022F008020A70154A127993421DD3144AD2
:103B5000137843F010031370704711490A7842F04C
:103B600001020A70D4E70E490A7842F002020A7094
:103B7000D7E70B490A7842F004020A70DAE70849ED
:103B80000A7842F008020A70DDE7054A137823F04C
:103B900010031370704700BF7C0D0020AC23002081
:103BA0001C2100200023B54A1370B54A1370B54A92
:103BB0001360B54B1B78002B41F05A862DE9F04776
:103BC00084B0B24A1360B24A1360B24A1360B24A78
:103BD0001360B24B1B784F2B00F2DE810133AF4AEA
:103BE0001370AE4B1D78AE4C4FF07E5154F825004B
:103BF000FCF770FF44F82500AA4B1B680D2B00F062
:103C0000CF81A94B18221A70A34B1B684BB99B4B51
:103C10001B78002B40F05182A44B1B780D2B40F2F7
:103C20006682A34B00221A60A24B1B7813F0010F8F
:103C300000F07382A04B4FF478421A600124009484
:103C40009E4B002221461046FFF746FC9C4B1878FD
:103C5000FCF7F0FF00250095034622462146284642
:103C6000FFF73AFC974B1878FCF7E4FF0095034602
:103C7000022221462846FFF72FFC934B1878FCF7C9
:103C8000D9FF924B18600094914B0322294620469D
:103C9000FFF722FC8F4B1B78002B40F043828E4BAA
:103CA000D3F82031272B02D808338C4A13608A4B73
:103CB000D3F82431272B02D80833884A5360864B27
:103CC000D3F82831272B02D80833844A9360824BDB
:103CD000D3F82C31272B02D80833804AD3607E4B8F
:103CE000D3F85031272B02D808337C4A13617B4D1F
:103CF00028684008FCF79EFF002400940346072232
:103D000021460120FFF7E8FB68684008FCF792FFB6
:103D100000940346042211210120FFF7DDFBA8686F
:103D20004008FCF787FF009403460A221721012070
:103D3000FFF7D2FBE8684008FCF77CFF0346634AC4
:103D4000106000940E221C210120FFF7C5FB28699A
:103D50004008FCF76FFF0094034614222221012043
:103D6000FFF7BAFB514B1A78D31EDBB2022B40F29D
:103D70005B820E2A00F06A82594B1868FCF75EFFDE
:103D8000524B18605749FDF761F80124009403462F
:103D9000082211462046FFF79FFB534DD5F8180324
:103DA000FCF748FF0024009403460F220E21012057
:103DB000FFF792FBD5F81C03FCF73CFF0094034689
:103DC0000C2213210120FFF787FB484B1868FCF7F2
:103DD00031FF009403460D221C210120FFF77CFBDC
:103DE000434B1868FCF726FF009403461122262156
:103DF0000120FFF771FB3F4B1B7813F0020F40F0DF
:103E000037823D4B1868FCF715FF009403461022DB
:103E100026210120FFF760FB364B1B7813F0010FC2
:103E200040F03382344B1868FCF704FF0023009302
:103E30000346062226210120FFF74EFB194B1B6883
:103E4000002B00F02F82174B1B68022B00F096828C
:103E5000144B1B68032B00F09B83124B1B68042B35
:103E600000F0A4840F4B1B68052B00F07B850D4BE5
:103E70001B68062B00F0628640E000BF280300208C
:103E8000580A00209003002024000020340A00205B
:103E90002C0A0020500A0020A4080020CA23002079
:103EA000F4050020A8230020080000200D24002095
:103EB0005C0A0020600A0020200000206666B241F3
:103EC000700C002078210020B00D00209803002005
:103ED0000000B441A423002080210020B42300204E
:103EE000980C002000002041701B002004210020BD
:103EF0005C0C00205C0D0020CC230020A64B1B682E
:103F0000072B00F05787A44B1B68082B01F05E803D
:103F1000A14B1B68092B01F075819F4B1B680A2B75
:103F200001F08A829C4B1B680B2B01F080839A4B1B
:103F30001B680E2B01F01284984C2078FCF77AFE57
:103F40004FF08741FCF7CEFE05466078FCF776FE21
:103F50002946FCF7BFFD924B18608F4B1B6813B1CD
:103F60000E2B41F016848F4B1B68002B41F01E84F2
:103F70008D4B1B78884A1068834241F01B848B4B21
:103F800018788B4B1B78984201F01B84884B187073
:103F9000FFF7D2F901F015BC864B00221A7020E61B
:103FA000854A864B1B781360854B1B785360854B85
:103FB0001B789360844B1878844B1B7803F00F01B7
:103FC00041EA00114FF6FF704140D1608049097805
:103FD0001B0943EA01134340136100237D4A136028
:103FE0007D4A13600F227D490A607D490A607D4A3F
:103FF0007D2111607C4ABE2111607C4A78211160CC
:104000007B4A1721116001E00133DBB21D466A4A89
:1040100052F82320774951F823108A4201D1052B09
:10402000F2D9042B3FF6EDAD724941F8252003F19A
:104030001901714A1170C3EB0313DA007D32694B29
:104040001A6001241DE0654B1B68634A12686149D0
:1040500009686548006802906248006801906048FD
:10406000006800902320FFF7A5F80FE05E4A136870
:104070005F4909680B4413606400B4F5805FBFF6C4
:10408000C0AD4D4B53F825301C42DCD14A4B53F8A0
:104090002530002BEAD1514B1B684F4A12684D491D
:1040A00009684FF4EB700290002001904C480068C2
:1040B00000902320FFF77EF8D8E7504A52F82310EB
:1040C0004F4A52F823204F4B1B684F48006810445A
:1040D000032402944FF4C974019400900B442E20E1
:1040E000FFF768F8494B4FF47A721A6099E5484A2D
:1040F00052F82310474A52F82320474B1B68474881
:1041000000681044032402944FF4C9740194009091
:104110000B442D20FFF74EF883E5414B4FF4FC6232
:104120001A608BE53F4DD5F82001FCF783FD002494
:104130000094034607220C210120FFF7CDF9D5F8A2
:104140002401FCF777FD0094034604221B21012083
:10415000FFF7C2F9D5F82801FCF76CFD009403467F
:104160000A2217210120FFF7B7F9D5F82C01FCF737
:1041700061FD009403460E221C210120FFF7ACF9DB
:10418000D5F83001FCF756FD009403461422222195
:104190000120FFF7A1F9E5E5A8230020380A002057
:1041A00098030020A40800209C0300204000002069
:1041B0001C030020CA230020E00500202403002067
:1041C0002503002026030020610D00205C0D002047
:1041D000DB1A002018030020140300203C000020FC
:1041E0003800002034000020300000202C00002087
:1041F00028000020C80500200800002078DF000803
:10420000CCDE0008C8DE0008C4DE00084400002040
:1042100098E000085CE0000858E0000854E000085E
:104220002000002080210020494B1868FCF706FD83
:10423000484B18604849FCF709FE012400940346E6
:10424000082211462046FFF747F9A6E5434B1878A8
:10425000FCF7F0FC3F4B18603F49FCF7F7FD0124E9
:1042600000940346082211462046FFF735F994E5ED
:104270003B4B1868FCF7DEFC092300930346102231
:1042800026210120FFF728F9C6E5354B1868FCF711
:10429000D1FC092300930346062226210120FFF7C3
:1042A0001BF9CBE52F4B1868FCF7C4FC00240094E5
:1042B0000346282221460120FFF70EF92A4B1868F1
:1042C000FCF7B8FC00940346152221460120FFF7B5
:1042D00003F9264D2868FCF7ADFC0094034609223B
:1042E00021460120FFF7F8F8214B1868FCF7A2FCE3
:1042F00000940346162221460120FFF7EDF81D4BDE
:1043000018694008FCF796FC009403462B222146CE
:104310000120FFF7E1F8184B1868FCF78BFC0094BC
:104320000346292221460120FFF7D6F82868FCF72A
:1043300081FC084B18600849FCF788FD01250095B1
:1043400003460B2221462846FFF7C6F87BE500BF4F
:104350001821002098030020000020413124002073
:10436000CC230020600C002008240020040E002034
:10437000A80D0020B4230020F81A00207F4D286DDE
:10438000FCF758FCDFF80482C8F800007C49FCF711
:104390005DFD7C4C26780127009703460B221421F3
:1043A0003046FFF799F82869FCF744FC94F800C000
:1043B0000026009603461C2204216046FFF78CF875
:1043C000714B1868FCF736FC94F800C00096034661
:1043D000192239466046FFF77FF8A868FCF72AFCE7
:1043E00094F800C0009603461A2202216046FFF7A7
:1043F00073F8E868FCF71EFC94F800C000960346CA
:104400001B2203216046FFF767F86869FCF712FC7E
:1044100094F800C0009603461D2205216046FFF770
:104420005BF8A869FCF706FC94F800C00096034608
:104430001E2206216046FFF74FF8E869FCF7FAFBF9
:1044400094F800C0009603461F2207216046FFF73C
:1044500043F8286AFCF7EEFBC8F800004849FCF76F
:10446000F5FC94F800C0009703462022082160461E
:10447000FFF732F8686AFCF7DDFB94F800C000969D
:104480000346212209216046FFF726F8A86AFCF7B7
:10449000D1FB94F800C00096034622220A21604610
:1044A000FFF71AF8E86AFCF7C5FB94F800C000961D
:1044B000034623220B216046FFF70EF8286BFCF71A
:1044C000B9FBC8F800002E49FCF7C0FC94F800C006
:1044D0000097034624220C216046FEF7FDFF686B1F
:1044E000FCF7A8FB27780096034625220D213846C5
:1044F000FEF7F2FFA86BFCF79DFB277800960346BA
:1045000026220E213846FEF7E7FFE86BFCF792FB08
:1045100027780096034627220F213846FEF7DCFF56
:10452000286CFCF787FB2778009603462822102189
:104530003846FEF7D1FF686CFCF77CFB27780096C5
:104540000346292211213846FEF7C6FFA86CFCF766
:1045500071FB2778009603462A2212213846FEF77F
:10456000BBFFE86CFCF766FB2478009603462B2221
:1045700013212046FEF7B0FF6AE400BF701B002045
:104580000000204174210020042100209803002015
:10459000824DD5F8A800FCF74DFB0346804F3860EC
:1045A000804C2078002600960B221421FEF794FF01
:1045B000E86DFCF73FFB94F800C000960346192213
:1045C00001216046FEF788FF286EFCF733FB94F864
:1045D00000C0009603461A2202216046FEF77CFFC7
:1045E000686EFCF727FB94F800C0009603461B2278
:1045F00003216046FEF770FFA86EFCF71BFB3860D6
:104600006949FCF723FC94F800C00123009303469A
:104610001C2204216046FEF75FFFE86EFCF70AFBF0
:1046200094F800C0009603461D2205216046FEF75F
:1046300053FF286FFCF7FEFA94F800C0009603467B
:104640001E2206216046FEF747FF686FFCF7F2FA6C
:1046500094F800C0009603461F2207216046FEF72B
:104660003BFFA86FFCF7E6FA38604F49FCF7EEFB1A
:1046700094F800C000960346202208216046FEF709
:104680002BFFE86FFCF7D6FA94F800C000960346BB
:10469000212209216046FEF71FFFD5F88000FCF7B4
:1046A000C9FA94F800C00096034622220A21604607
:1046B000FEF712FFD5F88400FCF7BCFA94F800C0AE
:1046C0000096034623220B216046FEF705FFD5F82E
:1046D0008800FCF7AFFA38603349FCF7B7FB27785E
:1046E0000096034624220C213846FEF7F5FED5F845
:1046F0008C00FCF79FFA27780096034625220D21AF
:104700003846FEF7E9FED5F89000FCF793FA2778D3
:104710000096034626220E213846FEF7DDFED5F828
:104720009400FCF787FA27780096034627220F218A
:104730003846FEF7D1FED5F89800FCF77BFA2778CB
:1047400000960346282210213846FEF7C5FED5F80C
:104750009C00FCF76FFA2778009603462922112166
:104760003846FEF7B9FED5F8A000FCF763FA2778C3
:10477000009603462A2212213846FEF7ADFED5F8F0
:10478000A400FCF757FA2478009603462B22132145
:104790002046FEF7A1FEFFF760BB00BF701B0020A4
:1047A000980300207421002000002041694D6A4CCC
:1047B0004FF4E273019369230093D5F8E430582253
:1047C0000D212068FEF7D4FED5F8E000FCF732FAA0
:1047D000DFF88CA1CAF800006049FCF737FB2678A7
:1047E0004FF00108CDF8008003460B220C21304623
:1047F000FEF772FEDFF864912078092600964B469A
:1048000005220C21FEF768FED5F8B000FCF712FA7D
:10481000277800960346182200213846FEF75CFEF2
:10482000D5F8B400FCF706FA94F800C0002700970A
:104830000346192241466046FEF74EFED5F8B80001
:10484000FCF7F8F994F800C0009703461A220221F9
:104850006046FEF741FED5F8BC00FCF7EBF994F892
:1048600000C0009703461B2203216046FEF734FE7A
:10487000D5F8C000FCF7DEF9CAF800004946FCF79D
:10488000E5FA94F800C00096034620220421604611
:10489000FEF722FED5F8C400FCF7CCF994F800C06E
:1048A00000970346212205216046FEF715FED5F844
:1048B000C800FCF7BFF994F800C000970346222215
:1048C00006216046FEF708FED5F8CC00FCF7B2F9E9
:1048D00094F800C000970346232207216046FEF7A4
:1048E000FBFDD5F8D000FCF7A5F9CAF80000494651
:1048F000FCF7ACFA2778CDF800800346282208217F
:104900003846FEF7E9FDD5F8D400FCF793F927788F
:1049100000960346292231463846FEF7DDFDD5F8DC
:10492000D800FCF787F92778009603462A220A2147
:104930003846FEF7D1FDD5F8DC00FCF77BF924788A
:10494000009603462B220B212046FEF7C5FDFFF7FC
:1049500089BA00BF701B0020742100200000204194
:1049600098030020714DD5F83401FCF763F9704FBE
:1049700038607049FCF76AFA6F4C26784FF00108EE
:10498000CDF80080034605220B213046FEF7A4FD3A
:10499000D5F83001FCF74EF938606649FCF756FA55
:1049A0002678CDF8008003460B220A213046FEF718
:1049B00093FDD5F80801FCF73DF9034638602078EF
:1049C0000026009618223146FEF786FDD5F80C0128
:1049D000FCF730F994F800C00096034619224146CE
:1049E0006046FEF779FDD5F81001FCF723F994F83D
:1049F00000C0009603461A2202216046FEF76CFDB5
:104A0000D5F81401FCF716F994F800C00096034697
:104A10001B2203216046FEF75FFDD5F82801FCF755
:104A200009F9034638602078009620222821FEF7F5
:104A300053FDD5F81C01FCF7FDF894F800C04FF0C9
:104A40000909CDF800900346222230216046FEF786
:104A500043FDD5F82001FCF7EDF894F800C0CDF83F
:104A60000090034623222C216046FEF735FDD5F841
:104A70001801FCF7DFF838602E49FCF7E7F994F8E5
:104A800000C0CDF800800346242204216046FEF7D2
:104A900023FDD5F81C01FCF7CDF894F800C0009672
:104AA0000346252205216046FEF716FDD5F82001B4
:104AB000FCF7C0F894F800C00096034626220621B1
:104AC0006046FEF709FDD5F82401FCF7B3F894F829
:104AD00000C000960346272207216046FEF7FCFC33
:104AE000D5F82801FCF7A6F8034638602078009630
:104AF00028220821FEF7F0FC4FF4BD7301936926CC
:104B00000096D5F82831582208212068FEF730FD9C
:104B1000D5F82C31206840F29F120192009658225D
:104B20004946FEF725FDFFF7A2B900BF701B002024
:104B3000980300200000204174210020994DD5F8F1
:104B4000A001FCF777F8984F38609849FCF77EF998
:104B5000974C26784FF00108CDF8008003460B22D1
:104B600010213046FEF7B8FCD5F86001FCF762F87A
:104B700038608E49FCF76AF92678CDF80080034644
:104B8000182200213046FEF7A7FCD5F86401FCF797
:104B900051F894F800C000260096034619224146B9
:104BA0006046FEF799FCD5F86801FCF743F894F8E5
:104BB00000C0009603461A2202216046FEF78CFCD4
:104BC000D5F86C01FCF736F894F800C0009603465F
:104BD0001B2203216046FEF77FFCD5F87001FCF72D
:104BE00029F838607149FCF731F994F800C0CDF824
:104BF000008003461C2204216046FEF76DFCD5F8B8
:104C00007401FCF717F894F800C0009603461D22C3
:104C100005216046FEF760FCD5F87801FCF70AF83C
:104C200094F800C0009603461E2206216046FEF757
:104C300053FCD5F87C01FBF7FDFF94F800C000960B
:104C400003461F2207216046FEF746FCD5F8800187
:104C5000FBF7F0FF38605549FCF7F8F894F800C00E
:104C6000CDF800800346202208216046FEF734FC80
:104C7000D5F88401FBF7DEFF94F800C000960346E8
:104C8000212209216046FEF727FCD5F88801FBF7B1
:104C9000D1FF94F800C00096034622220A21604604
:104CA000FEF71AFCD5F88C01FBF7C4FF94F800C09E
:104CB0000096034623220B216046FEF70DFCD5F833
:104CC0009001FBF7B7FF38603849FCF7BFF8277849
:104CD000092600960346242223213846FEF7FCFBD2
:104CE000D5F89401FBF7A6FF277800960346252206
:104CF00023213846FEF7F0FBD5F89801FBF79AFF21
:104D0000277800960346262223213846FEF7E4FB47
:104D1000D5F89C01FBF78EFF2778009603462722E3
:104D200023213846FEF7D8FBD5F89C01FBF782FF1C
:104D3000277800960346282223213846FEF7CCFB2D
:104D4000D5F89C01FBF776FF2778009603462922C9
:104D500023213846FEF7C0FBD5F89C01FBF76AFF1C
:104D60002778009603462A2223213846FEF7B4FB13
:104D7000D5F89C01FBF75EFF2778009603462B22AF
:104D800023213846FEF7A8FBD5F89C01FBF752FF1C
:104D90002478009603462C2223212046FEF79CFB14
:104DA000FFF7ACB8701B00209803002000002041E2
:104DB00074210020814DD5F8E401FBF73BFFDFF8BB
:104DC0000882C8F800007E49FCF740F87D4C267840
:104DD0000127009703460B2211463046FEF77CFB65
:104DE000D5F8E001FBF726FF0346C8F8000020785D
:104DF0000026009613220A21FEF76EFB40F23313C1
:104E000001934FF06909CDF80090D5F8D8315822B8
:104E100008212068FEF7ACFB4FF4BE730193CDF878
:104E20000090D5F8DC31582209212068FEF7A0FB5C
:104E3000D5F8B801FBF7FEFEC8F800006049FCF7A2
:104E400005F894F800C000970346182231466046E2
:104E5000FEF742FBD5F8BC01FBF7ECFE94F800C06E
:104E600000960346192239466046FEF735FBD5F811
:104E7000C001FBF7DFFE94F800C0009603461A223B
:104E800002216046FEF728FBD5F8C401FBF7D2FEED
:104E900094F800C0009603461B2203216046FEF7EB
:104EA0001BFBD5F8C801FBF7C5FEC8F80000444954
:104EB000FBF7CCFF94F800C0009703461C220421A6
:104EC0006046FEF709FBD5F8CC01FBF7B3FE277867
:104ED000009603461D2205213846FEF7FDFAD5F857
:104EE000D001FBF7A7FE2778009603461E22062175
:104EF0003846FEF7F1FAD5F8D401FBF79BFE277888
:104F0000009603461F2207213846FEF7E5FAD5F83A
:104F1000D401FBF78FFE277809260096034620224E
:104F200025213846FEF7D8FAD5F8D401FBF782FEE2
:104F300027780096034621222F213846FEF7CCFA27
:104F4000D5F8D401FBF776FE277800960346222297
:104F50002F213846FEF7C0FAD5F8D401FBF76AFED8
:104F600027780096034623222F213846FEF7B4FA0D
:104F7000D5F8D401FBF75EFE27780096034624227D
:104F80002F213846FEF7A8FAD5F8D401FBF752FED8
:104F900027780096034626222F213846FEF79CFAF2
:104FA000D5F8D401FBF746FE247800960346272265
:104FB0002F212046FEF790FAFEF7A5BF701B0020B8
:104FC000000020417421002098030020894DD5F86D
:104FD0005072DFF82C823846FBF72CFEC8F8000030
:104FE000854C4FF49A730193692600963B465822EC
:104FF00010212068FEF7BCFA4FF4BE7301930096AF
:10500000D5F85432582211212068FEF7B1FAD5F8AC
:105010001002FBF70FFEC8F800007849FBF716FFF7
:105020002678012700970346182200213046FEF714
:1050300053FAD5F81402FBF7FDFD94F800C00026E2
:1050400000960346192239466046FEF745FAD5F820
:105050001802FBF7EFFD94F800C0009603461A22F1
:1050600002216046FEF738FAD5F81C02FBF7E2FD94
:1050700094F800C0009603461B2203216046FEF709
:105080002BFAD5F82002FBF7D5FDC8F800005B49E4
:10509000FBF7DCFE94F800C0009703461C220421B5
:1050A0006046FEF719FAD5F82402FBF7C3FD94F821
:1050B00000C0009603461D2205216046FEF70CFA4B
:1050C000D5F82802FBF7B6FD94F800C00096034619
:1050D0001E2206216046FEF7FFF9D5F82C02FBF7E9
:1050E000A9FD94F800C0009603461F2207216046E0
:1050F000FEF7F2F9D5F83002FBF79CFDC8F8000086
:105100003E49FBF7A3FE94F800C000970346202217
:1051100008216046FEF7E0F93849D8F80000FBF7AF
:1051200095FE94F800C0009703460B2208216046C4
:10513000FEF7D2F9D5F83402FBF77CFD94F800C0F5
:1051400000960346212209216046FEF7C5F9D5F8ED
:105150003802FBF76FFD94F800C000960346222248
:105160000A216046FEF7B8F9D5F83C02FBF762FD6C
:1051700094F800C00096034623220B216046FEF7F8
:10518000ABF9D5F84002FBF755FDC8F800001B4904
:10519000FBF75CFE94F800C00097034624220C2124
:1051A0006046FEF799F9D5F84402FBF743FD2778EE
:1051B0000096034625220D213846FEF78DF9D5F8D5
:1051C0004802FBF737FD27780096034626220E217A
:1051D0003846FEF781F9D5F84C02FBF72BFD247811
:1051E0000096034627220F212046FEF775F9FEF7A9
:1051F0008FBE00BF701B00207421002000002041E2
:1052000098030020884CD4F8A802FBF713FD03464E
:10521000864F3860864D28784FF00909CDF8009008
:105220000B222E21FEF758F9D4F8AC02FBF702FD51
:1052300038604FF4BE73019369260096D4F8A83203
:10524000582210212868FEF793F94FF49A730193BE
:105250000096D4F8AC32582211212868FEF788F95C
:10526000D4F86802FBF7E6FC38607249FBF7EEFD04
:105270002E784FF00108CDF8008003461822002157
:105280003046FEF729F9D4F86C02FBF7D3FC95F809
:1052900000C0002600960346192241466046FEF7EC
:1052A0001BF9D4F87002FBF7C5FC95F800C0009616
:1052B00003461A2202216046FEF70EF9D4F8740262
:1052C000FBF7B8FC95F800C0009603461B220321AB
:1052D0006046FEF701F9D4F87802FBF7ABFC3860C2
:1052E0005449FBF7B3FD95F800C0CDF800800346A4
:1052F0001C2204216046FEF7EFF8D4F87C02FBF78D
:1053000099FC95F800C0009603461D2205216046D1
:10531000FEF7E2F8D4F88002FBF78CFC95F800C0A9
:10532000009603461E2206216046FEF7D5F8D4F803
:105330008402FBF77FFC95F800C0009603461F220D
:1053400007216046FEF7C8F8D4F88802FBF772FC24
:1053500038603849FBF77AFD95F800C0CDF8008039
:105360000346202208216046FEF7B6F8D4F88C02E6
:10537000FBF760FC95F800C00096034621224946E1
:105380006046FEF7A9F8D4F89002FBF753FC95F8B5
:1053900000C00096034622220A216046FEF79CF8D0
:1053A000D4F89402FBF746FC95F800C0009603463B
:1053B00023220B216046FEF78FF8D4F89802FBF702
:1053C00039FC38601B49FBF741FD2F78CDF8008090
:1053D000034624220C213846FEF77EF8D4F89C02BE
:1053E000FBF728FC2F780096034625220D2138462E
:1053F000FEF772F8D4F8A002FBF71CFC2F78009699
:10540000034626220E213846FEF766F8D4F8A40299
:10541000FBF710FC2C780096034627220F2120462C
:10542000FEF75AF8FEF779BD701B002098030020A4
:105430007421002000002041C54ED6F81003FBF770
:10544000F9FB0346C34F3860C34D2878002400940D
:105450000B221121FEF740F8D6F81403FBF7EAFB04
:10546000034638602878009405221221FEF734F8AC
:10547000D6F8C002FBF7DEFB0346386028780094BC
:105480002C222146FEF728F8D6F8C402FBF7D2FBFF
:1054900095F800C0009403462D2201216046FEF7D6
:1054A0001BF8D6F8C802FBF7C5FB95F800C00094BE
:1054B00003462E2202216046FEF70EF8D6F8CC02F3
:1054C000FBF7B8FB95F800C0009403462F22032198
:1054D0006046FEF701F8D6F8D002FBF7ABFB0346B7
:1054E00038602878009430220421FDF7F5FFD6F8C3
:1054F000E002FBF79FFB03463860287800943122D6
:105500000821FDF7E9FF287800943B683222082142
:10551000FDF7E2FF287800943B6833220821FDF76D
:10552000DBFFD6F8E002FBF785FB95F800C000949E
:105530000346342208216046FDF7CEFF2878009408
:105540003B6835220821FDF7C7FFD6F8F002FBF7CC
:1055500071FB95F800C00094034636220C2160468A
:10556000FDF7BAFFD6F8F002FBF764FB95F800C030
:105570000094034637220C216046FDF7ADFFD6F8B4
:10558000F002FBF757FB0346386028780094382276
:105590000C21FDF7A1FF287800943B6839220C21EB
:1055A000FDF79AFF287800943B683A220C21FDF71A
:1055B00093FFD6F80003FBF73DFB034638602878DD
:1055C00000943B221021FDF787FFD6F80003FBF77C
:1055D00031FB2F78009403463C2210213846FDF71A
:1055E0007BFFD6F80003FBF725FB2F7800940346DA
:1055F0003D2210213846FDF76FFFD6F80003FBF778
:1056000019FB2F78009403463E2210213846FDF7FF
:1056100063FFD6F80003FBF70DFB2D7800940346DB
:105620003F2210212846FDF757FFFEF77BBC484C70
:10563000D4F81803FBF7FEFA474D2F7800260096A2
:1056400003460B2231463846FDF746FFD4F81C03CB
:10565000FBF7F0FA2F780096034605220121384621
:10566000FDF73AFFD4F82003FBF7E4FA2F78009611
:105670000346192202213846FDF72EFFD4F82403F1
:10568000FBF7D8FA2F78009603461D2203213846EF
:10569000FDF722FFD4F82803FBF7CCFA2F78009609
:1056A0000346212204213846FDF716FFD4F82803CB
:1056B000FBF7C0FA2F784FF00908CDF800800346B9
:1056C00025222C213846FDF707FF4FF49A730193EA
:1056D00069270097D4F82C33582205212868FDF754
:1056E00047FF4FF4AC7301930097D4F8303358223E
:1056F00006212868FDF73CFF4FF4BE730193009725
:10570000D4F83433582207212868FDF731FFD4F844
:105710003803FBF78FFA2F780096034625220821DD
:105720003846FDF7D9FED4F83C03FBF783FA2D7811
:1057300000960346292241462846FDF7CDFED4F8BF
:10574000F002FBF777FA034B1860FEF7F0BB00BFDF
:10575000701B00209803002074210020454E464D08
:105760004FF49A73019369240094D6F82034582298
:1057700000212868FDF7FCFED6F8243428684FF491
:10578000A1720192009458220121FDF7F1FEFEF76B
:10579000D3BB3A4B1868FBF74DFA00210091034642
:1057A00015220120FDF798FEFEF7DDBBFDF774FD25
:1057B000FEF7DEBBC0B2FDF79DFD314B1A68314BE1
:1057C0001A70314B1868D8B9304B1B683F2B1ED864
:1057D0002F4A13702F4B1B78A52B1CD02E4B002269
:1057E0001A702D4B1B781BB92C4A1370294A137061
:1057F00001232B4A53602B4A137004B0BDE8F08795
:10580000C0B2FDF797FD204B00221A60DCE7204B69
:1058100040221A70DEE71F4B5B785A2BDED11D4BFE
:105820009B78072BDAD11B4BDB78812BD6D1194B18
:105830001B79072BD2D1174B5B79042BCED11A4B96
:105840001B780A2BCAD1144B01221A70114B00226B
:105850001A709979FF29C4D0DA7902EB0122134931
:105860000A601A7A5B7A43EA0223114A1360B8E7A6
:10587000704700BF701B002074210020A80D00207D
:10588000A82300209C030020C80D00204400002015
:1058900040000020380A0020300A002025000020A7
:1058A000004400402400002094030020540A0020FB
:1058B000A808002070470020704700002DE9F04F35
:1058C00000200AE000EB4002D100064A0A44002111
:1058D000D1540133172BF5DD0130832804DC00237C
:1058E000F8E700BF780E0020D94BC8221A60D94BC8
:1058F0001A60D94B1A60D94B1A60D94B1A60002133
:10590000D84B1960D84B1960D84B1960D84B40F26E
:105910004C521A60D74B40F26F621A60D64B40F27D
:1059200056421A60D54B19600124D54B1C60D54BEB
:105930004FF4E1721A604FF49670D34B1860D34B5A
:10594000C8221A60D24B1960596050229A604FF0F9
:105950003C08C3F80C801961586128269E612922F1
:10596000DA61C3F8208064225A621E259D621F22DC
:10597000DA62196359639E63DD6319645A229A647B
:10598000DA6441225A64C34A41F65E7CC2F81CC004
:105990004FF00A0EC2F820E019659965D9651D66B9
:1059A000C3F864809966D9661E675E6799674FF091
:1059B0004609C3F87C904FF0320CC3F880C0C3F89E
:1059C00084C0C3F88810C3F88C00C3F89060C3F893
:1059D0009480C3F898104FF4C870C3F89C00C3F8C3
:1059E000A0504FF0190AC3F8A4A0C3F8A810502083
:1059F0005062C2F828A0C820D0621563C2F8349063
:105A00004FF4FA7090632320D063142010644FF495
:105A10002F775764C3F8B010C3F8B4E0C3F8B86088
:105A2000C3F8BCA0C3F8C010C827C3F8C470C3F83B
:105A3000C860C3F8CCA0C3F8D0E0C3F8D410C3F852
:105A4000D810C3F8DC10C3F8E010C3F8E410152731
:105A50009764D764C2F850C04FF0160AC2F854A039
:105A6000C2F858A04FF4487AC2F85CA010664FF014
:105A7000050AC2F864A091664FF4167BC3F808B11A
:105A80004FF08D0BC3F80CB14FF0630BC3F810B19E
:105A9000C3F814B1C3F818414FF08E0BC3F81CB112
:105AA000C3F82051C3F82451C3F82811C3F82C417E
:105AB000C3F83011C3F834114FF0170BC2F86CB0B3
:105AC000C2F870B0C2F874804FF0180BC2F878B00A
:105AD000C2F87CB0C2F880B0C2F884C0C2F888A016
