:020000040800F2
:1000000000500020157D00087D7C00087F7C0008E2
:10001000817C0008837C0008857C000800000000CB
:10002000000000000000000000000000877C0008C5
:10003000897C0008000000008B7C00088D7C000893
:100040005D7D00085D7D00085D7D00085D7D000828
:100050005D7D00085D7D00085D7D00085D7D000818
:100060005D7D00085D7D00085D7D00085D7D000808
:100070005D7D00085D7D00085D7D00085D7D0008F8
:100080005D7D00085D7D00085D7D00085D7D0008E8
:100090005D7D00085D7D00085D7D00085D7D0008D8
:1000A0005D7D0008697200085D7D0008997C00088C
:1000B000A97C00085D7D00085D7D00085D7D00086D
:1000C0005D7D00085D7D00085D7D00085D7D0008A8
:1000D0005D7D0008ED6D000829640008B97C00080A
:1000E0005D7D00085D7D00085D7D0008000000006A
:1000F0000000000000000000000000000000000000
:0C01000000000000000000005FF808F1A3
:1001100010B5054C237833B9044B13B10448AFF341
:1001200000800123237010BDF802002000000000B1
:100130005CB1000808B5034B1BB103490348AFF39A
:10014000008008BD00000000FC0200205CB1000837
:1001500081F0004102E000BF83F0004330B54FEA78
:1001600041044FEA430594EA050F08BF90EA020FE5
:100170001FBF54EA000C55EA020C7FEA645C7FEA78
:10018000655C00F0E2804FEA5454D4EB5555B8BF9B
:100190006D420CDD2C4480EA020281EA030382EA0C
:1001A000000083EA010180EA020281EA0303362D9E
:1001B00088BF30BD11F0004F4FEA01314FF4801C71
:1001C0004CEA113102D0404261EB410113F0004F83
:1001D0004FEA03334CEA133302D0524263EB43033A
:1001E00094EA050F00F0A780A4F10104D5F1200ED8
:1001F0000DDB02FA0EFC22FA05F2801841F1000133
:1002000003FA0EF2801843FA05F359410EE0A5F106
:1002100020050EF1200E012A03FA0EFC28BF4CF037
:10022000020C43FA05F3C01851EBE37101F00045ED
:1002300007D54FF0000EDCF1000C7EEB00006EEBFA
:100240000101B1F5801F1BD3B1F5001F0CD3490884
:100250005FEA30004FEA3C0C04F101044FEA4452DB
:1002600012F5800F80F09A80BCF1004F08BF5FEA62
:10027000500C50F1000041EB045141EA050130BD42
:100280005FEA4C0C404141EB010111F4801FA4F1E5
:100290000104E9D191F0000F04BF01460020B1FA3A
:1002A00081F308BF2033A3F10B03B3F120020CDA72
:1002B0000C3208DD02F1140CC2F10C0201FA0CF050
:1002C00021FA02F10CE002F11402D8BFC2F1200CB5
:1002D00001FA02F120FA0CFCDCBF41EA0C0190406B
:1002E000E41AA2BF01EB0451294330BD6FEA0404B4
:1002F0001F3C1CDA0C340EDC04F11404C4F120029F
:1003000020FA04F001FA02F340EA030021FA04F3B0
:1003100045EA030130BDC4F10C04C4F1200220FA07
:1003200002F001FA04F340EA0300294630BD21FA45
:1003300004F0294630BD94F0000F83F4801306BF0B
:1003400081F480110134013D4EE77FEA645C18BFFF
:100350007FEA655C29D094EA050F08BF90EA020F96
:1003600005D054EA000C04BF1946104630BD91EA8E
:10037000030F1EBF0021002030BD5FEA545C05D191
:100380004000494128BF41F0004130BD14F58004D0
:100390003CBF01F5801130BD01F0004545F0FE4144
:1003A00041F470014FF0000030BD7FEA645C1ABF79
:1003B000194610467FEA655C1CBF0B46024650EAB0
:1003C000013406BF52EA033591EA030F41F40021DC
:1003D00030BD00BF90F0000F04BF0021704730B562
:1003E0004FF4806404F132044FF000054FF0000137
:1003F00050E700BF90F0000F04BF0021704730B5F8
:100400004FF4806404F1320410F0004548BF4042CC
:100410004FF000013EE700BF42004FEAE2014FEA21
:1004200031014FEA02701FBF12F07F4393F07F4FFC
:1004300081F06051704732F07F4208BF704793F0FF
:100440007F4F04BF41F40021704730B54FF4607412
:1004500001F0004521F000411CE700BF50EA010215
:1004600008BF704730B54FF000050AE050EA0102BE
:1004700008BF704730B511F0004502D5404261EB2E
:1004800041014FF4806404F132045FEA915C3FF46F
:10049000D8AE4FF003025FEADC0C18BF03325FEA0C
:1004A000DC0C18BF033202EBDC02C2F1200300FABD
:1004B00003FC20FA02F001FA03FE40EA0E0021FAE2
:1004C00002F11444BDE600BF70B54FF0FF0C4CF4D0
:1004D000E06C1CEA11541DBF1CEA135594EA0C0F82
:1004E00095EA0C0F00F0DEF82C4481EA030621EABD
:1004F0004C5123EA4C5350EA013518BF52EA0335F8
:1005000041F4801143F4801338D0A0FB02CE4FF0A9
:100510000005E1FB02E506F00042E0FB03E54FF0D9
:100520000006E1FB03569CF0000F18BF4EF0010ED1
:10053000A4F1FF04B6F5007F64F5407404D25FEACD
:100540004E0E6D4146EB060642EAC62141EA555180
:100550004FEAC52040EA5E504FEACE2EB4F1FD0CC2
:1005600088BFBCF5E06F1ED8BEF1004F08BF5FEA40
:10057000500E50F1000041EB045170BD06F00046F2
:1005800046EA010140EA020081EA0301B4EB5C049F
:10059000C2BFD4EB0C0541EA045170BD41F4801197
:1005A0004FF0000E013C00F3AB8014F1360FDEBFBC
:1005B000002001F0004170BDC4F10004203C35DA98
:1005C0000C341BDC04F11404C4F1200500FA05F31B
:1005D00020FA04F001FA05F240EA020001F00042BC
:1005E00021F0004110EBD37021FA04F642EB060132
:1005F0005EEA430E08BF20EAD37070BDC4F10C045C
:10060000C4F1200500FA04F320FA05F001FA04F21F
:1006100040EA020001F0004110EBD37041F100010B
:100620005EEA430E08BF20EAD37070BDC4F1200516
:1006300000FA05F24EEA020E20FA04F301FA05F27E
:1006400043EA020321FA04F001F0004121FA04F226
:1006500020EA020000EBD3705EEA430E08BF20EAF6
:10066000D37070BD94F0000F0FD101F00046400030
:1006700041EB010111F4801F08BF013CF7D041EAB2
:10068000060195F0000F18BF704703F000465200B6
:1006900043EB030313F4801F08BF013DF7D043EA87
:1006A0000603704794EA0C0F0CEA135518BF95EA3D
:1006B0000C0F0CD050EA410618BF52EA4306D1D1C4
:1006C00081EA030101F000414FF0000070BD50EAE3
:1006D000410606BF1046194652EA430619D094EA6D
:1006E0000C0F02D150EA013613D195EA0C0F05D157
:1006F00052EA03361CBF104619460AD181EA0301AB
:1007000001F0004141F0FE4141F470014FF0000062
:1007100070BD41F0FE4141F4780170BD70B54FF0FD
:10072000FF0C4CF4E06C1CEA11541DBF1CEA13557D
:1007300094EA0C0F95EA0C0F00F0A7F8A4EB05045F
:1007400081EA030E52EA03354FEA013100F0888056
:100750004FEA03334FF0805545EA131343EA12631F
:100760004FEA022245EA111545EA10654FEA0026D4
:100770000EF000419D4208BF964244F1FD0404F58D
:10078000407402D25B084FEA3202B61A65EB0305E9
:100790005B084FEA32024FF480104FF4002CB6EBA6
:1007A000020E75EB030E22BFB61A754640EA0C0026
:1007B0005B084FEA3202B6EB020E75EB030E22BF66
:1007C000B61A754640EA5C005B084FEA3202B6EBA7
:1007D000020E75EB030E22BFB61A754640EA9C0066
:1007E0005B084FEA3202B6EB020E75EB030E22BF36
:1007F000B61A754640EADC0055EA060E18D04FEAF4
:10080000051545EA16754FEA06164FEAC30343EA93
:1008100052734FEAC2025FEA1C1CC0D111F4801F60
:100820000BD141EA00014FF000004FF0004CB6E759
:1008300011F4801F04BF01430020B4F1FD0C88BFF8
:10084000BCF5E06F3FF6AFAEB5EB030C04BFB6EB03
:10085000020C5FEA500C50F1000041EB045170BDF6
:100860000EF0004E4EEA113114EB5C04C2BFD4EB23
:100870000C0541EA045170BD41F480114FF0000EA7
:10088000013C90E645EA060E8DE60CEA135594EA23
:100890000C0F08BF95EA0C0F3FF43BAF94EA0C0F26
:1008A0000AD150EA01347FF434AF95EA0C0F7FF49B
:1008B00025AF104619462CE795EA0C0F06D152EAEF
:1008C00003353FF4FDAE1046194622E750EA4106D3
:1008D00018BF52EA43067FF4C5AE50EA41047FF4E4
:1008E0000DAF52EA43057FF4EBAE12E74FF0FF3C49
:1008F00006E000BF4FF0010C02E000BF4FF0010C1A
:100900004DF804CD4FEA410C7FEA6C5C4FEA430C92
:1009100018BF7FEA6C5C1BD001B050EA410C0CBFE1
:1009200052EA430C91EA030F02BF90EA020F002043
:10093000704710F1000F91EA030F58BF994208BFAA
:1009400090422CBFD8176FEAE37040F00100704767
:100950004FEA410C7FEA6C5C02D150EA013C07D1BE
:100960004FEA430C7FEA6C5CD6D152EA033CD3D009
:100970005DF8040B704700BF8446104662468C4603
:100980001946634600E000BF01B5FFF7B7FF002836
:1009900048BF10F1000F01BD4DF808EDFFF7F4FF5F
:1009A0000CBF012000205DF808FB00BF4DF808EDEA
:1009B000FFF7EAFF34BF012000205DF808FB00BF0D
:1009C0004DF808EDFFF7E0FF94BF012000205DF82F
:1009D00008FB00BF4DF808EDFFF7CEFF94BF0120E4
:1009E00000205DF808FB00BF4DF808EDFFF7C4FFDD
:1009F00034BF012000205DF808FB00BF4FEA410C26
:100A00007FEA6C5C02D150EA013C0AD14FEA430C08
:100A10007FEA6C5C02D152EA033C02D14FF0000045
:100A200070474FF0010070474FEA4102B2F1E043D6
:100A300024BFB3F5001CDCF1FE5C0DD901F0004CC5
:100A40004FEAC0024CEA5070B2F1004F40EB830015
:100A500008BF20F00100704711F0804F21D113F141
:100A60003872BCBF01F00040704741F480114FEA7A
:100A70005252C2F11802C2F1200C10FA0CF320FA03
:100A800002F018BF40F001004FEAC1234FEAD32320
:100A900003FA0CFC40EA0C0023FA02F34FEA43038A
:100AA000CCE77FEA625307D150EA01331EBF4FF013
:100AB000FE4040F44000704701F0004040F0FE402E
:100AC00040F40000704700BF80F0004002E000BF2B
:100AD00081F0004142001FBF5FEA410392EA030F29
:100AE0007FEA226C7FEA236C6AD04FEA1262D2EB73
:100AF0001363C1BFD218414048404140B8BF5B4278
:100B0000192B88BF704710F0004F40F4000020F010
:100B10007F4018BF404211F0004F41F4000121F026
:100B20007F4118BF494292EA030F3FD0A2F1010270
:100B300041FA03FC10EB0C00C3F1200301FA03F1AE
:100B400000F0004302D5494260EB4000B0F5000FD1
:100B500013D3B0F1807F06D340084FEA310102F190
:100B60000102FE2A51D2B1F1004F40EBC25008BF42
:100B700020F0010040EA03007047490040EB00000C
:100B800010F4000FA2F10102EDD1B0FA80FCACF13B
:100B9000080CB2EB0C0200FA0CF0AABF00EBC2503A
:100BA00052421843BCBFD0401843704792F0000F28
:100BB00081F4000106BF80F400000132013BB5E77B
:100BC0004FEA41037FEA226C18BF7FEA236C21D0F1
:100BD00092EA030F04D092F0000F08BF0846704756
:100BE00090EA010F1CBF0020704712F07F4F04D124
:100BF000400028BF40F00040704712F100723CBF37
:100C000000F50000704700F0004343F0FE4040F460
:100C1000000070477FEA226216BF08467FEA23631E
:100C20000146420206BF5FEA412390EA010F40F409
:100C3000800070474FF0000304E000BF10F0004355
:100C400048BF40425FEA000C08BF704743F096433C
:100C500001464FF000001CE050EA010208BF704757
:100C60004FF000030AE000BF50EA010208BF7047DE
:100C700011F0004302D5404261EB41015FEA010CF3
:100C800002BF84460146002043F0B64308BFA3F1EB
:100C90008053A3F50003BCFA8CF2083AA3EBC253CD
:100CA00010DB01FA02FC634400FA02FCC2F12002EC
:100CB000BCF1004F20FA02F243EB020008BF20F023
:100CC0000100704702F1200201FA02FCC2F1200289
:100CD00050EA4C0021FA02F243EB020008BF20EA7E
:100CE000DC7070474FF0FF0C1CEAD0521EBF1CEAAC
:100CF000D15392EA0C0F93EA0C0F6FD01A4480EA9A
:100D0000010C400218BF5FEA41211ED04FF0006382
:100D100043EA501043EA5111A0FB01310CF00040AE
:100D2000B1F5000F3EBF490041EAD3715B0040EAD4
:100D3000010062F17F02FD2A1DD8B3F1004F40EBA4
:100D4000C25008BF20F00100704790F0000F0CF077
:100D5000004C08BF49024CEA502040EA51207F3A3B
:100D6000C2BFD2F1FF0340EAC250704740F4000016
:100D70004FF00003013A5DDC12F1190FDCBF00F007
:100D800000407047C2F10002410021FA02F1C2F1B5
:100D9000200200FA02FC5FEA310040F1000053EA51
:100DA0004C0308BF20EADC70704792F0000F00F09F
:100DB000004C02BF400010F4000F013AF9D040EAA5
:100DC0000C0093F0000F01F0004C02BF490011F439
:100DD000000F013BF9D041EA0C018FE70CEAD15337
:100DE00092EA0C0F18BF93EA0C0F0AD030F0004CB7
:100DF00018BF31F0004CD8D180EA010000F000406B
:100E0000704790F0000F17BF90F0004F084691F028
:100E1000000F91F0004F14D092EA0C0F01D1420262
:100E20000FD193EA0C0F03D14B0218BF084608D12B
:100E300080EA010000F0004040F0FE4040F4000075
:100E4000704740F0FE4040F4400070474FF0FF0C08
:100E50001CEAD0521EBF1CEAD15392EA0C0F93EA4F
:100E60000C0F69D0A2EB030280EA010C49024FEAA1
:100E7000402037D04FF0805343EA111143EA10135A
:100E80000CF000408B4238BF5B0042F17D024FF412
:100E9000000C8B4224BF5B1A40EA0C00B3EB510FED
:100EA00024BFA3EB510340EA5C00B3EB910F24BFD6
:100EB000A3EB910340EA9C00B3EBD10F24BFA3EB5B
:100EC000D10340EADC001B0118BF5FEA1C1CE0D123
:100ED000FD2A3FF650AF8B4240EBC25008BF20F0D6
:100EE000010070470CF0004C4CEA50207F32C2BF2A
:100EF000D2F1FF0340EAC250704740F400004FF0C7
:100F00000003013A37E792F0000F00F0004C02BFF7
:100F1000400010F4000F013AF9D040EA0C0093F0C1
:100F2000000F01F0004C02BF490011F4000F013B1B
:100F3000F9D041EA0C0195E70CEAD15392EA0C0F83
:100F400008D142027FF47DAF93EA0C0F7FF470AFBB
:100F5000084676E793EA0C0F04D14B023FF44CAFFE
:100F600008466EE730F0004C18BF31F0004CCAD193
:100F700030F000427FF45CAF31F000437FF43CAFCF
:100F80005FE700BF4FF0FF3C06E000BF4FF0010CF1
:100F900002E000BF4FF0010C4DF804CD4FEA4002D3
:100FA0004FEA41037FEA226C18BF7FEA236C11D01D
:100FB00001B052EA530C18BF90EA010F58BFB2EBD0
:100FC000030088BFC81738BF6FEAE17018BF40F050
:100FD000010070477FEA226C02D15FEA402C05D104
:100FE0007FEA236CE4D15FEA412CE1D05DF8040B89
:100FF000704700BF844608466146FFE70FB5FFF71C
:10100000C9FF002848BF10F1000F0FBD4DF808EDD3
:10101000FFF7F4FF0CBF012000205DF808FB00BFC4
:101020004DF808EDFFF7EAFF34BF012000205DF81E
:1010300008FB00BF4DF808EDFFF7E0FF94BF01206B
:1010400000205DF808FB00BF4DF808EDFFF7D2FF68
:1010500094BF012000205DF808FB00BF4DF808EDAB
:10106000FFF7C8FF34BF012000205DF808FB00BF78
:101070004FEA4002B2F1FE4F0FD34FF09E03B3EBA5
:1010800012620DD94FEA002343F0004310F0004FE5
:1010900023FA02F018BF404270474FF0000070473B
:1010A00012F1610F01D1420205D110F0004008BFDA
:1010B0006FF0004070474FF00000704742000ED2C2
:1010C000B2F1FE4F0BD34FF09E03B3EB126209D483
:1010D0004FEA002343F0004323FA02F070474FF039
:1010E0000000704712F1610F01D1420202D14FF0AE
:1010F000FF3070474FF00000704700BF10F8012B21
:1011000011F8013B012A28BF9A42F7D0D01A704744
:10111000034613F8012B002AFBD1181A0138704737
:101120004FEA410212F5001215D211D56FF478730F
:10113000B3EB625212D94FEAC12343F0004343EAB2
:10114000505311F0004F23FA02F018BF404270478D
:101150004FF00000704750EA013005D111F0004017
:1011600008BF6FF0004070474FF00000704700BFAD
:1011700010B504460E4B18784FF47A73B3FBF0F3B6
:101180000C4A1068B0FBF3F000F0A0F868B90F2C1F
:1011900001D901200AE0002221464FF0FF3000F083
:1011A00055F8034B5C60002000E0012010BD00BF3B
:1011B000000000202001002008B5074A136843F012
:1011C00010031360032000F02FF80020FFF7D0FF7A
:1011D00006F0E4FB002008BD00200240034A11682D
:1011E000034B1B780B441360704700BF4C03002077
:1011F00000000020014B1868704700BF4C0300201E
:1012000038B50446FFF7F6FF0546B4F1FF3F02D0BC
:10121000044B1B781C44FFF7EDFF401BA042FAD3A0
:1012200038BD00BF00000020074AD36823F4E06304
:101230001B041B0C000200F4E060184340F0BF6088
:1012400040F40030D060704700ED00E030B4174B40
:10125000DB68C3F30223C3F10704042C28BF042472
:101260001D1D062D18D9033B4FF0FF3505FA04F478
:1012700021EA0401994005FA03F322EA0303194322
:1012800000280BDB0901C9B200F1604000F56140A4
:1012900080F8001330BC70470023E5E700F00F0032
:1012A0000901C9B2024B1954F4E700BF00ED00E098
:1012B00014ED00E000F01F02400901239340024AB0
:1012C00042F82030704700BF00E100E00138B0F183
:1012D000807F0AD2064B5860064AF02182F823101C
:1012E0000020986007221A6070470120704700BFF5
:1012F00010E000E000ED00E0042805D0054A136886
:1013000023F0040313607047024A136843F0040398
:101310001360704710E000E0704708B5FFF7FCFF6E
:1013200008BD000008B590F82130022B03D004233B
:101330008363012008BD0268136823F00E03136065
:101340000268136823F0010313600368194A93428B
:1013500014D0143293421FD0143293421ED0143250
:1013600093421ED0143293421ED01432934202D0C4
:101370004FF0807203E04FF4801200E001220E4B28
:101380005A60012380F82130002380F82030436B1D
:101390006BB198470020CDE71022F0E74FF4807240
:1013A000EDE74FF48052EAE74FF48032E7E70020A0
:1013B000C0E700BF08000240000002400A4B1B6962
:1013C00013F0800F0DD0084B084A5A6002F18832A2
:1013D0005A601B6913F0800F01D001207047002074
:1013E00070470020704700BF00200240230167457E
:1013F000034A136943F0800313610020704700BF64
:1014000000200240F0B482B000263546A1E0002C56
:1014100059D0012C00D1CE68FF2B68D88446FF2B11
:1014200068D8AC00DCF800200F27A74022EA0702AA
:1014300006FA04F42243CCF800204A6812F0805FD8
:1014400000F086805E4A946944F0010494619269D8
:1014500002F001020192019AAC08A71C594A52F805
:10146000272005F00307BF004FF00F0C0CFA07FC14
:1014700022EA0C0C544A904242D002F5806290421B
:101480007FD002F5806290427DD002F5806290426A
:1014900034D0042235E04D4FBC4214D00BD94C4F10
:1014A000BC4210D007F58037BC420CD0A7F580179E
:1014B000BC42B1D107E0A7F58017BC4203D007F5C5
:1014C0008037BC42A8D18C687CB1012C08D0426125
:1014D0000826A1E7CE6808369EE7CE680C369BE763
:1014E0000261082698E7002696E7042694E700F1B3
:1014F000040C94E7A5F10804A40093E7032200E09C
:101500000022BA4042EA0C0202342E4F47F824204F
:101510004A6812F4803F38D02E4C22681A43226069
:101520004A6812F4003F36D02A4C62681A4362605F
:101530004A6812F4801F34D0264CA2681A43A26075
:101540004A6812F4001F32D0224CE2681343E36071
:1015500001350F2D31D80122AA400B6813409A4261
:10156000F6D14C68122CB8D095D8022CB2D07FF6A8
:101570004EAF032CB7D0112C7FF44EAFCE6804369B
:101580004AE70122BDE70222BBE7124C226822EAA9
:1015900003022260C4E70F4C626822EA0302626021
:1015A000C6E70C4CA26822EA0302A260C8E7094C15
:1015B000E26822EA0303E360CAE702B0F0BC7047C6
:1015C000001002400000014000080140000021100E
:1015D00000003110000401408368194201D100204D
:1015E00070470120704712B9090401617047016119
:1015F0007047000082B0084B1B68084AA2FB032317
:101600005B0A00FB03F0019000BF019B5A1E019290
:10161000002BF9D102B0704720010020D34D621099
:1016200070B582B00446036813F0010F2CD0AB4BA9
:101630005B6803F00C03042B1DD0A84B5B6803F020
:101640000C03082B12D06368B3F5803F41D0002B08
:1016500055D103F1804303F504331A6822F4803234
:101660001A601A6822F480221A6037E09B4B5B688C
:1016700013F4803FE7D0994B1B6813F4003F03D06D
:101680006368002B00F0AE81236813F0020F76D060
:10169000924B5B6813F00C0F5FD0904B5B6803F0CC
:1016A0000C03082B54D02369002B00F08A808C4B4C
:1016B00001221A60FFF79EFD0546884B1B6813F058
:1016C000020F75D1FFF796FD401B0228F5D90320C4
:1016D0008BE1824A136843F480331360636843B339
:1016E000FFF788FD05467D4B1B6813F4003FCBD107
:1016F000FFF780FD401B6428F5D9032075E1B3F5A1
:10170000A02F09D0754B1A6822F480321A601A682B
:1017100022F480221A60E1E703F18043A3F53C3311
:101720001A6842F480221A601A6842F480321A6001
:10173000D4E7FFF75FFD0546684B1B6813F4003FD5
:10174000A2D0FFF757FD401B6428F5D903204CE1D8
:10175000624B5B6813F4803FA5D1604B1B6813F0AC
:10176000020F04D02369012B01D001203DE15B4A27
:10177000136823F0F803616943EAC1031360236827
:1017800013F0080F32D0A369002B5BD0554B012218
:101790001A60FFF72FFD0546504B5B6A13F0020FEE
:1017A00021D1FFF727FD401B0228F5D903201CE1BA
:1017B0004A4A136823F0F803616943EAC1031360DE
:1017C000DDE7474B00221A60FFF714FD0546434B47
:1017D0001B6813F0020FD2D0FFF70CFD401B02284C
:1017E000F5D9032001E10120FFF704FF236813F07E
:1017F000040F00F09780394BDB6913F0805F33D121
:10180000364BDA6942F08052DA61DB6903F08053CB
:101810000193019B0125344B1B6813F4807F25D075
:10182000E368012B36D0002B4CD103F1804303F544
:1018300004331A6A22F001021A621A6A22F00402C0
:101840001A622CE0274B00221A60FFF7D3FC0546F2
:10185000224B5B6A13F0020FC8D0FFF7CBFC401B92
:101860000228F5D90320C0E00025D4E71E4A1368FA
:1018700043F480731360FFF7BDFC06461A4B1B68E8
:1018800013F4807FCCD1FFF7B5FC801B6428F5D919
:101890000320AAE0114A136A43F001031362E368CC
:1018A00073B3FFF7A7FC06460C4B1B6A13F0020F3D
:1018B00037D1FFF79FFC801B41F288339842F3D960
:1018C000032092E0052B11D0044B1A6A22F001028A
:1018D0001A621A6A22F004021A62E0E7001002405B
:1018E000000042428004424200700040414B1A6AAC
:1018F00042F004021A621A6A42F001021A62CEE74A
:10190000FFF778FC06463B4B1B6A13F0020F08D02A
:10191000FFF770FC801B41F288339842F3D9032013
:1019200063E0E5B9E369002B5ED0324A526802F009
:101930000C02082A5BD0022B17D02F4B00221A6012
:10194000FFF758FC04462B4B1B6813F0007F47D071
:10195000FFF750FC001B0228F5D9032045E0254A7B
:10196000D36923F08053D361DCE7234B00221A6054
:10197000FFF740FC05461F4B1B6813F0007F06D0A5
:10198000FFF738FC401B0228F5D903202DE0236A1D
:10199000B3F5803F1AD017494B6823F47413226AB9
:1019A000606A024313434B60134B01221A60FFF736
:1019B00021FC04460F4B1B6813F0007F0ED1FFF78C
:1019C00019FC001B0228F5D903200EE0094A5368D0
:1019D00023F40033A1680B435360DCE7002004E0EC
:1019E000002002E0012000E0002002B070BD0120D4
:1019F000FBE700BF001002406000424210B487B015
:101A0000164C94E80F000DF1180C0CE90F00238A16
:101A1000ADF80430124B5B6803F00C02082A1AD1AF
:101A2000C3F38342624412F8102C13F4803F05D1B3
:101A30000C4800FB02F007B010BC7047084B5B6815
:101A4000C3F34043634413F8143C074800FB02F01F
:101A5000B0FBF3F0EFE70448EDE700BF78B1000812
:101A60000010024000093D0000127A00594B1B682B
:101A700003F007038B420CD2564A136823F0070386
:101A80000B431360136803F007038B4201D001205E
:101A9000704770B5036813F0020F06D04E4A5368C2
:101AA00023F0F0038468234353600C460546036823
:101AB00013F0010F52D04368012B23D0022B28D002
:101AC000454A126812F0020F00F0828042494A68CB
:101AD00022F0030213434B60FFF78CFB06466B6852
:101AE000012B1DD0022B2AD03B4B5B6813F00C0F4F
:101AF00034D0FFF77FFB801B41F288339842F3D943
:101B0000032064E0344A126812F4003FDED1012061
:101B10005DE0314A126812F0007FD7D1012056E013
:101B20002D4B5B6803F00C03042B17D0FFF762FB0F
:101B3000801B41F288339842F2D9032047E0264BBC
:101B40005B6803F00C03082B08D0FFF753FB801BE6
:101B500041F288339842F2D9032038E01D4B1B68CC
:101B600003F00703A3420CD91A4A136823F00703B2
:101B700023431360136803F00703A34201D001203D
:101B800025E02B6813F0040F06D0134A536823F4A2
:101B9000E063E9680B4353602B6813F0080F07D02C
:101BA0000D4A536823F46053296943EAC103536023
:101BB000FFF724FF084B5B68C3F30313074AD35CAA
:101BC000D840074B18600020FFF7D2FA002070BD04
:101BD0000120FCE7002002400010024048B6000847
:101BE00020010020014B1868704700BF2001002031
:101BF00008B5FFF7F7FF044B5B68C3F30223034A02
:101C0000D35CD84008BD00BF0010024058B60008A1
:101C100008B5FFF7E7FF044B5B68C3F3C223034A31
:101C2000D35CD84008BD00BF0010024058B6000881
:101C3000F8B505460F4616461C463BE02CB1FFF7AB
:101C4000D9FA069BC01AA04234D32A68536823F0FD
:101C5000E00353606B68B3F5827F0BD0AB6AB3F5DA
:101C6000005F14D0012385F85130002385F85030EF
:101C7000032027E0AB68B3F5004F02D0B3F5806FC7
:101C8000ECD12A68136823F040031360E6E72A6862
:101C9000136823F400531B041B0C13602A68136899
:101CA00043F400531360DDE70123B34209D0B4F1DC
:101CB000FF3FC3D12B689B6837EA0303F4D00023AE
:101CC000F3E70020F8BD10B582B0044600920B4641
:101CD00000228021FFF7ACFF034610B9184602B07E
:101CE00010BD636D43F0200363650323F6E72DE920
:101CF000F04184B01E4690F85030012B00F0C880AF
:101D000004460D469046012380F85030FFF772FAE2
:101D1000074694F85130DBB2012B0AD0022301228E
:101D200084F85120002284F85020184604B0BDE801
:101D3000F081002D00F0A480B8F1000F00F0A28027
:101D4000032384F85130002363652563A4F83480AD
:101D5000A4F83680A363A387E38763642364A3683E
:101D6000B3F5004F1BD023681A6812F0400F03D15F
:101D70001A6842F040021A60E368B3F5006F14D0AD
:101D800063681BB1E38E9BB2012B3ED1236815F82B
:101D9000012B1A73E38E013B9BB2E38635E0226888
:101DA000136843F480431360DDE763681BB1E38E7F
:101DB0009BB2012B0DD1236835F8022BDA60E38E3C
:101DC000013B9BB2E38604E0002E5DD0B6F1FF3FFD
:101DD0000FD1E38E9BB27BB323689A6812F0020F97
:101DE000F2D035F8022BDA60E38E013B9BB2E3863A
:101DF000EFE7FFF7FFF9C01BB042EAD303238EE7FA
:101E0000002E43D0B6F1FF3F0FD1E38E9BB29BB1C2
:101E100023689A6812F0020FF2D015F8012B1A739A
:101E2000E38E013B9BB2E386EFE7FFF7E3F9C01BCC
:101E3000B042EAD3032372E700973346012202211E
:101E40002046FFF7F5FE08B1032368E73A4631461E
:101E50002046FFF738FF034618B1202363650123AE
:101E60005DE7A26832B903922268D1680391926853
:101E70000392039A626D002A3FF451AF01234EE7AB
:101E800001234CE701234AE7032348E7032346E7FE
:101E900002234AE700283CD010B5044600238362A1
:101EA00090F85130002B31D0022384F85130226851
:101EB000136823F0400313606368A2681343E26869
:101EC00013432269134362691343A26902F4007247
:101ED0001343E2691343226A1343A16A22680B4346
:101EE0001360638B03F00403616A22680B43536041
:101EF0002368E26A1A612268D36923F40063D3611C
:101F000000206065012384F8513010BD05F096FD76
:101F1000CAE701207047000070B4036A23F0010390
:101F20000362036A4268846924F073040D6845EA19
:101F3000040623F002048B6823430D4DA84209D008
:101F40000B4DA8420DD0426086614A68426303622D
:101F500070BC704723F00803CC68234323F00403CC
:101F6000EEE722F440724C6914438A692243EAE79F
:101F7000002C014030B4036A23F480730362036AC7
:101F80004268C46924F073040D682C4323F4007381
:101F90008D6843EA05230F4DA84209D00D4DA84294
:101FA0000ED04260C4614A68C263036230BC7047AD
:101FB00023F40063CD6843EA052323F48063EDE74F
:101FC00022F440524D6942EA05128D6942EA051237
:101FD000E7E700BF002C014030B4036A23F48053CC
:101FE0000362036A4468C26922F4E6420D6842EA69
:101FF000052223F400538D6843EA0533074DA842B8
:1020000006D04460C2614A680264036230BC704713
:1020100024F480444D6944EA8514F2E7002C014021
:1020200010B4036A046A24F001040462846924F091
:10203000F00444EA021223F00A030B4382610362B4
:1020400010BC704710B4036A23F010030362846964
:10205000036A24F4704444EA023223F0A00343EA02
:1020600001138261036210BC7047836823F0700320
:1020700041F0070119438160704710B4846824F46B
:102080007F4442EA03230B432343836010BC704721
:102090000268D36843F00103D3600268136843F019
:1020A00001031360002070477047704790F83C3080
:1020B000012B7DD010B50446012380F83C3002236B
:1020C00080F83D300268936823F47F4323F0770360
:1020D00093600B68402B57D010D9702B3ED01FD87F
:1020E000502B47D0602B32D1CA6849680068FFF78F
:1020F000A9FF60212068FFF7B8FF28E0102B4DD022
:1021000008D9202B4FD0302B21D130210068FFF788
:10211000ACFF1CE0DBB900210068FFF7A6FF16E06A
:10212000B3F5805F0ED0B3F5005F10D1CB684A687D
:1021300089680068FFF7A1FF2268936843F4804331
:10214000936004E00268936823F00703936001231F
:1021500084F83D30002084F83C0010BDCB684A680C
:1021600089680068FFF789FF2268936843F0770366
:102170009360ECE7CA6849680068FFF751FF502197
:102180002068FFF772FFE2E7CA6849680068FFF756
:1021900047FF40212068FFF768FFD8E7102100685B
:1021A000FFF763FFD3E720210068FFF75EFFCEE76C
:1021B000022070477047704770477047704710B5EE
:1021C000044603681A6912F0020F11D0DA6812F09F
:1021D000020F0DD06FF002021A610123037703682A
:1021E0009B6913F0030F70D0FFF7E6FF00232377FE
:1021F00023681A6912F0040F12D0DA6812F0040F83
:102200000ED06FF004021A610223237723689B69C2
:1022100013F4407F5FD02046FFF7CEFF00232377E3
:1022200023681A6912F0080F12D0DA6812F0080F4A
:102230000ED06FF008021A61042323772368DB694C
:1022400013F0030F4ED02046FFF7B6FF002323778D
:1022500023681A6912F0100F12D0DA6812F0100F0A
:102260000ED06FF010021A61082323772368DB6910
:1022700013F4407F3DD02046FFF79EFF00232377D5
:1022800023681A6912F0010F03D0DA6812F0010F07
:1022900036D123681A6912F0800F03D0DA6812F081
:1022A000800F34D123681A6912F0400F03D0DA6826
:1022B00012F0400F32D123681A6912F0200F03D0B8
:1022C000DA6812F0200F30D110BDFFF774FF2046FE
:1022D000FFF773FF8AE72046FFF76DFF2046FFF701
:1022E0006CFF9BE72046FFF766FF2046FFF765FF80
:1022F000ACE72046FFF75FFF2046FFF75EFFBDE734
:102300006FF001021A612046FFF754FFC1E76FF03A
:1023100080021A61204600F0E1F9C3E76FF0400245
:102320001A612046FFF74AFFC5E76FF020021A61E5
:10233000204600F0D2F9C7E703681B4A90420AD052
:10234000B0F1804F07D0A2F59432904203D002F54D
:102350008062904203D123F070034A681343124A0B
:1023600090420AD0B0F1804F07D0A2F5943290424B
:1023700003D002F58062904203D123F44073CA680F
:10238000134323F080034A69134303608B68C362DD
:102390000B688362044B984202D00123436170476B
:1023A0000B690363F9E700BF002C0140A8B110B529
:1023B000044690F83D305BB1022384F83D30211D86
:1023C0002068FFF7B9FF012384F83D30002010BDDD
:1023D00080F83C3005F056FBEEE701207047A8B1CD
:1023E00010B5044690F83D305BB1022384F83D30CF
:1023F000211D2068FFF7A0FF012384F83D30002055
:1024000010BD80F83C30FFF74FFEEEE7012070472B
:10241000A8B110B5044690F83D305BB1022384F8B2
:102420003D30211D2068FFF787FF012384F83D30F0
:10243000002010BD80F83C30FFF737FEEEE70120AA
:102440007047000030B4036A23F010030362036A8C
:102450004468826922F4E6420D6842EA052223F0CC
:1024600020038D6843EA05130E4DA84209D00D4D97
:10247000A8420ED0446082614A688263036230BC25
:10248000704723F08003CD6843EA051323F040032F
:10249000EDE724F440644D6944EA85048D6944EA1B
:1024A0008504E7E7002C014090F83C30012B28D050
:1024B00010B50446012380F83C30022380F83D30FB
:1024C0000C2A0BD8DFE802F0070A0A0A110A0A0AE6
:1024D000150A0A0A19000068FFF71EFD012384F897
:1024E0003D30002084F83C0010BD0068FFF7AAFFD3
:1024F000F4E70068FFF73EFDF0E70068FFF76CFDCA
:10250000ECE70220704738B590F83C30012B66D0DC
:102510000D460446012380F83C30022380F83D300C
:102520000C2A1AD8DFE802F007191919201919190D
:102530003419191947000068FFF7EEFC2268936907
:1025400043F0080393612268936923F004039361C5
:102550002268936929690B439361012384F83D3014
:10256000002084F83C0038BD0068FFF76BFF22684C
:10257000936943F4006393612268936923F4806351
:10258000936122689369296943EA01239361E4E72F
:102590000068FFF7EFFC2268D36943F00803D361BA
:1025A0002268D36923F00403D3612268D3692969BF
:1025B0000B43D361D1E70068FFF70EFD2268D369B2
:1025C00043F40063D3612268D36923F48063D36149
:1025D0002268D369296943EA0123D361BDE7022058
:1025E000C1E710B4012303FA01F4036A23EA0403E8
:1025F0000362036A8A401343036210BC7047000001
:1026000010B5044601220068FFF7EBFF2368074A74
:10261000934206D02268136843F001031360002040
:1026200010BD5A6C42F400425A64F3E7002C01409A
:1026300090F83C30012B25D0012380F83C30CB684A
:1026400023F440738A68134323F480634A68134376
:1026500023F400630A68134323F480530A69134385
:1026600023F400534A69134323F480438A691343D4
:1026700023F40043134302685364002380F83C3082
:10268000184670470220704790F83C30012B22D04A
:1026900030B4012280F83C20022380F83D300468E9
:1026A000636823F070036360046863680D682B43FC
:1026B00063600468A36823F08003A3600468A368D0
:1026C00049680B43A36080F83D20002380F83C302C
:1026D000184630BC70470220704770477047026848
:1026E000D36823F49073D3600268536923F0010325
:1026F0005361202380F83A30704790F83930DBB2CC
:10270000212B2AD18368B3F5805F16D0036A5A1C47
:1027100002621A7803685A60C38C013B9BB2C3847F
:10272000EBB90268D36823F08003D3600268D368F2
:1027300043F04003D36000207047036A1B8802689F
:10274000C3F30803536003691BB9036A02330362CE
:10275000E2E7036A01330362DEE7022070470020EC
:10276000704700002DE9F84305460268136923F419
:102770004053C1680B431361836802691343426984
:1027800013430168CA6822F4B05222F00C021343CA
:10279000CB600268536923F4407381690B43536132
:1027A0000268594B9A4257D0FFF722FA00EB80009B
:1027B00000EB80006C68A400B0FBF4F4534FA7FB5F
:1027C000043464092601FFF713FA00EB800000EBE4
:1027D00080006C68A400B0FBF4F9FFF709FA00EB85
:1027E000800000EB80006C68A400B0FBF4F4A7FB51
:1027F000043464094FF0640808FB14942401323453
:10280000A7FB0434640904F0F0043444FFF7F0F942
:1028100000EB800000EB80006E68B600B0FBF6F6BF
:10282000FFF7E6F900EB800000EB80006B689B008F
:10283000B0FBF3F0A7FB0030400908FB10684FEA3B
:10284000081808F13208A7FB0837C7F343172B68AD
:1028500027449F60BDE8F883FFF7DAF900EB8000BA
:1028600000EB80006C68A400B0FBF4F4274FA7FBDA
:10287000043464092601FFF7CBF900EB800000EB7C
:1028800080006C68A400B0FBF4F9FFF7C1F900EB1D
:10289000800000EB80006C68A400B0FBF4F4A7FBA0
:1028A000043464094FF0640808FB149424013234A2
:1028B000A7FB0434640904F0F0043444FFF7A8F9DA
:1028C00000EB800000EB80006E68B600B0FBF6F60F
:1028D000FFF79EF900EB800000EB80006B689B0027
:1028E000B0FBF3F0A7FB0030400908FB10684FEA8B
:1028F000081808F13208A7FB0837C7F343172B68FD
:1029000027449F60A6E700BF003801401F85EB51B8
:102910002DE9F04105460F4616469846069C2B6861
:102920001B6837EA03030CBF01230023B3421DD108
:10293000B4F1FF3FF3D02CB1FEF75CFCA0EB080034
:10294000A042ECD92A68D36823F4D073D3602A68F4
:10295000536923F001035361202385F8393085F84A
:102960003A30002385F83830032000E00020BDE82D
:10297000F08158B310B5044690F839300BB32423D6
:1029800084F839302268D36823F40053D36020469A
:10299000FFF7E8FE2268136923F49043136122686D
:1029A000536923F02A0353612268D36843F4005328
:1029B000D3600020E063202384F8393084F83A3073
:1029C00010BD80F8383005F0C5F8D8E70120704711
:1029D0002DE9F04182B01E4690F83930DBB2202B51
:1029E00055D104460D469046002955D0002A55D0B1
:1029F00090F83830012B53D0012380F83830002371
:102A0000C363212380F83930FEF7F4FB0746A4F8AE
:102A10002480A4F8268010E000963B460022802106
:102A20002046FFF775FF00283CD12B882268C3F3AE
:102A3000080353602369C3B90235E38C9BB2B3B179
:102A4000E38C013B9BB2E384A368B3F5805FE3D0E2
:102A500000963B46002280212046FFF759FF18BB15
:102A60002A7823685A600135E7E70135E5E70096E3
:102A70003B46002240212046FFF74AFF0346A8B903
:102A8000202284F83920002284F8382000E0022334
:102A9000184602B0BDE8F0810123F9E70123F7E70A
:102AA0000223F5E70323F3E70323F1E70323EFE72B
:102AB000704708B50168CB6823F04003CB60202342
:102AC00080F83930FFF7F4FF002008BD704708B5E3
:102AD00090F83A30DBB2222B45D18368B3F5805FA2
:102AE0000ED0036903BB03685A68836A591C81626C
:102AF0001A70C38D013B9BB2C385F3B1002033E054
:102B0000826A036943B903685B68C3F308031380EF
:102B1000836A02338362ECE703685B68DBB213808D
:102B2000836A01338362E4E703685B68826A511C4D
:102B3000816203F07F031370DBE70268D36823F040
:102B40002003D3600268D36823F48073D3600268E3
:102B5000536923F001035361202380F83A30FFF7D3
:102B6000B5FF002000E0022008BD704710B5044604
:102B700002681368D168526913F00F0005D113F091
:102B8000200F02D011F0200F53D1002867D012F08F
:102B9000010202D111F4907F61D013F0010F06D031
:102BA00011F4807F03D0E06B40F00100E06313F08C
:102BB000040F04D01AB1E06B40F00200E06313F0A0
:102BC000020F04D01AB1E06B40F00400E06313F090
:102BD000080F04D01AB1E26B42F00802E263E26B24
:102BE000002A48D013F0200F02D011F0200F24D17A
:102BF00023685B6903F04003E26B12F0080F00D119
:102C00003BB32046FFF76BFD23685A6912F0400F73
:102C10001BD05A6922F040025A61636B8BB11A4A89
:102C20005A63606BFEF77EFB28B3606B436B98477B
:102C300021E02046FFF74BFF1DE02046FFF747FF4E
:102C4000D6E72046FFF791FF15E02046FFF78DFFFE
:102C500011E02046FFF789FF0023E3630BE013F048
:102C6000800F02D011F0800F06D113F0400F02D078
:102C700011F0400F04D110BD2046FFF73EFDFAE7EA
:102C80002046FFF716FFF6E78D2C000808B5406ACE
:102C90000023C385C384FFF768FF08BDF0B587B084
:102CA0001B4B9A6942F008029A619A6902F0080285
:102CB0000092009A9A6942F010029A619B6903F0AF
:102CC00010030193019B082302930126039600251C
:102CD0000495022405940DEB03010E48FEF792FBC8
:102CE0004FF4805302930396049505940A4F02A96A
:102CF0003846FEF787FB4FF4006302930396049572
:102D0000059402A93846FEF77DFB07B0F0BD00BF71
:102D100000100240000C01400010014010B50446B4
:102D200010F0010F17D0012208211548FEF75BFCB7
:102D300014F0020F15D001224FF480511148FEF714
:102D400052FC14F0040F13D100224FF400610D481F
:102D5000FEF749FC10BD002208210948FEF743FC9C
:102D6000E6E700224FF480510648FEF73CFCE8E716
:102D700001224FF400610348FEF735FCEAE700BF8B
:102D8000000C01400010014000B587B00C4B9A695F
:102D900042F008029A619B6903F008030193019BCA
:102DA0004FF460730293012303930223049305936A
:102DB00002A90448FEF726FB07B05DF804FB00BF3C
:102DC00000100240000C014010B5044610F0010F45
:102DD00017D0012280211548FEF705FC14F0020FE0
:102DE00015D001224FF400711048FEF7FCFB14F0DF
:102DF000040F13D100224FF480710C48FEF7F3FB4F
:102E000010BD002280210948FEF7EDFBE6E7002215
:102E10004FF400710548FEF7E6FBE8E701224FF4A6
:102E200080710248FEF7DFFBEAE700BF000C0140BB
:102E3000F0B587B0234B9A6942F010029A619A6903
:102E400002F010020092009A9A6942F004029A611C
:102E50009B6903F004030193019B1B4D00224FF477
:102E600080412846FEF7BFFB184E00224FF48061D8
:102E70003046FEF7B8FB4FF48043029301240394DD
:102E800004940227059702A92846FEF7BBFA4FF4DF
:102E90008063029303940494059702A93046FEF7D9
:102EA000B1FA4FF40043029300260396049402A95A
:102EB0002846FEF7A7FAFFF7F1FE3046FFF72EFF90
:102EC00007B0F0BD001002400008014000100140B2
:102ED00070B500260B2500E0013D002D20DB124CD3
:102EE00000224FF480412046FEF77DFB00BF00BF6B
:102EF00000BF00BF00BF00BF01224FF48041204649
:102F0000FEF771FB00BF00BF4FF400412046FEF703
:102F100063FB0028E0D00120A8400643B6B2DBE7FF
:102F2000701E80B270BD00BF0008014038B51F4C54
:102F300001224FF480612046FEF755FB00224FF43A
:102F400080612046FEF74FFB01224FF48041184874
:102F5000FEF749FB0024012C25D8154D00224FF423
:102F600080412846FEF73FFB01224FF4804128466E
:102F7000FEF739FB4FF400412846FEF72DFB10B158
:102F80000134E4B2E7E7FFF7A3FF044600224FF461
:102F900080412846FEF727FB01224FF48061034859
:102FA000FEF721FB00E00024204638BD0010014060
:102FB0000008014008B5FFF7B1FEFFF7B7FF08BDF5
:102FC00008B504F075FCFFF7DFFE08BD08B504F096
:102FD000C1FC08BD08B5FFF7F7FE08BDF8B505460A
:102FE00014460846FDF7F6F902460B4600200D4947
:102FF00004F0B6FE06460F462846FDF70DFA3246A7
:103000003B46FDF761FAFDF70FFDFEF731F8FDF7DE
:1030100015FEFDF701FA02460B460349204606F06D
:103020000FFCF8BD0000244060B600082DE9F04315
:10303000DDF81CE0DDF820C0099F314C266876B928
:10304000304CA52525705A2565708225E5702E4DDA
:103050002D78257100256571A5710625E5714FEA6A
:103060002029C6EBC604650005F10A08254C04F8C2
:10307000089005F10B0804F808004FEA212805F133
:103080000C0004F8008005F10D0021544FEA2228BD
:10309000711CC1EBC106700004F8008005F10F003F
:1030A0002254181205F11002A05405F11102A35484
:1030B0004FEA2E2205F11203E25405F1130304F83E
:1030C00003E04FEA2C2205F11403E25405F1150345
:1030D00004F803C03A1205F11603E2541735675598
:1030E000074B1960CAB2C2EBC20043000733A3709A
:1030F000090A21726272054B01221A60BDE8F08351
:1031000070030020580700200800002084080020D9
:1031100030B4104B1A68C2EBC202530003F10A0428
:103120002546002307E00C4A12681A440B49C85C84
:103130000B4988540133AB42F5DB0A4B00221A607D
:10314000054A1368234413600133074A136030BCF7
:10315000704700BF700300200C0A002058070020B1
:1031600080030020140A0020300A002010B40D490A
:103170000B680D4AA524D45401335A24D454013386
:103180000424D45401338024D45401330324D4546C
:1031900001330024D4540133D05401330B6010BCEC
:1031A000704700BF0C0A00208003002010B40B49B8
:1031B0000B680B4AA524D45401335A24D454013348
:1031C0000324D45401338024D45401330224D4542E
:1031D0000133D05401330B6010BC70470C0A00203F
:1031E0008003002010B40B490B680B4AA524D4546B
:1031F00001335A24D45401330324D454013380249A
:10320000D45401330124D4542344D05423440B60B8
:1032100010BC70470C0A002080030020002305E04A
:10322000074A1A44202111710133DBB2054A125CAE
:103230009A42F5D8024A134400221A71704700BF1F
:10324000080000208CB1000830B587B01546044650
:10325000062B17D801AA19462846FFF7BFFE002300
:1032600003E0154A02441171013306AA1A4412F808
:10327000141C29B11819104A02441279002AF0D1FD
:1032800007B030BD01AA19462846FFF7A7FE002364
:1032900004E0094A0A4420211171013306AA1A44A4
:1032A00012F8142C002AEBD01919034A0A44127997
:1032B000002AEED1E4E700BF08000020F0B400EBE4
:1032C000400044013334104D2B681048A522C254ED
:1032D00001330F4E32685A27C75401330527C754AC
:1032E00001338227C7540133270AC7540133C4541A
:1032F00001330C12C4540133C15401332B60083222
:103300003260F0BC704700BF300A0020800300200C
:103310000C0A002070B4174D2B68174AA524D4540A
:1033200001335A24D45402338224D454013300EBA1
:1033300040046601114C2478240144EA2624D45424
:103340000133D65401332B6000230A480268CD5C58
:10335000094CA554013202600133C85C0028F4D145
:10336000D41A043C033304490B55054B1A6070BC56
:10337000704700BF300A002080030020380A002078
:103380000C0A002038B5224D2D68B5F5167F13D2F2
:103390001D461446884210D01E4B53F822301E4A58
:1033A00011688B4217D11D4B53F82400FDF742FCE6
:1033B0002946FDF72BFEA8B138BD164B53F8223035
:1033C000174A91698B42EED0124B43F824102046E5
:1033D000FFF774FFE7E70F4B43F824102046FFF791
:1033E0006DFFE0E7E0B2FFF719FF9DF810302A46C5
:1033F00021460020FFF728FF0A492046FFF78AFFF1
:103400002846FDF75BFE054B43F82400D4E700BFD8
:103410000C0A00208C0800203C0A0020D405002063
:10342000080000200C00002010B584B0A3B90F24C0
:10343000884213D1104B1B7813F0040F1AD0079B4E
:103440000293069B01930F230093E3180022214669
:103450002320FFF7EBFD0DE01E24E9E7079B029315
:10346000069B01930F230093E3180022214623209B
:10347000FFF7DCFD04B010BD400A002000207047BB
:103480000020704710B50446FDF742FEC82382B203
:1034900021460248FFF79CFA10BD00BF1C0B00201C
:1034A000074A936943F001039361064B5A6822F07F
:1034B00040725A605A6842F080625A60704700BF9A
:1034C00000100240000001400023B34A1370B34AC9
:1034D0001360B34B1B78002B41F09B842DE9F04720
:1034E00084B0B04A1360B04A1360B04A1360B04A67
:1034F0001360B04B1B784F2B00F2C6810133AD4AED
:103500001370AC4B1978AC4A52F82130013342F8B1
:103510002130AA4B1B680D2B00F0BA81A84B182252
:103520001A70A34B1B684BB9A64B1B78002B40F0BD
:103530003C82A54B1B780D2B40F25182A34B0022FD
:103540001A60A34B1B7813F0040F00F05E82A14BAE
:103550004FF478421A609B4B1B78002B40F05A8244
:103560009D4B1B780020009002460121FFF70AFFC7
:103570009A4B1B7800240094012211462046FFF745
:1035800001FF974B1B780094022201212046FFF790
:10359000F9FE944B1878FDF74DFB934B1860934957
:1035A000FDF754FC01250295FCF736FFCDE900013B
:1035B000032221462846FFF7E5FE8D4B1B78002BA2
:1035C00040F02F828B4BD3F82031272B02D80833C1
:1035D000894A1360874BD3F82431272B02D808334C
:1035E000854A5360834BD3F82831272B02D8083300
:1035F000814A93607F4BD3F82C31272B02D80833B4
:103600007D4AD3607B4BD3F85031272B02D8083347
:10361000794A1361784D2B68002400945B080722D7
:1036200021460120FFF7AEFE6B6800945B08042280
:1036300011210120FFF7A6FEAB6800945B080A2267
:1036400017210120FFF79EFEE8684008FDF7F2FA17
:10365000654B18600294FCF7DFFECDE900010E22F5
:103660001C210120FFF78EFE2B6900945B081422B9
:1036700022210120FFF786FE534B1A78D31EDBB2BE
:10368000022B40F2F9810E2A00F058825B4B186839
:10369000FDF7D4FA544B18605449FDF7D7FB0124C9
:1036A0000294FCF7B9FECDE900010822114620463C
:1036B000FFF768FE524D00240094D5F818330F220E
:1036C0000E210120FFF75EFED5F81C3300940C227A
:1036D00013210120FFF756FE4A4B1B6800940D2270
:1036E0001C210120FFF74EFE474B1B68009411225E
:1036F00026210120FFF746FE444B1B7813F0020FF2
:1037000040F03182424B1B68009410222621012098
:10371000FFF738FE3D4B1B7813F0010F40F02D8270
:103720003B4B1B6800220092062226210120FFF756
:1037300029FE224B1B68002B00F029821F4B1B68BF
:10374000022B00F06A821D4B1B68032B00F03A83AA
:103750001A4B1B68042B00F0FF83184B1B68052BCA
:1037600000F0AE84154B1B68062B00F08385134BCD
:103770001B68072B00F07C86104B1B68082B00F0A1
:103780005B870E4B1B68092B01F048800B4B1B68B5
:103790000A2B01F035813DE0380A0020700300203B
:1037A00024000020140A00200C0A0020300A002007
:1037B00084080020AA230020D405002088230020AC
:1037C0000800002026030020ED2300203C0A0020F2
:1037D000400A002020000020360C00208E0C002023
:1037E00058210020900D0020780300200000204187
:1037F000842300206021002094230020780C0020E6
:10380000501B0020E42000203C0C00203C0D002038
:10381000AC230020A34B1B680B2B01F0FE81A14BB6
:103820001B680E2B01F070829F4C2078FDF702FA86
:103830004FF08741FDF756FA05466078FDF7FEF92F
:103840002946FDF747F9994B1860964B1B6813B151
:103850000E2B41F07482964B1B68002B41F079824D
:10386000944B1B788F4A1068834241F07682924BCA
:103870001878924B1B78984201F076828F4B187023
:10388000FFF7B0FC01F070BA8D4B00221A7038E6D9
:103890008C4A8D4B1B7813608C4B1B7853608C4B80
:1038A0001B7893608B4B18788B4B1B7803F00F01C0
:1038B00041EA00114FF6FF704140D1608749097815
:1038C0001B0943EA0113434013610023844A136038
:1038D000844A13600F2284490A6084490A60844A3A
:1038E0007D211160834ABE211160834A78211160D5
:1038F000824A1721116001E00133DBB21D46714A93
:1039000052F823207E4951F823108A4201D1052B19
:10391000F2D9042B3FF602AE794941F8252003F194
:103920001901784A1170C3EB0313DA007D32704B32
:103930001A6001241DE06C4B1B686A4A12686849D2
:1039400009686C48006802906948006801906748FF
:10395000006800902320FFF769FB0FE0654A1368B9
:10396000664909680B4413606400B4F5805FBFF6D4
:10397000D5AD544B53F825301C42DCD1514B53F894
:103980002530002BEAD1584B1B68564A126854491F
:1039900009684FF4EB7002900020019053480068D2
:1039A00000902320FFF742FBD8E7574A52F8231034
:1039B000564A52F82320564B1B685648006810445C
:1039C000032402944FF4C974019400900B442E20F8
:1039D000FFF72CFB504B4FF47A721A60AEE54F4A5A
:1039E00052F823104E4A52F823204E4B1B684E4883
:1039F00000681044032402944FF4C97401940090A9
:103A00000B442D20FFF712FB98E5484B4FF4FC6266
:103A10001A60A0E50020009002460121FFF7B2FCE9
:103A2000A6E5434D00240094D5F8203107220C214F
:103A30000120FFF7A7FC0094D5F8243104221B21B4
:103A40000120FFF79FFC0094D5F828310A221721A6
:103A50000120FFF797FC0094D5F82C310E221C2191
:103A60000120FFF78FFCD5F8303100941422222179
:103A70000120FFF787FCFFE52E4B1868FDF7DEF805
:103A80000A4B18602C49FDF7E1F901240294FCF778
:103A9000C3FCCDE90001082211462046FFF772FC65
:103AA00008E600BF88230020180A002078030020C1
:103AB000840800207C030020400000201C0300201C
:103AC000AA230020C0050020300300202F0300207F
:103AD0002E030020410D00203C0D0020BB1A0020C9
:103AE00018030020140300203C00002038000020B0
:103AF00034000020300000202C000020280000208E
:103B0000A80500200800002088B30008DCB20008E7
:103B1000D8B20008D4B2000844000020A8B40008BD
:103B20006CB4000868B4000864B4000820000020E9
:103B300060210020F820002000002041944B1878DC
:103B4000FDF778F8934B18609349FDF77FF901244E
:103B50000294FCF761FCCDE90001082211462046E1
:103B6000FFF710FCA6E58D4B1B680922009210227E
:103B700026210120FFF706FCCCE5884B1B680922B3
:103B80000092062226210120FFF7FCFBD1E5844BA1
:103B90001B6800240094282221460120FFF7F2FB35
:103BA000804B1B680094152221460120FFF7EAFB99
:103BB0007D4D00942B68092221460120FFF7E2FB8E
:103BC0007A4B1B680094162221460120FFF7DAFB8E
:103BD000774B1B6900945B082B2221460120FFF7DD
:103BE000D1FB744B1B680094292221460120FFF76A
:103BF000C9FB2868FDF71EF8664B18606649FDF79B
:103C000025F901250295FCF707FCCDE900010B22FF
:103C100021462846FFF7B6FB90E5674D286DFDF776
:103C200009F8DFF87081C8F800005B49FDF70EF96C
:103C3000624C266801270297FCF7EEFBCDE90001F4
:103C40000B2214213046FFF79DFB002600962B69BE
:103C50001C2204212068FFF795FB594B1B68009636
:103C6000192239462068FFF78DFB0096AB681A22AF
:103C700002212068FFF786FB0096EB681B220321D8
:103C80002068FFF77FFB00966B691D2205212068E5
:103C9000FFF778FB0096AB691E2206212068FFF72C
:103CA00071FB0096EB691F2207212068FFF76AFB72
:103CB000286AFCF7BFFFC8F800003749FDF7C6F8CF
:103CC000D4F800900297FCF7A7FBCDE90001202271
:103CD00008214846FFF756FB00966B6A212209210E
:103CE0002068FFF74FFB0096AB6A22220A2120686A
:103CF000FFF748FB0096EB6A23220B212068FFF7B1
:103D000041FB286BFCF796FFC8F800002249FDF73D
:103D10009DF8D4F800800297FCF77EFBCDE9000106
:103D200024220C214046FFF72DFB00966B6B2522C9
:103D30000D212068FFF726FB0096AB6B26220E2193
:103D40002068FFF71FFB0096EB6B27220F212068EE
:103D5000FFF718FB00962B6C282210212068FFF734
:103D600011FB00966B6C292211212068FFF70AFBDA
:103D70000096AB6C2A2212212068FFF703FBEB6C44
:103D8000206800962B221321FFF7FCFADBE400BF2A
:103D9000112400207803002000002041AC230020E3
:103DA000400C0020E8230020E40D0020880D0020B6
:103DB00094230020D81A0020501B002054210020FA
:103DC000E4200020BA4DD5F8A800FCF733FFB94F26
:103DD0003860B94CD4F8008000260296FCF71CFB32
:103DE000CDE900010B2214214046FFF7CBFA0096E3
:103DF000EB6D192201212068FFF7C4FA00962B6EA3
:103E00001A2202212068FFF7BDFA00966B6E1B2272
:103E100003212068FFF7B6FAA86EFCF70BFF3860A5
:103E2000A649FDF713F8D4F8008001230293FCF7AC
:103E3000F3FACDE900011C2204214046FFF7A2FA63
:103E40000096EB6E1D2205212068FFF79BFA009675
:103E50002B6F1E2206212068FFF794FA00966B6FE5
:103E60001F2207212068FFF78DFAA86FFCF7E2FEFA
:103E700038609249FCF7EAFFD4F800800296FCF71C
:103E8000CBFACDE90001202208214046FFF77AFA5B
:103E90000096EB6F212209212068FFF773FA009644
:103EA000D5F8803022220A212068FFF76BFA0096AD
:103EB000D5F8843023220B212068FFF763FAD5F868
:103EC0008800FCF7B7FE38607C49FCF7BFFF276825
:103ED0000296FCF7A1FACDE9000124220C21384614
:103EE000FFF750FA0096D5F88C3025220D21206876
:103EF000FFF748FA0096D5F8903026220E21206868
:103F0000FFF740FA0096D5F8943027220F21206859
:103F1000FFF738FA0096D5F898302822102120684B
:103F2000FFF730FA0096D5F89C302922112120683D
:103F3000FFF728FA0096D5F8A0302A22122120682F
:103F4000FFF720FAD5F8A430206800962B22132121
:103F5000FFF718FAFFF7FCBB554D574C4FF4E273CF
:103F6000019369230093D5F8E43058220D2120688D
:103F7000FFF75AFAD5F8E000FCF75CFEDFF8349161
:103F8000C9F800004D49FCF761FF26684FF00108B1
:103F9000CDF80880FCF740FACDE900010B220C2196
:103FA0003046FFF7EFF9092600960A2305220C2177
:103FB0002068FFF7E7F90096D5F8B0301822002105
:103FC0002068FFF7DFF900270097D5F8B4301922F1
:103FD00041462068FFF7D6F90097D5F8B8301A2285
:103FE00002212068FFF7CEF90097D5F8BC301B22DC
:103FF00003212068FFF7C6F9D5F8C000FCF71AFEC8
:10400000C9F800002D49FCF721FFD4F800A0029662
:10401000FCF702FACDE90001202204215046FFF707
:10402000B1F90097D5F8C430212205212068FFF7A7
:10403000A9F90097D5F8C830222206212068FFF799
:10404000A1F90097D5F8CC30232207212068FFF78B
:1040500099F9D5F8D000FCF7EDFDC9F80000174933
:10406000FCF7F4FE2768CDF80880FCF7D5F9CDE918
:104070000001282208213846FFF784F90096D5F878
:10408000D430292231462068FFF77CF90096D5F814
:10409000D8302A220A212068FFF774F9D5F8DC30DD
:1040A000206800962B220B21FFF76CF9FFF755BB18
:1040B000501B0020780300205421002000002041E4
:1040C000684DD5F83401FCF7B5FD674F3860674996
:1040D000FCF7BCFE664C26684FF00108CDF808805E
:1040E000FCF79AF9CDE9000105220B213046FFF7D4
:1040F00049F9D5F83001FCF79DFD38605B49FCF7C4
:10410000A5FE2668CDF80880FCF786F9CDE9000108
:104110000B220A213046FFF735F9D5F80801FCF7E4
:1041200089FD3860D4F8009000260296FCF774F9F7
:10413000CDE90001182231464846FFF723F90096E1
:10414000D5F80C31192241462068FFF71BF900967B
:10415000D5F810311A2202212068FFF713F90096D2
:10416000D5F814311B2203212068FFF70BF9D5F88D
:104170002801FCF75FFD3860D4F800900296FCF748
:104180004BF9CDE90001202228214846FFF7FAF833
:104190004FF00909CDF80090D5F81C3122223021CA
:1041A0002068FFF7EFF8CDF80090D5F820312322F2
:1041B0002C212068FFF7E6F8D5F81801FCF73AFD46
:1041C00038602A49FCF742FED4F800A0CDF80880F8
:1041D000FCF722F9CDE90001242204215046FFF723
:1041E000D1F80096D5F81C31252205212068FFF76B
:1041F000C9F80096D5F82031262206212068FFF75D
:10420000C1F80096D5F82431272207212068FFF74E
:10421000B9F8D5F82801FCF70DFD3860276802963B
:10422000FCF7FAF8CDE90001282208213846FFF70B
:10423000A9F84FF4BD73019369260096D5F828318B
:10424000582208212068FFF7EFF8D5F82C312068B4
:1042500040F29F120192009658224946FFF7E4F877
:10426000FFF780BA501B0020780300200000204197
:10427000542100207A4DD5F8A001FCF7DBFC794FE2
:1042800038607949FCF7E2FD784C26684FF0010868
:10429000CDF80880FCF7C0F8CDE900010B22102111
:1042A0003046FFF76FF8D5F86001FCF7C3FC3860C3
:1042B0006D49FCF7CBFD2668CDF80880FCF7ACF81B
:1042C000CDE90001182200213046FFF75BF80026F7
:1042D0000096D5F86431192241462068FFF752F85C
:1042E0000096D5F868311A2202212068FFF74AF8B3
:1042F0000096D5F86C311B2203212068FFF742F8A5
:10430000D5F87001FCF796FC38605749FCF79EFD24
:10431000D4F80090CDF80880FCF77EF8CDE90001D4
:104320001C2204214846FFF72DF80096D5F8743179
:104330001D2205212068FFF725F80096D5F8783171
:104340001E2206212068FFF71DF80096D5F87C3163
:104350001F2207212068FFF715F8D5F88001FCF728
:1043600069FC38604049FCF771FDD4F80090CDF845
:104370000880FCF751F8CDE90001202208214846C9
:10438000FFF700F80096D5F8843121220921206832
:10439000FEF7F8FF0096D5F8883122220A2120681E
:1043A000FEF7F0FF0096D5F88C3123220B21206810
:1043B000FEF7E8FFD5F89001FCF73CFC38602A498D
:1043C000FCF744FD276809260296FCF725F8CDE99D
:1043D0000001242223213846FEF7D4FF0096D5F8A9
:1043E0009431252223212068FEF7CCFF0096D5F8D2
:1043F0009831262223212068FEF7C4FF0096D5F8C5
:104400009C31272223212068FEF7BCFF0096D5F8B7
:104410009C31282223212068FEF7B4FF0096D5F8AE
:104420009C31292223212068FEF7ACFF0096D5F8A5
:104430009C312A2223212068FEF7A4FF0096D5F89C
:104440009C312B2223212068FEF79CFFD5F89C315C
:10445000206800962C222321FEF794FFFFF787B9EE
:10446000501B002078030020000020415421002030
:104470006D4DD5F8E401FCF7DDFBDFF8B881C8F835
:1044800000006A49FCF7E2FC694C266801270297A4
:10449000FBF7C2FFCDE900010B2211463046FEF7C3
:1044A00071FFD5F8E001FCF7C5FBC8F80000D4F8AF
:1044B000009000260296FBF7AFFFCDE90001132222
:1044C0000A214846FEF75EFF40F2331301934FF096
:1044D0006909CDF80090D5F8D83158220821206814
:1044E000FEF7A2FF4FF4BE730193CDF80090D5F80C
:1044F000DC31582209212068FEF796FFD5F8B80173
:10450000FCF798FBC8F800004849FCF79FFCD4F87A
:1045100000900297FBF780FFCDE900011822314699
:104520004846FEF72FFF0096D5F8BC3119223946D0
:104530002068FEF727FF0096D5F8C0311A22022125
:104540002068FEF71FFF0096D5F8C4311B22032117
:104550002068FEF717FFD5F8C801FCF76BFBC8F819
:1045600000003249FCF772FCD4F800800297FBF798
:1045700053FFCDE900011C2204214046FEF702FF53
:104580000096D5F8CC311D2205212068FEF7FAFEF1
:104590000096D5F8D0311E2206212068FEF7F2FEE3
:1045A0000096D5F8D4311F2207212068FEF7EAFED5
:1045B00009260096D5F8D431202225212068FEF75F
:1045C000E1FE0096D5F8D43121222F212068FEF794
:1045D000D9FE0096D5F8D43122222F212068FEF78B
:1045E000D1FE0096D5F8D43123222F212068FEF782
:1045F000C9FE0096D5F8D43124222F212068FEF779
:10460000C1FE0096D5F8D43126222F212068FEF76E
:10461000B9FED5F8D4312068009627222F21FEF765
:10462000B1FEFFF7A9B800BF501B002000002041D9
:104630005421002078030020744DD5F85072DFF823
:10464000D8813846FCF7F6FAC8F80000704C4FF4F1
:104650009A730193692600963B46582210212068E0
:10466000FEF7E2FE4FF4BE7301930096D5F8543284
:10467000582211212068FEF7D7FED5F81002FCF76A
:10468000D9FAC8F800006349FCF7E0FB2668012767
:104690000297FBF7C1FECDE9000118220021304648
:1046A000FEF770FE00260096D5F81432192239461E
:1046B0002068FEF767FE0096D5F818321A2202210C
:1046C0002068FEF75FFE0096D5F81C321B220321FE
:1046D0002068FEF757FED5F82002FCF7ABFAC8F8C1
:1046E00000004C49FCF7B2FBD4F800900297FBF7AE
:1046F00093FECDE900011C2204214846FEF742FE4C
:104700000096D5F824321D2205212068FEF73AFED6
:104710000096D5F828321E2206212068FEF732FEC8
:104720000096D5F82C321F2207212068FEF72AFEBA
:10473000D5F83002FCF77EFAC8F800003549FCF7DE
:1047400085FBD4F800900297FBF766FECDE90001E7
:10475000202208214846FEF715FE2E49D8F8000011
:10476000FCF774FBD4F800900297FBF755FECDE9F7
:1047700000010B2208214846FEF704FE0096D5F8FA
:104780003432212209212068FEF7FCFD0096D5F87D
:10479000383222220A212068FEF7F4FD0096D5F86F
:1047A0003C3223220B212068FEF7ECFDD5F84002B5
:1047B000FCF740FAC8F800001649FCF747FBD4F8AC
:1047C00000800297FBF728FECDE9000124220C218E
:1047D0004046FEF7D7FD0096D5F8443225220D213C
:1047E0002068FEF7CFFD0096D5F8483226220E212C
:1047F0002068FEF7C7FDD5F84C32206800962722C6
:104800000F21FEF7BFFDFEF7BCBF00BF501B00200D
:10481000542100200000204178030020744CD4F87B
:10482000A802FCF707FA734F3860734D2E684FF0FB
:104830000909CDF80890FBF7EFFDCDE900010B2247
:104840002E213046FEF79EFDD4F8AC02FCF7F2F9BB
:1048500038604FF4BE73019369260096D4F8A832ED
:10486000582210212868FEF7DFFD4FF49A73019358
:104870000096D4F8AC32582211212868FEF7D4FDF6
:10488000D4F86802FCF7D6F938605C49FCF7DEFA28
:104890002E684FF00108CDF80880FBF7BDFDCDE98B
:1048A0000001182200213046FEF76CFD002600961C
:1048B000D4F86C32192241462868FEF763FD009651
:1048C000D4F870321A2202212868FEF75BFD0096A8
:1048D000D4F874321B2203212868FEF753FDD4F864
:1048E0007802FCF7A7F938604449FCF7AFFAD5F82D
:1048F00000A0CDF80880FBF78FFDCDE900011C2258
:1049000004215046FEF73EFD0096D4F87C321D226D
:1049100005212868FEF736FD0096D4F880321E2265
:1049200006212868FEF72EFD0096D4F884321F2257
:1049300007212868FEF726FDD4F88802FCF77AF9EB
:1049400038602E49FCF782FAD5F800A0CDF808802F
:10495000FBF762FDCDE90001202208215046FEF759
:1049600011FD0096D4F88C32212249462868FEF7C2
:1049700009FD0096D4F8903222220A212868FEF719
:1049800001FD0096D4F8943223220B212868FEF70B
:10499000F9FCD4F89802FCF74DF938601749FCF798
:1049A00055FA2F68CDF80880FBF736FDCDE90001F8
:1049B00024220C213846FEF7E5FC0096D4F89C3200
:1049C00025220D212868FEF7DDFC0096D4F8A032E0
:1049D00026220E212868FEF7D5FCD4F8A4322868D8
:1049E000009627220F21FEF7CDFCFEF7CFBE00BFB9
:1049F000501B00207803002054210020000020419B
:104A0000BE4ED6F81003FCF715F9BD4F3860BD4D0A
:104A1000D5F8008000240294FBF7FEFCCDE90001EC
:104A20000B2211214046FEF7ADFCD6F81403FCF72B
:104A300001F93860D5F800800294FBF7EDFCCDE970
:104A40000001052212214046FEF79CFCD6F8C00268
:104A5000FCF7F0F83860D5F800800294FBF7DCFC36
:104A6000CDE900012C2221464046FEF78BFC009444
:104A7000D6F8C4322D2201212868FEF783FC009469
:104A8000D6F8C8322E2202212868FEF77BFC00945B
:104A9000D6F8CC322F2203212868FEF773FCD6F813
:104AA000D002FCF7C7F83860D5F800800294FBF715
:104AB000B3FCCDE90001302204214046FEF762FC40
:104AC000D6F8E002FCF7B6F83860D5F8008002941A
:104AD000FBF7A2FCCDE90001312208214046FEF798
:104AE00051FCD5F8008002943868FBF795FCCDE9BD
:104AF0000001322208214046FEF744FCD5F8008030
:104B000002943868FBF788FCCDE9000133220821C4
:104B10004046FEF737FC0094D6F8E03234220821F4
:104B20002868FEF72FFCD5F8008002943868FBF760
:104B300073FCCDE90001352208214046FEF722FC36
:104B40000094D6F8F03236220C212868FEF71AFCC1
:104B50000094D6F8F03237220C212868FEF712FCB8
:104B6000D6F8F002FCF766F83860D5F800800294B9
:104B7000FBF752FCCDE9000138220C214046FEF73C
:104B800001FCD5F8008002943868FBF745FCCDE9BC
:104B9000000139220C214046FEF7F4FBD5F80080D5
:104BA00002943868FBF738FCCDE900013A220C2169
:104BB0004046FEF7E7FBD6F80003FCF73BF8386009
:104BC0002F680294FBF728FCCDE900013B2210215D
:104BD0003846FEF7D7FB0094D6F800333C2210216C
:104BE0002868FEF7CFFB0094D6F800333D22102151
:104BF0002868FEF7C7FB0094D6F800333E22102148
:104C00002868FEF7BFFBD6F80033286800943F22DF
:104C10001021FEF7B7FBFEF7FDBD384C394D0026DD
:104C20000096D4F818330B2231462868FEF7AAFB09
:104C30000096D4F81C33052201212868FEF7A2FB58
:104C40000096D4F82033192202212868FEF79AFB37
:104C50000096D4F824331D2203212868FEF792FB26
:104C60000096D4F82833212204212868FEF78AFB15
:104C70004FF00908CDF80080D4F8283325222C21E4
:104C80002868FEF77FFB4FF49A730193692700971A
:104C9000D4F82C33582205212868FEF7C5FB4FF4C1
:104CA000AC7301930097D4F830335822062128685A
:104CB000FEF7BAFB4FF4BE7301930097D4F8343378
:104CC000582207212868FEF7AFFB0096D4F8383346
:104CD000252208212868FEF755FB28680096D4F89D
:104CE0003C3329224146FEF74DFBD4F8F002FBF796
:104CF000A1FF034B1860FEF792BD00BF501B0020C0
:104D00007803002054210020424E434D4FF49A7303
:104D1000019369240094D6F8203458220021286891
:104D2000FEF782FBD6F8243428684FF4A172019272
:104D3000009458220121FEF777FBFEF775BD374B33
:104D40001B680021009115220120FEF71BFBFEF7D6
:104D500082BDFEF7DDF9FEF783BDC0B2FEF706FAAD
:104D60002F4B1A682F4B1A702F4B1868C8B92F4B4E
:104D70001B683F2B1CD82E4A13702E4B1B78A52B7B
:104D80001AD02D4B00221A702B4B1B781BB92B4AC3
:104D90001370284A13702A4B01221A7004B0BDE820
:104DA000F087C0B2FEF702FA1F4B00221A60DEE75E
:104DB0001F4B40221A70E0E71E4B5B785A2BE0D164
:104DC0001C4B9B78072BDCD11A4BDB78812BD8D17D
:104DD000184B1B79072BD4D1164B5B79042BD0D100
:104DE000184B1B780A2BCCD1134B01221A70114B94
:104DF00000221A709979FF29C6D0DA7902EB0122D4
:104E000011490A601A7A5B7A43EA02230F4A136057
:104E1000BAE77047501B002054210020880D002065
:104E2000882300207C030020A80D002044000020DF
:104E300040000020180A0020100A00202500002051
:104E40002400002074030020340A00208808002079
:104E5000002070472DE9F04F00200AE000EB4002EF
:104E6000D100064A0A440021D1540133172BF5DD45
:104E70000130832804DC0023F8E700BF580E00202F
:104E8000D94BC8221A60D94B1A60D94B1A60D94B3A
:104E90001A60D94B1A600021D84B1960D84B1960A1
:104EA000D84B1960D84B40F24C521A60D74B40F2A5
:104EB0006F621A60D64B40F256421A60D54B1960A9
:104EC0000124D54B1C60D54B4FF4E1721A604FF4AE
:104ED0009670D34B1860D34BC8221A60D24B19601E
:104EE000596050229A604FF03C08C3F80C80196159
:104EF000586128269E612922DA61C3F82080642245
:104F00005A621E259D621F22DA62196359639E63ED
:104F1000DD6319645A229A64DA6441225A64C34AEE
:104F200041F65E7CC2F81CC04FF00A0EC2F820E0C9
:104F300019659965D9651D66C3F864809966D96657
:104F40001E675E6799674FF04609C3F87C904FF083
:104F5000320CC3F880C0C3F884C0C3F88810C3F80B
:104F60008C00C3F89060C3F89480C3F898104FF495
:104F7000C870C3F89C00C3F8A0504FF0190AC3F8DA
:104F8000A4A0C3F8A81050205062C2F828A0C820DE
:104F9000D0621563C2F834904FF4FA709063232006
:104FA000D063142010644FF42F775764C3F8B01007
:104FB000C3F8B4E0C3F8B860C3F8BCA0C3F8C0102D
:104FC000C827C3F8C470C3F8C860C3F8CCA0C3F83E
:104FD000D0E0C3F8D410C3F8D810C3F8DC10C3F87D
:104FE000E010C3F8E41015279764D764C2F850C0E6
:104FF0004FF0160AC2F854A0C2F858A04FF4487AED
:10500000C2F85CA010664FF0050AC2F864A0916671
:105010004FF4167BC3F808B14FF08D0BC3F80CB1F9
:105020004FF0630BC3F810B1C3F814B1C3F81841C3
:105030004FF08E0BC3F81CB1C3F82051C3F82451B4
:10504000C3F82811C3F82C41C3F83011C3F8341148
:105050004FF0170BC2F86CB0C2F870B0C2F8748091
:105060004FF0180BC2F878B0C2F87CB0C2F880B02C
:10507000C2F884C0C2F888A0C2F88C40C3F86001AE
:10508000C3F864C1C3F86891C3F86C91C3F87001A8
:10509000C3F87461C3F87881C3F87C81C3F8805188
:1050A000C3F88411C3F88811C3F88C11C3F89011A8
:1050B000C3F89411C3F89811C3F89C11C3F8A01158
:1050C00040F6D63BC2F890B0C2F89450C827C2F858
:1050D000987040F6DD1BC2F89CB0C2F8A00040F208
:1050E000E47BC2F8A4B0C2F8A800C2F8ACE0C2F8F1
:1050F000B000C3F8B801C3F8BC11C3F8C0511F27F2
:10510000C3F8C471C3F8C801C3F8CC11C3F8D00107
:105110001527C3F8D471C3F8D811C3F8DC11C3F84C
:10512000E0E10327C3F8E4714FF00F0BC2F8B4B00D
:10513000C2F8B8B0C2F8BCA04FF0100BC2F8C0B0B3
:10514000C2F8C4B0C2F8C8004FF0020BC2F8CCB02D
:10515000C2F8D0B0C2F8D440C3F81002C3F8141299
:10516000C3F818622927C3F81C72C3F82002C3F8D9
:105170002412C3F828521F27C3F82C720327C3F840
:105180003072C3F83412C3F83812C3F83C12C3F8B3
:105190004012C3F84412C3F84812C3F84C12C3F8C3
:1051A0005012C3F854121127C2F8D870C2F8DC703C
:1051B000C2F8E0B04FF0120BC2F8E4B0C2F8E8B0A9
:1051C000C2F8EC00C2F8F0A0C2F8F440C2F8F8400F
:1051D000C3F86802C3F86C12C3F870521F27C3F8F3
:1051E0007472C3F8780223E0F0230020B823002073
:1051F0004C0D00202C0C0020E0230020E823002090
:10520000D81A0020440C00205C210020001B002044
:10521000980D0020E4230020A00D00205C00002059
:105220005800002054000020501B00206021002066
:10523000C3F87C12C3F880622927C3F88472C3F8CC
:105240008812C3F88C12C3F890824FF03D08C3F85F
:105250009482C3F89812C3F89C12C3F8A0C24FF00E
:105260003308C3F8A482C3F8A812C3F8AC124FF0F5
:105270001308C2F8FC80C2F80081C2F804E1C2F849
:1052800008E1C2F80CE14FF00B0EC2F810E1C2F8D1
:1052900014E1C2F818A1C2F81C414FF0D20EC3F8B5
:1052A000C0E24FF0D70EC3F8C4E24FF0CD0EC3F802
:1052B000C8E24FF0C30EC3F8CCE2C3F8D092C3F8F3
:1052C000D492C3F8D862C3F8DC12C3F8E092C3F8F2
:1052D000E412C3F8E812C3F8EC12C3F8F062C3F8A2
:1052E000F412C3F8F812C3F8FC126426C3F8006382
:1052F000C3F80413C3F80813C3F80C13C3F810134E
:105300009626C2F82061C2F82461C2F82861C2F86A
:105310002C61C2F830615026C2F83461C2F838619D
:10532000C2F83C516425C2F84051C3F818C3C3F811
:105330001C03C3F820134FF4FA65C3F824534FF449
:105340007A75C3F82853C3F82C43C3F83043C3F825
:105350003443C2F844C1C826C2F84861C2F84C01BF
:10536000C2F8505147F23050C2F854014FF4FA706D
:10537000C2F8580141F27070C2F85C01C2F86011C5
:10538000C2F86441C3F87013C3F87443C3F87813C8
:10539000C3F87C13C3F88013C3F888134FF4FA7270
:1053A000C3F88C234FF42F72C3F88423BDE8F08F29
:1053B0006C4B1B686C4A934240F2D380F0B402F10C
:1053C000854202F552320432A2FB0312920C674965
:1053D000A1FB03014809642404FB10300446490979
:1053E000634BA3FB01535B0B42F2107505FB1313D8
:1053F0001E465C4908605F4981FB025189105E4D81
:105400002960042907D003290FD05B4B1B68012BAF
:105410003BD0F0BC704701EB81056F00D51B072D19
:10542000F1D1564D00272F60EDE7524981FB025123
:10543000891001EB81014D00511B4F4D296009B9C5
:105440004F4D2B60012911D0022912D00429DCD143
:1054500008B94C490B6001280ED002280FD0032850
:1054600010D00428D1D148490B60CEE7474D2B60BE
:10547000EAE7474D2B60E9E746490B60EDE746490F
:105480000B60ECE745490B60EBE703F1663383FB08
:1054900002139B1003EB83035900531A364A13601F
:1054A0003BB93F4A1268B24223D040F6A41296425A
:1054B0001FD0012B26D0022B2BD0032B36D0042B50
:1054C000A7D1384B1B6873404FF6FE72134243D18D
:1054D00016F0010F31D00023334A1360334A1360B2
:1054E000304B1B6883F4256383F005031D4A13606A
:1054F0008FE71CB92E4A00211170DAE72C4A0121EE
:105500001170D6E72A4A1278012AD4D1244A1660AB
:10551000D1E7284A1268B242CFD11CB9264A0021ED
:105520001170CAE7244A01211170C6E7224A127895
:10553000002AC4D11F4A1660C1E7204B1B6823F024
:1055400001031B041B0C174A1360174B01221A603E
:10555000164B00221A60C3E7194A1368013313601F
:1055600057E77047880D00207F9698001F85EB5104
:105570005917B7D167666666F8230020E823002034
:105580005C000020F0230020E023002058000020D1
:1055900054000020B82300204C0D00202C0C0020CB
:1055A0005C210020980D0020A00D0020E4230020A5
:1055B00047030020001B002044030020D80D0020DA
:1055C000B80C0020264B1B6813B9264A0121117024
:1055D0000B2B1CD00B2B26D0012B12DD0B2B2ED02E
:1055E000214A127852B19A1E20490968162000FB00
:1055F00002121F4908681F4941F822001C4A002175
:105600001160012B21D01C4B01221A707047174AE0
:105610001268092ADED1164A1268002ADAD0174A1F
:1056200001211170D6E7114A1268082AD4D1104A14
:105630001268002AD0D0114A02211170CCE70B4A1F
:105640001268083A012ACBD8DBE70D4B1B780233EE
:10565000034A13600023054A1360054A1360D2E72A
:10566000882300208423002065030020542100208B
:10567000880D0020501B002024240020330300202C
:10568000840D0020014B00221A60704788230020FF
:10569000124B1B78062B11D8114B0F221A60114B9D
:1056A0001E221A600D4B1B78062B0ED801331B01EE
:1056B0000D4A136012330D4A13607047084B0022E5
:1056C0001A60084B0F221A60ECE7063B1B01064AE2
:1056D00013601233054A1360704700BF840D002029
:1056E000FC000020F8000020F4000020F000002062
:1056F000034B04221A70034B01221A70704700BF3B
:10570000560D0020580D002010B5A54B0A221A7026
:10571000A44B1B78122B48D01A2B4AD0A14B1B78D4
:10572000222B4DD09F4B1B78112B50D0192B52D0D0
:10573000212B54D0102B56D0182B58D0202B5AD0B8
:10574000232B5CD01B2B5ED0964B1B781F2B5DD080
:10575000944B1B78172B5CD0924B1B78272B00F0B7
:105760008780904B1B781C2B00F0A8808D4B1B78FA
:10577000142B00F0A7818C4B1968C1EBC10301EB1E
:1057800083038A4A126813448948C35C002B40F0A3
:105790005082043A854B1A60002AECDA854B53F8A4
:1057A0002130013B814A1360E5E77D4A01211170F8
:1057B000B2E77B4B02221A700120FFF799FFADE799
:1057C000774B03221A700220FFF792FFAAE7744A70
:1057D00004211170AAE7724A05211170A8E7704AE6
:1057E00006211170A6E76E4A07211170A4E76C4AE2
:1057F00008211170A2E76A4A09211170A0E7684ADE
:10580000002111709EE7FFF7DDFE9DE7FFF73AFFED
:105810009EE7694B46221A70644B1B68002B03DD20
:10582000013B624A13600EE05F4B1A68614B53F80C
:105830002230013B5D4A136005E05E4B53F8213096
:10584000013B5A4A1360584B1968C1EBC10301EB85
:105850008303564A126813445548C35C2BB9002A87
:10586000EBDD013A514B1A60EDE7FFF711FF73E7EB
:10587000514B46221A704D4A1368013313604A4A4D
:1058800011684C4A52F821409C4202D8474B0022F2
:105890001A60C1EBC10301EB8303444A126813444D
:1058A0004348C35C3BB90132404B1A609442F0D884
:1058B00000221A60EDE7FFF7EBFE52E73E4B46226F
:1058C0001A703E4A13780133DBB213700C2B02D9E5
:1058D000134600221A70344B1B68022B23D0032B73
:1058E0004CD0042B6CD0052B00F08280062B00F0EE
:1058F0009980072B00F0A880A3F10802012A40F24A
:10590000BD800A2B00F0D28028490A6801320A6063
:10591000284951F82330934202D8244B00221A60C0
:10592000FFF7B6FE06E0214B1B680F2B1CDC04338F
:105930001E4A13601C4B1968C1EBC10301EB8303C2
:105940001A4A126813441A48C35C002B7FF40EAF46
:105950000432164B1A60174B53F821309342E9D8A2
:10596000124B00221A60E5E7132B03DC0F4B1422C5
:105970001A60DFE70D4B00221A60DBE70B4B1B6858
:105980000F2B03DC0433094A1360D3E7132B03DC2A
:10599000064B14221A60CDE7044B00221A60C9E7B7
:1059A000CC0D0020360C002088230020542100203C
:1059B000E4B400087C000020C00D0020840D00200D
:1059C000944B1B68082B03DC0433924A1360B1E745
:1059D0000B2B03DC8F4B0C221A60ABE70C2B03D094
:1059E0008C4B00221A60A5E78A4B0D221A60A1E7B2
:1059F000884B1B68A3F10802022A03D80133854AA9
:105A0000136097E7032B03DC0433824A136091E7AA
:105A1000072B03DC7F4B08221A608BE77D4B0022AB
:105A20001A6087E77B4B1B680B2B03DC0433794A36
:105A300013607FE70F2B03DC764B10221A6079E7A7
:105A4000744B00221A6075E7724B1B68A3F10802C1
:105A5000022A03D801336F4A13606BE7032B03DC80
:105A600004336C4A136065E7072B03DC694B08229B
:105A70001A605FE7674B00221A605BE7654B1B68A3
:105A80000C2B03DC0433634A136053E70F2B03DC56
:105A9000604B10221A604DE7102B03D15D4B112291
:105AA0001A6047E75B4B00221A6043E7594B1B68BB
:105AB0000F2B03DC0433574A13603BE7554B00229E
:105AC0001A6037E7544B46221A70544B1B780BB3BD
:105AD000013B524A1370524B1B68022B1ED0032B02
